{
  "_format": "hh-sol-artifact-1",
  "contractName": "DevAdrianSwapPool",
  "sourceName": "contracts/DevAdrianSwapPool.sol",
  "abi": [
    {
      "inputs": [
        {
          "internalType": "address",
          "name": "_lipt",
          "type": "address"
        },
        {
          "internalType": "address",
          "name": "_usdt",
          "type": "address"
        }
      ],
      "stateMutability": "nonpayable",
      "type": "constructor"
    },
    {
      "inputs": [
        {
          "internalType": "address",
          "name": "spender",
          "type": "address"
        },
        {
          "internalType": "uint256",
          "name": "allowance",
          "type": "uint256"
        },
        {
          "internalType": "uint256",
          "name": "needed",
          "type": "uint256"
        }
      ],
      "name": "ERC20InsufficientAllowance",
      "type": "error"
    },
    {
      "inputs": [
        {
          "internalType": "address",
          "name": "sender",
          "type": "address"
        },
        {
          "internalType": "uint256",
          "name": "balance",
          "type": "uint256"
        },
        {
          "internalType": "uint256",
          "name": "needed",
          "type": "uint256"
        }
      ],
      "name": "ERC20InsufficientBalance",
      "type": "error"
    },
    {
      "inputs": [
        {
          "internalType": "address",
          "name": "approver",
          "type": "address"
        }
      ],
      "name": "ERC20InvalidApprover",
      "type": "error"
    },
    {
      "inputs": [
        {
          "internalType": "address",
          "name": "receiver",
          "type": "address"
        }
      ],
      "name": "ERC20InvalidReceiver",
      "type": "error"
    },
    {
      "inputs": [
        {
          "internalType": "address",
          "name": "sender",
          "type": "address"
        }
      ],
      "name": "ERC20InvalidSender",
      "type": "error"
    },
    {
      "inputs": [
        {
          "internalType": "address",
          "name": "spender",
          "type": "address"
        }
      ],
      "name": "ERC20InvalidSpender",
      "type": "error"
    },
    {
      "inputs": [
        {
          "internalType": "address",
          "name": "owner",
          "type": "address"
        }
      ],
      "name": "OwnableInvalidOwner",
      "type": "error"
    },
    {
      "inputs": [
        {
          "internalType": "address",
          "name": "account",
          "type": "address"
        }
      ],
      "name": "OwnableUnauthorizedAccount",
      "type": "error"
    },
    {
      "inputs": [
        {
          "internalType": "address",
          "name": "token",
          "type": "address"
        }
      ],
      "name": "SafeERC20FailedOperation",
      "type": "error"
    },
    {
      "anonymous": false,
      "inputs": [
        {
          "indexed": true,
          "internalType": "address",
          "name": "owner",
          "type": "address"
        },
        {
          "indexed": true,
          "internalType": "address",
          "name": "spender",
          "type": "address"
        },
        {
          "indexed": false,
          "internalType": "uint256",
          "name": "value",
          "type": "uint256"
        }
      ],
      "name": "Approval",
      "type": "event"
    },
    {
      "anonymous": false,
      "inputs": [
        {
          "indexed": false,
          "internalType": "uint256",
          "name": "usdtSpent",
          "type": "uint256"
        },
        {
          "indexed": false,
          "internalType": "uint256",
          "name": "liptBurned",
          "type": "uint256"
        }
      ],
      "name": "BuybackExecuted",
      "type": "event"
    },
    {
      "anonymous": false,
      "inputs": [
        {
          "indexed": true,
          "internalType": "address",
          "name": "user",
          "type": "address"
        },
        {
          "indexed": false,
          "internalType": "uint256",
          "name": "liptAmount",
          "type": "uint256"
        },
        {
          "indexed": false,
          "internalType": "uint256",
          "name": "usdtAmount",
          "type": "uint256"
        },
        {
          "indexed": false,
          "internalType": "uint256",
          "name": "lpMinted",
          "type": "uint256"
        }
      ],
      "name": "LiquidityAdded",
      "type": "event"
    },
    {
      "anonymous": false,
      "inputs": [
        {
          "indexed": true,
          "internalType": "address",
          "name": "user",
          "type": "address"
        },
        {
          "indexed": false,
          "internalType": "uint256",
          "name": "liptAmount",
          "type": "uint256"
        },
        {
          "indexed": false,
          "internalType": "uint256",
          "name": "usdtAmount",
          "type": "uint256"
        },
        {
          "indexed": false,
          "internalType": "uint256",
          "name": "lpBurned",
          "type": "uint256"
        }
      ],
      "name": "LiquidityRemoved",
      "type": "event"
    },
    {
      "anonymous": false,
      "inputs": [
        {
          "indexed": true,
          "internalType": "address",
          "name": "previousOwner",
          "type": "address"
        },
        {
          "indexed": true,
          "internalType": "address",
          "name": "newOwner",
          "type": "address"
        }
      ],
      "name": "OwnershipTransferred",
      "type": "event"
    },
    {
      "anonymous": false,
      "inputs": [
        {
          "indexed": true,
          "internalType": "address",
          "name": "user",
          "type": "address"
        },
        {
          "indexed": false,
          "internalType": "address",
          "name": "tokenIn",
          "type": "address"
        },
        {
          "indexed": false,
          "internalType": "address",
          "name": "tokenOut",
          "type": "address"
        },
        {
          "indexed": false,
          "internalType": "uint256",
          "name": "amountIn",
          "type": "uint256"
        },
        {
          "indexed": false,
          "internalType": "uint256",
          "name": "amountOut",
          "type": "uint256"
        }
      ],
      "name": "TokensSwapped",
      "type": "event"
    },
    {
      "anonymous": false,
      "inputs": [
        {
          "indexed": true,
          "internalType": "address",
          "name": "from",
          "type": "address"
        },
        {
          "indexed": true,
          "internalType": "address",
          "name": "to",
          "type": "address"
        },
        {
          "indexed": false,
          "internalType": "uint256",
          "name": "value",
          "type": "uint256"
        }
      ],
      "name": "Transfer",
      "type": "event"
    },
    {
      "inputs": [],
      "name": "LIPT",
      "outputs": [
        {
          "internalType": "contract IERC20",
          "name": "",
          "type": "address"
        }
      ],
      "stateMutability": "view",
      "type": "function"
    },
    {
      "inputs": [],
      "name": "USDT",
      "outputs": [
        {
          "internalType": "contract IERC20",
          "name": "",
          "type": "address"
        }
      ],
      "stateMutability": "view",
      "type": "function"
    },
    {
      "inputs": [
        {
          "internalType": "uint256",
          "name": "liptAmount",
          "type": "uint256"
        },
        {
          "internalType": "uint256",
          "name": "usdtAmount",
          "type": "uint256"
        }
      ],
      "name": "addLiquidity",
      "outputs": [
        {
          "internalType": "uint256",
          "name": "lpMinted",
          "type": "uint256"
        }
      ],
      "stateMutability": "nonpayable",
      "type": "function"
    },
    {
      "inputs": [
        {
          "internalType": "address",
          "name": "owner",
          "type": "address"
        },
        {
          "internalType": "address",
          "name": "spender",
          "type": "address"
        }
      ],
      "name": "allowance",
      "outputs": [
        {
          "internalType": "uint256",
          "name": "",
          "type": "uint256"
        }
      ],
      "stateMutability": "view",
      "type": "function"
    },
    {
      "inputs": [
        {
          "internalType": "address",
          "name": "spender",
          "type": "address"
        },
        {
          "internalType": "uint256",
          "name": "value",
          "type": "uint256"
        }
      ],
      "name": "approve",
      "outputs": [
        {
          "internalType": "bool",
          "name": "",
          "type": "bool"
        }
      ],
      "stateMutability": "nonpayable",
      "type": "function"
    },
    {
      "inputs": [
        {
          "internalType": "address",
          "name": "account",
          "type": "address"
        }
      ],
      "name": "balanceOf",
      "outputs": [
        {
          "internalType": "uint256",
          "name": "",
          "type": "uint256"
        }
      ],
      "stateMutability": "view",
      "type": "function"
    },
    {
      "inputs": [],
      "name": "decimals",
      "outputs": [
        {
          "internalType": "uint8",
          "name": "",
          "type": "uint8"
        }
      ],
      "stateMutability": "view",
      "type": "function"
    },
    {
      "inputs": [
        {
          "internalType": "uint256",
          "name": "usdtAmount",
          "type": "uint256"
        }
      ],
      "name": "executeBuybackAndBurn",
      "outputs": [],
      "stateMutability": "nonpayable",
      "type": "function"
    },
    {
      "inputs": [],
      "name": "getReserves",
      "outputs": [
        {
          "internalType": "uint256",
          "name": "",
          "type": "uint256"
        },
        {
          "internalType": "uint256",
          "name": "",
          "type": "uint256"
        }
      ],
      "stateMutability": "view",
      "type": "function"
    },
    {
      "inputs": [],
      "name": "name",
      "outputs": [
        {
          "internalType": "string",
          "name": "",
          "type": "string"
        }
      ],
      "stateMutability": "view",
      "type": "function"
    },
    {
      "inputs": [],
      "name": "owner",
      "outputs": [
        {
          "internalType": "address",
          "name": "",
          "type": "address"
        }
      ],
      "stateMutability": "view",
      "type": "function"
    },
    {
      "inputs": [
        {
          "internalType": "uint256",
          "name": "lpAmount",
          "type": "uint256"
        }
      ],
      "name": "removeLiquidity",
      "outputs": [
        {
          "internalType": "uint256",
          "name": "liptAmount",
          "type": "uint256"
        },
        {
          "internalType": "uint256",
          "name": "usdtAmount",
          "type": "uint256"
        }
      ],
      "stateMutability": "nonpayable",
      "type": "function"
    },
    {
      "inputs": [],
      "name": "renounceOwnership",
      "outputs": [],
      "stateMutability": "nonpayable",
      "type": "function"
    },
    {
      "inputs": [
        {
          "internalType": "uint256",
          "name": "_swapFeeBasisPoints",
          "type": "uint256"
        }
      ],
      "name": "setSwapFee",
      "outputs": [],
      "stateMutability": "nonpayable",
      "type": "function"
    },
    {
      "inputs": [
        {
          "internalType": "address",
          "name": "tokenIn",
          "type": "address"
        },
        {
          "internalType": "uint256",
          "name": "amountIn",
          "type": "uint256"
        }
      ],
      "name": "swap",
      "outputs": [
        {
          "internalType": "uint256",
          "name": "amountOut",
          "type": "uint256"
        }
      ],
      "stateMutability": "nonpayable",
      "type": "function"
    },
    {
      "inputs": [],
      "name": "swapFeeBasisPoints",
      "outputs": [
        {
          "internalType": "uint256",
          "name": "",
          "type": "uint256"
        }
      ],
      "stateMutability": "view",
      "type": "function"
    },
    {
      "inputs": [],
      "name": "symbol",
      "outputs": [
        {
          "internalType": "string",
          "name": "",
          "type": "string"
        }
      ],
      "stateMutability": "view",
      "type": "function"
    },
    {
      "inputs": [],
      "name": "totalSupply",
      "outputs": [
        {
          "internalType": "uint256",
          "name": "",
          "type": "uint256"
        }
      ],
      "stateMutability": "view",
      "type": "function"
    },
    {
      "inputs": [
        {
          "internalType": "address",
          "name": "to",
          "type": "address"
        },
        {
          "internalType": "uint256",
          "name": "value",
          "type": "uint256"
        }
      ],
      "name": "transfer",
      "outputs": [
        {
          "internalType": "bool",
          "name": "",
          "type": "bool"
        }
      ],
      "stateMutability": "nonpayable",
      "type": "function"
    },
    {
      "inputs": [
        {
          "internalType": "address",
          "name": "from",
          "type": "address"
        },
        {
          "internalType": "address",
          "name": "to",
          "type": "address"
        },
        {
          "internalType": "uint256",
          "name": "value",
          "type": "uint256"
        }
      ],
      "name": "transferFrom",
      "outputs": [
        {
          "internalType": "bool",
          "name": "",
          "type": "bool"
        }
      ],
      "stateMutability": "nonpayable",
      "type": "function"
    },
    {
      "inputs": [
        {
          "internalType": "address",
          "name": "newOwner",
          "type": "address"
        }
      ],
      "name": "transferOwnership",
      "outputs": [],
      "stateMutability": "nonpayable",
      "type": "function"
    }
  ],
  "bytecode": "0x60c0604052601e6006553480156200001657600080fd5b5060405162002e3438038062002e3483398181016040528101906200003c9190620002f6565b336040518060400160405280600c81526020017f44657641647269616e204c5000000000000000000000000000000000000000008152506040518060400160405280600381526020017f644c5000000000000000000000000000000000000000000000000000000000008152508160039081620000ba9190620005b7565b508060049081620000cc9190620005b7565b505050600073ffffffffffffffffffffffffffffffffffffffff168173ffffffffffffffffffffffffffffffffffffffff1603620001445760006040517f1e4fbdf70000000000000000000000000000000000000000000000000000000081526004016200013b9190620006af565b60405180910390fd5b6200015581620001c660201b60201c565b508173ffffffffffffffffffffffffffffffffffffffff1660808173ffffffffffffffffffffffffffffffffffffffff16815250508073ffffffffffffffffffffffffffffffffffffffff1660a08173ffffffffffffffffffffffffffffffffffffffff16815250505050620006cc565b6000600560009054906101000a900473ffffffffffffffffffffffffffffffffffffffff16905081600560006101000a81548173ffffffffffffffffffffffffffffffffffffffff021916908373ffffffffffffffffffffffffffffffffffffffff1602179055508173ffffffffffffffffffffffffffffffffffffffff168173ffffffffffffffffffffffffffffffffffffffff167f8be0079c531659141344cd1fd0a4f28419497f9722a3daafe3b4186f6b6457e060405160405180910390a35050565b600080fd5b600073ffffffffffffffffffffffffffffffffffffffff82169050919050565b6000620002be8262000291565b9050919050565b620002d081620002b1565b8114620002dc57600080fd5b50565b600081519050620002f081620002c5565b92915050565b6000806040838503121562000310576200030f6200028c565b5b60006200032085828601620002df565b92505060206200033385828601620002df565b9150509250929050565b600081519050919050565b7f4e487b7100000000000000000000000000000000000000000000000000000000600052604160045260246000fd5b7f4e487b7100000000000000000000000000000000000000000000000000000000600052602260045260246000fd5b60006002820490506001821680620003bf57607f821691505b602082108103620003d557620003d462000377565b5b50919050565b60008190508160005260206000209050919050565b60006020601f8301049050919050565b600082821b905092915050565b6000600883026200043f7fffffffffffffffffffffffffffffffffffffffffffffffffffffffffffffffff8262000400565b6200044b868362000400565b95508019841693508086168417925050509392505050565b6000819050919050565b6000819050919050565b600062000498620004926200048c8462000463565b6200046d565b62000463565b9050919050565b6000819050919050565b620004b48362000477565b620004cc620004c3826200049f565b8484546200040d565b825550505050565b600090565b620004e3620004d4565b620004f0818484620004a9565b505050565b5b8181101562000518576200050c600082620004d9565b600181019050620004f6565b5050565b601f82111562000567576200053181620003db565b6200053c84620003f0565b810160208510156200054c578190505b620005646200055b85620003f0565b830182620004f5565b50505b505050565b600082821c905092915050565b60006200058c600019846008026200056c565b1980831691505092915050565b6000620005a7838362000579565b9150826002028217905092915050565b620005c2826200033d565b67ffffffffffffffff811115620005de57620005dd62000348565b5b620005ea8254620003a6565b620005f78282856200051c565b600060209050601f8311600181146200062f57600084156200061a578287015190505b62000626858262000599565b86555062000696565b601f1984166200063f86620003db565b60005b82811015620006695784890151825560018201915060208501945060208101905062000642565b8683101562000689578489015162000685601f89168262000579565b8355505b6001600288020188555050505b505050505050565b620006a981620002b1565b82525050565b6000602082019050620006c660008301846200069e565b92915050565b60805160a0516126d96200075b600039600081816108000152818161096401528181610ae001528181610b5b01528181610d9101528181610e4401528181610fe901526115640152600081816106a2015281816107b50152818161091701528181610b0601528181610c2f01528181610d6b01528181610e1e0152818161104801526114c401526126d96000f3fe608060405234801561001057600080fd5b50600436106101375760003560e01c806395d89b41116100b8578063a9059cbb1161007c578063a9059cbb14610344578063c54e44eb14610374578063d004f0f714610392578063dd62ed3e146103c2578063f2fde38b146103f2578063f8b128fa1461040e57610137565b806395d89b4114610289578063981d21bb146102a75780639c8f9f23146102c55780639cd441da146102f6578063a22f23921461032657610137565b8063313ce567116100ff578063313ce567146101f757806334e199071461021557806370a0823114610231578063715018a6146102615780638da5cb5b1461026b57610137565b806306fdde031461013c5780630902f1ac1461015a578063095ea7b31461017957806318160ddd146101a957806323b872dd146101c7575b600080fd5b61014461042a565b6040516101519190611cc9565b60405180910390f35b6101626104bc565b604051610170929190611d04565b60405180910390f35b610193600480360381019061018e9190611dbc565b6104cd565b6040516101a09190611e17565b60405180910390f35b6101b16104f0565b6040516101be9190611e32565b60405180910390f35b6101e160048036038101906101dc9190611e4d565b6104fa565b6040516101ee9190611e17565b60405180910390f35b6101ff610529565b60405161020c9190611ebc565b60405180910390f35b61022f600480360381019061022a9190611ed7565b610532565b005b61024b60048036038101906102469190611f04565b610588565b6040516102589190611e32565b60405180910390f35b6102696105d0565b005b6102736105e4565b6040516102809190611f40565b60405180910390f35b61029161060e565b60405161029e9190611cc9565b60405180910390f35b6102af6106a0565b6040516102bc9190611fba565b60405180910390f35b6102df60048036038101906102da9190611ed7565b6106c4565b6040516102ed929190611d04565b60405180910390f35b610310600480360381019061030b9190611fd5565b6108a6565b60405161031d9190611e32565b60405180910390f35b61032e610ab5565b60405161033b9190611e32565b60405180910390f35b61035e60048036038101906103599190611dbc565b610abb565b60405161036b9190611e17565b60405180910390f35b61037c610ade565b6040516103899190611fba565b60405180910390f35b6103ac60048036038101906103a79190611dbc565b610b02565b6040516103b99190611e32565b60405180910390f35b6103dc60048036038101906103d79190612015565b610e89565b6040516103e99190611e32565b60405180910390f35b61040c60048036038101906104079190611f04565b610f10565b005b61042860048036038101906104239190611ed7565b610f96565b005b60606003805461043990612084565b80601f016020809104026020016040519081016040528092919081815260200182805461046590612084565b80156104b25780601f10610487576101008083540402835291602001916104b2565b820191906000526020600020905b81548152906001019060200180831161049557829003601f168201915b5050505050905090565b600080600754600854915091509091565b6000806104d86110d1565b90506104e58185856110d9565b600191505092915050565b6000600254905090565b6000806105056110d1565b90506105128582856110eb565b61051d858585611180565b60019150509392505050565b60006012905090565b61053a611274565b606481111561057e576040517f08c379a000000000000000000000000000000000000000000000000000000000815260040161057590612101565b60405180910390fd5b8060068190555050565b60008060008373ffffffffffffffffffffffffffffffffffffffff1673ffffffffffffffffffffffffffffffffffffffff168152602001908152602001600020549050919050565b6105d8611274565b6105e260006112fb565b565b6000600560009054906101000a900473ffffffffffffffffffffffffffffffffffffffff16905090565b60606004805461061d90612084565b80601f016020809104026020016040519081016040528092919081815260200182805461064990612084565b80156106965780601f1061066b57610100808354040283529160200191610696565b820191906000526020600020905b81548152906001019060200180831161067957829003601f168201915b5050505050905090565b7f000000000000000000000000000000000000000000000000000000000000000081565b6000806000831161070a576040517f08c379a00000000000000000000000000000000000000000000000000000000081526004016107019061216d565b60405180910390fd5b6000806007546008549150915060006107216104f0565b905080838761073091906121bc565b61073a919061222d565b945080828761074991906121bc565b610753919061222d565b93506000851180156107655750600084115b6107a4576040517f08c379a000000000000000000000000000000000000000000000000000000000815260040161079b906122aa565b60405180910390fd5b6107ae33876113c1565b6107f933867f000000000000000000000000000000000000000000000000000000000000000073ffffffffffffffffffffffffffffffffffffffff166114439092919063ffffffff16565b61084433857f000000000000000000000000000000000000000000000000000000000000000073ffffffffffffffffffffffffffffffffffffffff166114439092919063ffffffff16565b61084c6114c2565b3373ffffffffffffffffffffffffffffffffffffffff167f1dc8bb69df2b8e91fbdcbfcf93d951b3f0000f085a95fe3f7946d6161439245d868689604051610896939291906122ca565b60405180910390a2505050915091565b600080831180156108b75750600082115b6108f6576040517f08c379a00000000000000000000000000000000000000000000000000000000081526004016108ed9061216d565b60405180910390fd5b60008060075460085491509150600061090d6104f0565b905061095c3330887f000000000000000000000000000000000000000000000000000000000000000073ffffffffffffffffffffffffffffffffffffffff16611604909392919063ffffffff16565b6109a93330877f000000000000000000000000000000000000000000000000000000000000000073ffffffffffffffffffffffffffffffffffffffff16611604909392919063ffffffff16565b600081036109cc576109c585876109c091906121bc565b611686565b9350610a05565b610a028382886109dc91906121bc565b6109e6919061222d565b8383886109f391906121bc565b6109fd919061222d565b611700565b93505b60008411610a48576040517f08c379a0000000000000000000000000000000000000000000000000000000008152600401610a3f9061234d565b60405180910390fd5b610a523385611719565b610a5a6114c2565b3373ffffffffffffffffffffffffffffffffffffffff167f64b83944e79c3ce8d4c297411de637c3e102d064677aac0c163976ebdcd6f50e878787604051610aa4939291906122ca565b60405180910390a250505092915050565b60065481565b600080610ac66110d1565b9050610ad3818585611180565b600191505092915050565b7f000000000000000000000000000000000000000000000000000000000000000081565b60007f000000000000000000000000000000000000000000000000000000000000000073ffffffffffffffffffffffffffffffffffffffff168373ffffffffffffffffffffffffffffffffffffffff161480610ba957507f000000000000000000000000000000000000000000000000000000000000000073ffffffffffffffffffffffffffffffffffffffff168373ffffffffffffffffffffffffffffffffffffffff16145b610be8576040517f08c379a0000000000000000000000000000000000000000000000000000000008152600401610bdf906123b9565b60405180910390fd5b60008211610c2b576040517f08c379a0000000000000000000000000000000000000000000000000000000008152600401610c2290612425565b60405180910390fd5b60007f000000000000000000000000000000000000000000000000000000000000000073ffffffffffffffffffffffffffffffffffffffff168473ffffffffffffffffffffffffffffffffffffffff1614905060008082610c9157600854600754610c98565b6007546008545b91509150600061271060065487610caf91906121bc565b610cb9919061222d565b905060008187610cc99190612445565b90508084610cd79190612479565b8382610ce391906121bc565b610ced919061222d565b955060008611610d32576040517f08c379a0000000000000000000000000000000000000000000000000000000008152600401610d29906124f9565b60405180910390fd5b610d5f3330898b73ffffffffffffffffffffffffffffffffffffffff16611604909392919063ffffffff16565b610dd6338787610d8f577f0000000000000000000000000000000000000000000000000000000000000000610db1565b7f00000000000000000000000000000000000000000000000000000000000000005b73ffffffffffffffffffffffffffffffffffffffff166114439092919063ffffffff16565b610dde6114c2565b3373ffffffffffffffffffffffffffffffffffffffff167fad56699d0f375866eb895ed27203058a36a713382aaded78eb6b67da266d43328987610e42577f0000000000000000000000000000000000000000000000000000000000000000610e64565b7f00000000000000000000000000000000000000000000000000000000000000005b8a8a604051610e769493929190612519565b60405180910390a2505050505092915050565b6000600160008473ffffffffffffffffffffffffffffffffffffffff1673ffffffffffffffffffffffffffffffffffffffff16815260200190815260200160002060008373ffffffffffffffffffffffffffffffffffffffff1673ffffffffffffffffffffffffffffffffffffffff16815260200190815260200160002054905092915050565b610f18611274565b600073ffffffffffffffffffffffffffffffffffffffff168173ffffffffffffffffffffffffffffffffffffffff1603610f8a5760006040517f1e4fbdf7000000000000000000000000000000000000000000000000000000008152600401610f819190611f40565b60405180910390fd5b610f93816112fb565b50565b610f9e611274565b60008111610fe1576040517f08c379a0000000000000000000000000000000000000000000000000000000008152600401610fd8906125aa565b60405180910390fd5b61102e3330837f000000000000000000000000000000000000000000000000000000000000000073ffffffffffffffffffffffffffffffffffffffff16611604909392919063ffffffff16565b6000600a8261103d91906121bc565b905061108c61dead827f000000000000000000000000000000000000000000000000000000000000000073ffffffffffffffffffffffffffffffffffffffff166114439092919063ffffffff16565b6110946114c2565b7f8e8412cac6b961b95ef832e2bac486977bbd29eb9725f9eddd97f3380c31f64982826040516110c5929190611d04565b60405180910390a15050565b600033905090565b6110e6838383600161179b565b505050565b60006110f78484610e89565b90507fffffffffffffffffffffffffffffffffffffffffffffffffffffffffffffffff81101561117a578181101561116a578281836040517ffb8f41b2000000000000000000000000000000000000000000000000000000008152600401611161939291906125ca565b60405180910390fd5b6111798484848403600061179b565b5b50505050565b600073ffffffffffffffffffffffffffffffffffffffff168373ffffffffffffffffffffffffffffffffffffffff16036111f25760006040517f96c6fd1e0000000000000000000000000000000000000000000000000000000081526004016111e99190611f40565b60405180910390fd5b600073ffffffffffffffffffffffffffffffffffffffff168273ffffffffffffffffffffffffffffffffffffffff16036112645760006040517fec442f0500000000000000000000000000000000000000000000000000000000815260040161125b9190611f40565b60405180910390fd5b61126f838383611972565b505050565b61127c6110d1565b73ffffffffffffffffffffffffffffffffffffffff1661129a6105e4565b73ffffffffffffffffffffffffffffffffffffffff16146112f9576112bd6110d1565b6040517f118cdaa70000000000000000000000000000000000000000000000000000000081526004016112f09190611f40565b60405180910390fd5b565b6000600560009054906101000a900473ffffffffffffffffffffffffffffffffffffffff16905081600560006101000a81548173ffffffffffffffffffffffffffffffffffffffff021916908373ffffffffffffffffffffffffffffffffffffffff1602179055508173ffffffffffffffffffffffffffffffffffffffff168173ffffffffffffffffffffffffffffffffffffffff167f8be0079c531659141344cd1fd0a4f28419497f9722a3daafe3b4186f6b6457e060405160405180910390a35050565b600073ffffffffffffffffffffffffffffffffffffffff168273ffffffffffffffffffffffffffffffffffffffff16036114335760006040517f96c6fd1e00000000000000000000000000000000000000000000000000000000815260040161142a9190611f40565b60405180910390fd5b61143f82600083611972565b5050565b6114bd838473ffffffffffffffffffffffffffffffffffffffff1663a9059cbb8585604051602401611476929190612601565b604051602081830303815290604052915060e01b6020820180517bffffffffffffffffffffffffffffffffffffffffffffffffffffffff8381831617835250505050611b97565b505050565b7f000000000000000000000000000000000000000000000000000000000000000073ffffffffffffffffffffffffffffffffffffffff166370a08231306040518263ffffffff1660e01b815260040161151b9190611f40565b602060405180830381865afa158015611538573d6000803e3d6000fd5b505050506040513d601f19601f8201168201806040525081019061155c919061263f565b6007819055507f000000000000000000000000000000000000000000000000000000000000000073ffffffffffffffffffffffffffffffffffffffff166370a08231306040518263ffffffff1660e01b81526004016115bb9190611f40565b602060405180830381865afa1580156115d8573d6000803e3d6000fd5b505050506040513d601f19601f820116820180604052508101906115fc919061263f565b600881905550565b611680848573ffffffffffffffffffffffffffffffffffffffff166323b872dd8686866040516024016116399392919061266c565b604051602081830303815290604052915060e01b6020820180517bffffffffffffffffffffffffffffffffffffffffffffffffffffffff8381831617835250505050611b97565b50505050565b600060038211156116ed57819050600060016002846116a5919061222d565b6116af9190612479565b90505b818110156116e75780915060028182856116cc919061222d565b6116d69190612479565b6116e0919061222d565b90506116b2565b506116fb565b600082146116fa57600190505b5b919050565b600081831061170f5781611711565b825b905092915050565b600073ffffffffffffffffffffffffffffffffffffffff168273ffffffffffffffffffffffffffffffffffffffff160361178b5760006040517fec442f050000000000000000000000000000000000000000000000000000000081526004016117829190611f40565b60405180910390fd5b61179760008383611972565b5050565b600073ffffffffffffffffffffffffffffffffffffffff168473ffffffffffffffffffffffffffffffffffffffff160361180d5760006040517fe602df050000000000000000000000000000000000000000000000000000000081526004016118049190611f40565b60405180910390fd5b600073ffffffffffffffffffffffffffffffffffffffff168373ffffffffffffffffffffffffffffffffffffffff160361187f5760006040517f94280d620000000000000000000000000000000000000000000000000000000081526004016118769190611f40565b60405180910390fd5b81600160008673ffffffffffffffffffffffffffffffffffffffff1673ffffffffffffffffffffffffffffffffffffffff16815260200190815260200160002060008573ffffffffffffffffffffffffffffffffffffffff1673ffffffffffffffffffffffffffffffffffffffff16815260200190815260200160002081905550801561196c578273ffffffffffffffffffffffffffffffffffffffff168473ffffffffffffffffffffffffffffffffffffffff167f8c5be1e5ebec7d5bd14f71427d1e84f3dd0314c0f7b2291e5b200ac8c7c3b925846040516119639190611e32565b60405180910390a35b50505050565b600073ffffffffffffffffffffffffffffffffffffffff168373ffffffffffffffffffffffffffffffffffffffff16036119c45780600260008282546119b89190612479565b92505081905550611a97565b60008060008573ffffffffffffffffffffffffffffffffffffffff1673ffffffffffffffffffffffffffffffffffffffff16815260200190815260200160002054905081811015611a50578381836040517fe450d38c000000000000000000000000000000000000000000000000000000008152600401611a47939291906125ca565b60405180910390fd5b8181036000808673ffffffffffffffffffffffffffffffffffffffff1673ffffffffffffffffffffffffffffffffffffffff16815260200190815260200160002081905550505b600073ffffffffffffffffffffffffffffffffffffffff168273ffffffffffffffffffffffffffffffffffffffff1603611ae05780600260008282540392505081905550611b2d565b806000808473ffffffffffffffffffffffffffffffffffffffff1673ffffffffffffffffffffffffffffffffffffffff168152602001908152602001600020600082825401925050819055505b8173ffffffffffffffffffffffffffffffffffffffff168373ffffffffffffffffffffffffffffffffffffffff167fddf252ad1be2c89b69c2b068fc378daa952ba7f163c4a11628f55a4df523b3ef83604051611b8a9190611e32565b60405180910390a3505050565b600080602060008451602086016000885af180611bba576040513d6000823e3d81fd5b3d925060005191505060008214611bd5576001811415611bf1565b60008473ffffffffffffffffffffffffffffffffffffffff163b145b15611c3357836040517f5274afe7000000000000000000000000000000000000000000000000000000008152600401611c2a9190611f40565b60405180910390fd5b50505050565b600081519050919050565b600082825260208201905092915050565b60005b83811015611c73578082015181840152602081019050611c58565b60008484015250505050565b6000601f19601f8301169050919050565b6000611c9b82611c39565b611ca58185611c44565b9350611cb5818560208601611c55565b611cbe81611c7f565b840191505092915050565b60006020820190508181036000830152611ce38184611c90565b905092915050565b6000819050919050565b611cfe81611ceb565b82525050565b6000604082019050611d196000830185611cf5565b611d266020830184611cf5565b9392505050565b600080fd5b600073ffffffffffffffffffffffffffffffffffffffff82169050919050565b6000611d5d82611d32565b9050919050565b611d6d81611d52565b8114611d7857600080fd5b50565b600081359050611d8a81611d64565b92915050565b611d9981611ceb565b8114611da457600080fd5b50565b600081359050611db681611d90565b92915050565b60008060408385031215611dd357611dd2611d2d565b5b6000611de185828601611d7b565b9250506020611df285828601611da7565b9150509250929050565b60008115159050919050565b611e1181611dfc565b82525050565b6000602082019050611e2c6000830184611e08565b92915050565b6000602082019050611e476000830184611cf5565b92915050565b600080600060608486031215611e6657611e65611d2d565b5b6000611e7486828701611d7b565b9350506020611e8586828701611d7b565b9250506040611e9686828701611da7565b9150509250925092565b600060ff82169050919050565b611eb681611ea0565b82525050565b6000602082019050611ed16000830184611ead565b92915050565b600060208284031215611eed57611eec611d2d565b5b6000611efb84828501611da7565b91505092915050565b600060208284031215611f1a57611f19611d2d565b5b6000611f2884828501611d7b565b91505092915050565b611f3a81611d52565b82525050565b6000602082019050611f556000830184611f31565b92915050565b6000819050919050565b6000611f80611f7b611f7684611d32565b611f5b565b611d32565b9050919050565b6000611f9282611f65565b9050919050565b6000611fa482611f87565b9050919050565b611fb481611f99565b82525050565b6000602082019050611fcf6000830184611fab565b92915050565b60008060408385031215611fec57611feb611d2d565b5b6000611ffa85828601611da7565b925050602061200b85828601611da7565b9150509250929050565b6000806040838503121561202c5761202b611d2d565b5b600061203a85828601611d7b565b925050602061204b85828601611d7b565b9150509250929050565b7f4e487b7100000000000000000000000000000000000000000000000000000000600052602260045260246000fd5b6000600282049050600182168061209c57607f821691505b6020821081036120af576120ae612055565b5b50919050565b7f53776170506f6f6c3a2046656520746f6f206869676800000000000000000000600082015250565b60006120eb601683611c44565b91506120f6826120b5565b602082019050919050565b6000602082019050818103600083015261211a816120de565b9050919050565b7f4c69717569646974793a207a65726f20616d6f756e7400000000000000000000600082015250565b6000612157601683611c44565b915061216282612121565b602082019050919050565b600060208201905081810360008301526121868161214a565b9050919050565b7f4e487b7100000000000000000000000000000000000000000000000000000000600052601160045260246000fd5b60006121c782611ceb565b91506121d283611ceb565b92508282026121e081611ceb565b915082820484148315176121f7576121f661218d565b5b5092915050565b7f4e487b7100000000000000000000000000000000000000000000000000000000600052601260045260246000fd5b600061223882611ceb565b915061224383611ceb565b925082612253576122526121fe565b5b828204905092915050565b7f4c69717569646974793a20696e73756666696369656e7420616d6f756e740000600082015250565b6000612294601e83611c44565b915061229f8261225e565b602082019050919050565b600060208201905081810360008301526122c381612287565b9050919050565b60006060820190506122df6000830186611cf5565b6122ec6020830185611cf5565b6122f96040830184611cf5565b949350505050565b7f4c69717569646974793a20696e73756666696369656e74206d696e7400000000600082015250565b6000612337601c83611c44565b915061234282612301565b602082019050919050565b600060208201905081810360008301526123668161232a565b9050919050565b7f53776170506f6f6c3a20496e76616c696420746f6b656e000000000000000000600082015250565b60006123a3601783611c44565b91506123ae8261236d565b602082019050919050565b600060208201905081810360008301526123d281612396565b9050919050565b7f53776170506f6f6c3a207a65726f20616d6f756e740000000000000000000000600082015250565b600061240f601583611c44565b915061241a826123d9565b602082019050919050565b6000602082019050818103600083015261243e81612402565b9050919050565b600061245082611ceb565b915061245b83611ceb565b92508282039050818111156124735761247261218d565b5b92915050565b600061248482611ceb565b915061248f83611ceb565b92508282019050808211156124a7576124a661218d565b5b92915050565b7f53776170506f6f6c3a20696e73756666696369656e74206f7574707574000000600082015250565b60006124e3601d83611c44565b91506124ee826124ad565b602082019050919050565b60006020820190508181036000830152612512816124d6565b9050919050565b600060808201905061252e6000830187611f31565b61253b6020830186611f31565b6125486040830185611cf5565b6125556060830184611cf5565b95945050505050565b7f4275796261636b3a205a65726f20616d6f756e74000000000000000000000000600082015250565b6000612594601483611c44565b915061259f8261255e565b602082019050919050565b600060208201905081810360008301526125c381612587565b9050919050565b60006060820190506125df6000830186611f31565b6125ec6020830185611cf5565b6125f96040830184611cf5565b949350505050565b60006040820190506126166000830185611f31565b6126236020830184611cf5565b9392505050565b60008151905061263981611d90565b92915050565b60006020828403121561265557612654611d2d565b5b60006126638482850161262a565b91505092915050565b60006060820190506126816000830186611f31565b61268e6020830185611f31565b61269b6040830184611cf5565b94935050505056fea264697066735822122070eac37104e3f5c62616f4fb0aac8de518eed50ed6de48aa1b9750505791dc1e64736f6c63430008180033",
  "linkReferences": {},
  "deployedLinkReferences": {}
}