{
  "_format": "hh-sol-artifact-1",
  "contractName": "DevAdrianSwapPool",
  "sourceName": "contracts/DevAdrianSwapPool.sol",
  "abi": [
    {
      "inputs": [
        {
          "internalType": "address",
          "name": "_lipt",
          "type": "address"
        },
        {
          "internalType": "address",
          "name": "_usdt",
          "type": "address"
        }
      ],
      "stateMutability": "nonpayable",
      "type": "constructor"
    },
    {
      "inputs": [
        {
          "internalType": "address",
          "name": "owner",
          "type": "address"
        }
      ],
      "name": "OwnableInvalidOwner",
      "type": "error"
    },
    {
      "inputs": [
        {
          "internalType": "address",
          "name": "account",
          "type": "address"
        }
      ],
      "name": "OwnableUnauthorizedAccount",
      "type": "error"
    },
    {
      "inputs": [
        {
          "internalType": "address",
          "name": "token",
          "type": "address"
        }
      ],
      "name": "SafeERC20FailedOperation",
      "type": "error"
    },
    {
      "anonymous": false,
      "inputs": [
        {
          "indexed": false,
          "internalType": "uint256",
          "name": "usdtSpent",
          "type": "uint256"
        },
        {
          "indexed": false,
          "internalType": "uint256",
          "name": "liptBurned",
          "type": "uint256"
        }
      ],
      "name": "BuybackExecuted",
      "type": "event"
    },
    {
      "anonymous": false,
      "inputs": [
        {
          "indexed": true,
          "internalType": "address",
          "name": "user",
          "type": "address"
        },
        {
          "indexed": false,
          "internalType": "uint256",
          "name": "liptAmount",
          "type": "uint256"
        },
        {
          "indexed": false,
          "internalType": "uint256",
          "name": "usdtAmount",
          "type": "uint256"
        }
      ],
      "name": "LiquidityAdded",
      "type": "event"
    },
    {
      "anonymous": false,
      "inputs": [
        {
          "indexed": true,
          "internalType": "address",
          "name": "user",
          "type": "address"
        },
        {
          "indexed": false,
          "internalType": "uint256",
          "name": "liptAmount",
          "type": "uint256"
        },
        {
          "indexed": false,
          "internalType": "uint256",
          "name": "usdtAmount",
          "type": "uint256"
        }
      ],
      "name": "LiquidityRemoved",
      "type": "event"
    },
    {
      "anonymous": false,
      "inputs": [
        {
          "indexed": true,
          "internalType": "address",
          "name": "previousOwner",
          "type": "address"
        },
        {
          "indexed": true,
          "internalType": "address",
          "name": "newOwner",
          "type": "address"
        }
      ],
      "name": "OwnershipTransferred",
      "type": "event"
    },
    {
      "anonymous": false,
      "inputs": [
        {
          "indexed": true,
          "internalType": "address",
          "name": "user",
          "type": "address"
        },
        {
          "indexed": false,
          "internalType": "address",
          "name": "tokenIn",
          "type": "address"
        },
        {
          "indexed": false,
          "internalType": "address",
          "name": "tokenOut",
          "type": "address"
        },
        {
          "indexed": false,
          "internalType": "uint256",
          "name": "amountIn",
          "type": "uint256"
        },
        {
          "indexed": false,
          "internalType": "uint256",
          "name": "amountOut",
          "type": "uint256"
        }
      ],
      "name": "TokensSwapped",
      "type": "event"
    },
    {
      "inputs": [],
      "name": "LIPT",
      "outputs": [
        {
          "internalType": "contract IERC20",
          "name": "",
          "type": "address"
        }
      ],
      "stateMutability": "view",
      "type": "function"
    },
    {
      "inputs": [],
      "name": "USDT",
      "outputs": [
        {
          "internalType": "contract IERC20",
          "name": "",
          "type": "address"
        }
      ],
      "stateMutability": "view",
      "type": "function"
    },
    {
      "inputs": [
        {
          "internalType": "uint256",
          "name": "liptAmount",
          "type": "uint256"
        },
        {
          "internalType": "uint256",
          "name": "usdtAmount",
          "type": "uint256"
        }
      ],
      "name": "addLiquidity",
      "outputs": [],
      "stateMutability": "nonpayable",
      "type": "function"
    },
    {
      "inputs": [
        {
          "internalType": "uint256",
          "name": "usdtAmount",
          "type": "uint256"
        }
      ],
      "name": "executeBuybackAndBurn",
      "outputs": [],
      "stateMutability": "nonpayable",
      "type": "function"
    },
    {
      "inputs": [],
      "name": "owner",
      "outputs": [
        {
          "internalType": "address",
          "name": "",
          "type": "address"
        }
      ],
      "stateMutability": "view",
      "type": "function"
    },
    {
      "inputs": [],
      "name": "renounceOwnership",
      "outputs": [],
      "stateMutability": "nonpayable",
      "type": "function"
    },
    {
      "inputs": [
        {
          "internalType": "uint256",
          "name": "_swapFeeBasisPoints",
          "type": "uint256"
        }
      ],
      "name": "setSwapFee",
      "outputs": [],
      "stateMutability": "nonpayable",
      "type": "function"
    },
    {
      "inputs": [
        {
          "internalType": "address",
          "name": "tokenIn",
          "type": "address"
        },
        {
          "internalType": "uint256",
          "name": "amountIn",
          "type": "uint256"
        }
      ],
      "name": "swap",
      "outputs": [
        {
          "internalType": "uint256",
          "name": "amountOut",
          "type": "uint256"
        }
      ],
      "stateMutability": "nonpayable",
      "type": "function"
    },
    {
      "inputs": [],
      "name": "swapFeeBasisPoints",
      "outputs": [
        {
          "internalType": "uint256",
          "name": "",
          "type": "uint256"
        }
      ],
      "stateMutability": "view",
      "type": "function"
    },
    {
      "inputs": [
        {
          "internalType": "address",
          "name": "newOwner",
          "type": "address"
        }
      ],
      "name": "transferOwnership",
      "outputs": [],
      "stateMutability": "nonpayable",
      "type": "function"
    }
  ],
  "bytecode": "0x60c0604052601e6001553480156200001657600080fd5b50604051620015c5380380620015c583398181016040528101906200003c919062000262565b33600073ffffffffffffffffffffffffffffffffffffffff168173ffffffffffffffffffffffffffffffffffffffff1603620000b25760006040517f1e4fbdf7000000000000000000000000000000000000000000000000000000008152600401620000a99190620002ba565b60405180910390fd5b620000c3816200013460201b60201c565b508173ffffffffffffffffffffffffffffffffffffffff1660808173ffffffffffffffffffffffffffffffffffffffff16815250508073ffffffffffffffffffffffffffffffffffffffff1660a08173ffffffffffffffffffffffffffffffffffffffff16815250505050620002d7565b60008060009054906101000a900473ffffffffffffffffffffffffffffffffffffffff169050816000806101000a81548173ffffffffffffffffffffffffffffffffffffffff021916908373ffffffffffffffffffffffffffffffffffffffff1602179055508173ffffffffffffffffffffffffffffffffffffffff168173ffffffffffffffffffffffffffffffffffffffff167f8be0079c531659141344cd1fd0a4f28419497f9722a3daafe3b4186f6b6457e060405160405180910390a35050565b600080fd5b600073ffffffffffffffffffffffffffffffffffffffff82169050919050565b60006200022a82620001fd565b9050919050565b6200023c816200021d565b81146200024857600080fd5b50565b6000815190506200025c8162000231565b92915050565b600080604083850312156200027c576200027b620001f8565b5b60006200028c858286016200024b565b92505060206200029f858286016200024b565b9150509250929050565b620002b4816200021d565b82525050565b6000602082019050620002d16000830184620002a9565b92915050565b60805160a0516112666200035f600039600081816102b001528181610351015281816103cc0152818161051e0152818161067601528181610791015261087801526000818161025a0152818161028101528181610377015281816104b70152818161057d0152818161061401528181610650015281816107da015261092801526112666000f3fe608060405234801561001057600080fd5b506004361061009e5760003560e01c8063a22f239211610066578063a22f239214610121578063c54e44eb1461013f578063d004f0f71461015d578063f2fde38b1461018d578063f8b128fa146101a95761009e565b806334e19907146100a3578063715018a6146100bf5780638da5cb5b146100c9578063981d21bb146100e75780639cd441da14610105575b600080fd5b6100bd60048036038101906100b89190610cc0565b6101c5565b005b6100c761021b565b005b6100d161022f565b6040516100de9190610d2e565b60405180910390f35b6100ef610258565b6040516100fc9190610da8565b60405180910390f35b61011f600480360381019061011a9190610dc3565b61027c565b005b610129610349565b6040516101369190610e12565b60405180910390f35b61014761034f565b6040516101549190610da8565b60405180910390f35b61017760048036038101906101729190610e59565b610373565b6040516101849190610e12565b60405180910390f35b6101a760048036038101906101a29190610e99565b6106b8565b005b6101c360048036038101906101be9190610cc0565b61073e565b005b6101cd61098f565b6064811115610211576040517f08c379a000000000000000000000000000000000000000000000000000000000815260040161020890610f23565b60405180910390fd5b8060018190555050565b61022361098f565b61022d6000610a16565b565b60008060009054906101000a900473ffffffffffffffffffffffffffffffffffffffff16905090565b7f000000000000000000000000000000000000000000000000000000000000000081565b6102a87f0000000000000000000000000000000000000000000000000000000000000000333085610ada565b6102f53330837f000000000000000000000000000000000000000000000000000000000000000073ffffffffffffffffffffffffffffffffffffffff16610ada909392919063ffffffff16565b3373ffffffffffffffffffffffffffffffffffffffff167fac1d76749e5447b7b16f5ab61447e1bd502f3bb4807af3b28e620d1700a6ee45838360405161033d929190610f43565b60405180910390a25050565b60015481565b7f000000000000000000000000000000000000000000000000000000000000000081565b60007f000000000000000000000000000000000000000000000000000000000000000073ffffffffffffffffffffffffffffffffffffffff168373ffffffffffffffffffffffffffffffffffffffff16148061041a57507f000000000000000000000000000000000000000000000000000000000000000073ffffffffffffffffffffffffffffffffffffffff168373ffffffffffffffffffffffffffffffffffffffff16145b610459576040517f08c379a000000000000000000000000000000000000000000000000000000000815260040161045090610fb8565b60405180910390fd5b60006127106001548461046c9190611007565b6104769190611078565b90506000818461048691906110a9565b90506104b53330868873ffffffffffffffffffffffffffffffffffffffff16610ada909392919063ffffffff16565b7f000000000000000000000000000000000000000000000000000000000000000073ffffffffffffffffffffffffffffffffffffffff168573ffffffffffffffffffffffffffffffffffffffff160361056757600a816105159190611078565b925061056233847f000000000000000000000000000000000000000000000000000000000000000073ffffffffffffffffffffffffffffffffffffffff16610b5c9092919063ffffffff16565b6105c2565b600a816105749190611007565b92506105c133847f000000000000000000000000000000000000000000000000000000000000000073ffffffffffffffffffffffffffffffffffffffff16610b5c9092919063ffffffff16565b5b3373ffffffffffffffffffffffffffffffffffffffff167fad56699d0f375866eb895ed27203058a36a713382aaded78eb6b67da266d4332868773ffffffffffffffffffffffffffffffffffffffff167f000000000000000000000000000000000000000000000000000000000000000073ffffffffffffffffffffffffffffffffffffffff1614610674577f0000000000000000000000000000000000000000000000000000000000000000610696565b7f00000000000000000000000000000000000000000000000000000000000000005b87876040516106a894939291906110dd565b60405180910390a2505092915050565b6106c061098f565b600073ffffffffffffffffffffffffffffffffffffffff168173ffffffffffffffffffffffffffffffffffffffff16036107325760006040517f1e4fbdf70000000000000000000000000000000000000000000000000000000081526004016107299190610d2e565b60405180910390fd5b61073b81610a16565b50565b61074661098f565b60008111610789576040517f08c379a00000000000000000000000000000000000000000000000000000000081526004016107809061116e565b60405180910390fd5b6107d63330837f000000000000000000000000000000000000000000000000000000000000000073ffffffffffffffffffffffffffffffffffffffff16610ada909392919063ffffffff16565b60007f000000000000000000000000000000000000000000000000000000000000000073ffffffffffffffffffffffffffffffffffffffff166370a08231306040518263ffffffff1660e01b81526004016108319190610d2e565b602060405180830381865afa15801561084e573d6000803e3d6000fd5b505050506040513d601f19601f8201168201806040525081019061087291906111a3565b905060007f000000000000000000000000000000000000000000000000000000000000000073ffffffffffffffffffffffffffffffffffffffff166370a08231306040518263ffffffff1660e01b81526004016108cf9190610d2e565b602060405180830381865afa1580156108ec573d6000803e3d6000fd5b505050506040513d601f19601f8201168201806040525081019061091091906111a3565b90506000600a846109219190611007565b90506109507f000000000000000000000000000000000000000000000000000000000000000061dead83610b5c565b7f8e8412cac6b961b95ef832e2bac486977bbd29eb9725f9eddd97f3380c31f6498482604051610981929190610f43565b60405180910390a150505050565b610997610bdb565b73ffffffffffffffffffffffffffffffffffffffff166109b561022f565b73ffffffffffffffffffffffffffffffffffffffff1614610a14576109d8610bdb565b6040517f118cdaa7000000000000000000000000000000000000000000000000000000008152600401610a0b9190610d2e565b60405180910390fd5b565b60008060009054906101000a900473ffffffffffffffffffffffffffffffffffffffff169050816000806101000a81548173ffffffffffffffffffffffffffffffffffffffff021916908373ffffffffffffffffffffffffffffffffffffffff1602179055508173ffffffffffffffffffffffffffffffffffffffff168173ffffffffffffffffffffffffffffffffffffffff167f8be0079c531659141344cd1fd0a4f28419497f9722a3daafe3b4186f6b6457e060405160405180910390a35050565b610b56848573ffffffffffffffffffffffffffffffffffffffff166323b872dd868686604051602401610b0f939291906111d0565b604051602081830303815290604052915060e01b6020820180517bffffffffffffffffffffffffffffffffffffffffffffffffffffffff8381831617835250505050610be3565b50505050565b610bd6838473ffffffffffffffffffffffffffffffffffffffff1663a9059cbb8585604051602401610b8f929190611207565b604051602081830303815290604052915060e01b6020820180517bffffffffffffffffffffffffffffffffffffffffffffffffffffffff8381831617835250505050610be3565b505050565b600033905090565b600080602060008451602086016000885af180610c06576040513d6000823e3d81fd5b3d925060005191505060008214610c21576001811415610c3d565b60008473ffffffffffffffffffffffffffffffffffffffff163b145b15610c7f57836040517f5274afe7000000000000000000000000000000000000000000000000000000008152600401610c769190610d2e565b60405180910390fd5b50505050565b600080fd5b6000819050919050565b610c9d81610c8a565b8114610ca857600080fd5b50565b600081359050610cba81610c94565b92915050565b600060208284031215610cd657610cd5610c85565b5b6000610ce484828501610cab565b91505092915050565b600073ffffffffffffffffffffffffffffffffffffffff82169050919050565b6000610d1882610ced565b9050919050565b610d2881610d0d565b82525050565b6000602082019050610d436000830184610d1f565b92915050565b6000819050919050565b6000610d6e610d69610d6484610ced565b610d49565b610ced565b9050919050565b6000610d8082610d53565b9050919050565b6000610d9282610d75565b9050919050565b610da281610d87565b82525050565b6000602082019050610dbd6000830184610d99565b92915050565b60008060408385031215610dda57610dd9610c85565b5b6000610de885828601610cab565b9250506020610df985828601610cab565b9150509250929050565b610e0c81610c8a565b82525050565b6000602082019050610e276000830184610e03565b92915050565b610e3681610d0d565b8114610e4157600080fd5b50565b600081359050610e5381610e2d565b92915050565b60008060408385031215610e7057610e6f610c85565b5b6000610e7e85828601610e44565b9250506020610e8f85828601610cab565b9150509250929050565b600060208284031215610eaf57610eae610c85565b5b6000610ebd84828501610e44565b91505092915050565b600082825260208201905092915050565b7f53776170506f6f6c3a2046656520746f6f206869676800000000000000000000600082015250565b6000610f0d601683610ec6565b9150610f1882610ed7565b602082019050919050565b60006020820190508181036000830152610f3c81610f00565b9050919050565b6000604082019050610f586000830185610e03565b610f656020830184610e03565b9392505050565b7f53776170506f6f6c3a20496e76616c696420746f6b656e000000000000000000600082015250565b6000610fa2601783610ec6565b9150610fad82610f6c565b602082019050919050565b60006020820190508181036000830152610fd181610f95565b9050919050565b7f4e487b7100000000000000000000000000000000000000000000000000000000600052601160045260246000fd5b600061101282610c8a565b915061101d83610c8a565b925082820261102b81610c8a565b9150828204841483151761104257611041610fd8565b5b5092915050565b7f4e487b7100000000000000000000000000000000000000000000000000000000600052601260045260246000fd5b600061108382610c8a565b915061108e83610c8a565b92508261109e5761109d611049565b5b828204905092915050565b60006110b482610c8a565b91506110bf83610c8a565b92508282039050818111156110d7576110d6610fd8565b5b92915050565b60006080820190506110f26000830187610d1f565b6110ff6020830186610d1f565b61110c6040830185610e03565b6111196060830184610e03565b95945050505050565b7f4275796261636b3a205a65726f20616d6f756e74000000000000000000000000600082015250565b6000611158601483610ec6565b915061116382611122565b602082019050919050565b600060208201905081810360008301526111878161114b565b9050919050565b60008151905061119d81610c94565b92915050565b6000602082840312156111b9576111b8610c85565b5b60006111c78482850161118e565b91505092915050565b60006060820190506111e56000830186610d1f565b6111f26020830185610d1f565b6111ff6040830184610e03565b949350505050565b600060408201905061121c6000830185610d1f565b6112296020830184610e03565b939250505056fea26469706673582212209ab0b10e71692d7e95b09b13e838848b4e2cba8893185181ac8bd8f8730fae7b64736f6c63430008180033",
  "linkReferences": {},
  "deployedLinkReferences": {}
}