{
  "_format": "hh-sol-artifact-1",
  "contractName": "MiningPool",
  "sourceName": "contracts/MiningPool.sol",
  "abi": [
    {
      "inputs": [
        {
          "internalType": "address",
          "name": "_lipt",
          "type": "address"
        }
      ],
      "stateMutability": "nonpayable",
      "type": "constructor"
    },
    {
      "inputs": [
        {
          "internalType": "address",
          "name": "owner",
          "type": "address"
        }
      ],
      "name": "OwnableInvalidOwner",
      "type": "error"
    },
    {
      "inputs": [
        {
          "internalType": "address",
          "name": "account",
          "type": "address"
        }
      ],
      "name": "OwnableUnauthorizedAccount",
      "type": "error"
    },
    {
      "inputs": [
        {
          "internalType": "address",
          "name": "token",
          "type": "address"
        }
      ],
      "name": "SafeERC20FailedOperation",
      "type": "error"
    },
    {
      "anonymous": false,
      "inputs": [
        {
          "indexed": true,
          "internalType": "address",
          "name": "user",
          "type": "address"
        },
        {
          "indexed": false,
          "internalType": "uint256",
          "name": "amount",
          "type": "uint256"
        }
      ],
      "name": "MinedRewardsClaimed",
      "type": "event"
    },
    {
      "anonymous": false,
      "inputs": [
        {
          "indexed": true,
          "internalType": "address",
          "name": "user",
          "type": "address"
        },
        {
          "indexed": false,
          "internalType": "uint256",
          "name": "planId",
          "type": "uint256"
        },
        {
          "indexed": false,
          "internalType": "uint256",
          "name": "minerId",
          "type": "uint256"
        }
      ],
      "name": "MinerActivated",
      "type": "event"
    },
    {
      "anonymous": false,
      "inputs": [
        {
          "indexed": true,
          "internalType": "address",
          "name": "previousOwner",
          "type": "address"
        },
        {
          "indexed": true,
          "internalType": "address",
          "name": "newOwner",
          "type": "address"
        }
      ],
      "name": "OwnershipTransferred",
      "type": "event"
    },
    {
      "inputs": [],
      "name": "DEAD_ADDRESS",
      "outputs": [
        {
          "internalType": "address",
          "name": "",
          "type": "address"
        }
      ],
      "stateMutability": "view",
      "type": "function"
    },
    {
      "inputs": [],
      "name": "LIPT",
      "outputs": [
        {
          "internalType": "contract IERC20",
          "name": "",
          "type": "address"
        }
      ],
      "stateMutability": "view",
      "type": "function"
    },
    {
      "inputs": [
        {
          "internalType": "uint256",
          "name": "planId",
          "type": "uint256"
        }
      ],
      "name": "activateMiner",
      "outputs": [],
      "stateMutability": "nonpayable",
      "type": "function"
    },
    {
      "inputs": [
        {
          "internalType": "uint256",
          "name": "_cost",
          "type": "uint256"
        },
        {
          "internalType": "uint256",
          "name": "_power",
          "type": "uint256"
        },
        {
          "internalType": "uint256",
          "name": "_duration",
          "type": "uint256"
        }
      ],
      "name": "addMiningPlan",
      "outputs": [],
      "stateMutability": "nonpayable",
      "type": "function"
    },
    {
      "inputs": [
        {
          "internalType": "uint256",
          "name": "minerId",
          "type": "uint256"
        }
      ],
      "name": "calculateMinedRewards",
      "outputs": [
        {
          "internalType": "uint256",
          "name": "rewards",
          "type": "uint256"
        }
      ],
      "stateMutability": "view",
      "type": "function"
    },
    {
      "inputs": [
        {
          "internalType": "uint256",
          "name": "minerId",
          "type": "uint256"
        }
      ],
      "name": "claimMinedRewards",
      "outputs": [],
      "stateMutability": "nonpayable",
      "type": "function"
    },
    {
      "inputs": [],
      "name": "getMiningPlans",
      "outputs": [
        {
          "components": [
            {
              "internalType": "uint256",
              "name": "cost",
              "type": "uint256"
            },
            {
              "internalType": "uint256",
              "name": "power",
              "type": "uint256"
            },
            {
              "internalType": "uint256",
              "name": "duration",
              "type": "uint256"
            },
            {
              "internalType": "bool",
              "name": "active",
              "type": "bool"
            }
          ],
          "internalType": "struct MiningPool.MiningPlan[]",
          "name": "",
          "type": "tuple[]"
        }
      ],
      "stateMutability": "view",
      "type": "function"
    },
    {
      "inputs": [
        {
          "internalType": "address",
          "name": "user",
          "type": "address"
        }
      ],
      "name": "getUserMiners",
      "outputs": [
        {
          "components": [
            {
              "internalType": "address",
              "name": "user",
              "type": "address"
            },
            {
              "internalType": "uint256",
              "name": "startDate",
              "type": "uint256"
            },
            {
              "internalType": "uint256",
              "name": "planId",
              "type": "uint256"
            },
            {
              "internalType": "uint256",
              "name": "rewardsClaimed",
              "type": "uint256"
            }
          ],
          "internalType": "struct MiningPool.Miner[]",
          "name": "",
          "type": "tuple[]"
        }
      ],
      "stateMutability": "view",
      "type": "function"
    },
    {
      "inputs": [
        {
          "internalType": "uint256",
          "name": "planId",
          "type": "uint256"
        },
        {
          "internalType": "uint256",
          "name": "_cost",
          "type": "uint256"
        },
        {
          "internalType": "uint256",
          "name": "_power",
          "type": "uint256"
        },
        {
          "internalType": "uint256",
          "name": "_duration",
          "type": "uint256"
        },
        {
          "internalType": "bool",
          "name": "_active",
          "type": "bool"
        }
      ],
      "name": "modifyMiningPlan",
      "outputs": [],
      "stateMutability": "nonpayable",
      "type": "function"
    },
    {
      "inputs": [],
      "name": "owner",
      "outputs": [
        {
          "internalType": "address",
          "name": "",
          "type": "address"
        }
      ],
      "stateMutability": "view",
      "type": "function"
    },
    {
      "inputs": [
        {
          "internalType": "uint256",
          "name": "",
          "type": "uint256"
        }
      ],
      "name": "plans",
      "outputs": [
        {
          "internalType": "uint256",
          "name": "cost",
          "type": "uint256"
        },
        {
          "internalType": "uint256",
          "name": "power",
          "type": "uint256"
        },
        {
          "internalType": "uint256",
          "name": "duration",
          "type": "uint256"
        },
        {
          "internalType": "bool",
          "name": "active",
          "type": "bool"
        }
      ],
      "stateMutability": "view",
      "type": "function"
    },
    {
      "inputs": [],
      "name": "renounceOwnership",
      "outputs": [],
      "stateMutability": "nonpayable",
      "type": "function"
    },
    {
      "inputs": [
        {
          "internalType": "address",
          "name": "newOwner",
          "type": "address"
        }
      ],
      "name": "transferOwnership",
      "outputs": [],
      "stateMutability": "nonpayable",
      "type": "function"
    },
    {
      "inputs": [
        {
          "internalType": "address",
          "name": "",
          "type": "address"
        },
        {
          "internalType": "uint256",
          "name": "",
          "type": "uint256"
        }
      ],
      "name": "userMiners",
      "outputs": [
        {
          "internalType": "address",
          "name": "user",
          "type": "address"
        },
        {
          "internalType": "uint256",
          "name": "startDate",
          "type": "uint256"
        },
        {
          "internalType": "uint256",
          "name": "planId",
          "type": "uint256"
        },
        {
          "internalType": "uint256",
          "name": "rewardsClaimed",
          "type": "uint256"
        }
      ],
      "stateMutability": "view",
      "type": "function"
    }
  ],
  "bytecode": "0x60c060405261dead73ffffffffffffffffffffffffffffffffffffffff1660809073ffffffffffffffffffffffffffffffffffffffff168152503480156200004657600080fd5b5060405162001d6438038062001d6483398181016040528101906200006c91906200025d565b33600073ffffffffffffffffffffffffffffffffffffffff168173ffffffffffffffffffffffffffffffffffffffff1603620000e25760006040517f1e4fbdf7000000000000000000000000000000000000000000000000000000008152600401620000d99190620002a0565b60405180910390fd5b620000f3816200012f60201b60201c565b508073ffffffffffffffffffffffffffffffffffffffff1660a08173ffffffffffffffffffffffffffffffffffffffff168152505050620002bd565b60008060009054906101000a900473ffffffffffffffffffffffffffffffffffffffff169050816000806101000a81548173ffffffffffffffffffffffffffffffffffffffff021916908373ffffffffffffffffffffffffffffffffffffffff1602179055508173ffffffffffffffffffffffffffffffffffffffff168173ffffffffffffffffffffffffffffffffffffffff167f8be0079c531659141344cd1fd0a4f28419497f9722a3daafe3b4186f6b6457e060405160405180910390a35050565b600080fd5b600073ffffffffffffffffffffffffffffffffffffffff82169050919050565b60006200022582620001f8565b9050919050565b620002378162000218565b81146200024357600080fd5b50565b60008151905062000257816200022c565b92915050565b600060208284031215620002765762000275620001f3565b5b6000620002868482850162000246565b91505092915050565b6200029a8162000218565b82525050565b6000602082019050620002b760008301846200028f565b92915050565b60805160a051611a65620002ff600039600081816103cd015281816103fd015281816108c10152610a9d01526000818161041e015261073b0152611a656000f3fe608060405234801561001057600080fd5b50600436106100ea5760003560e01c8063918359bb1161008c578063b162061611610066578063b16206161461023a578063d0eb40751461026d578063dd2f73e414610289578063f2fde38b146102a7576100ea565b8063918359bb146101d0578063981d21bb14610200578063ac6962511461021e576100ea565b80634e6fd6c4116100c85780634e6fd6c41461015a578063715018a6146101785780637ce5b345146101825780638da5cb5b146101b2576100ea565b806329f0a20c146100ef578063347596181461010b5780633ef012151461013e575b600080fd5b6101096004803603810190610104919061106d565b6102c3565b005b610125600480360381019061012091906110f8565b6105f0565b6040516101359493929190611156565b60405180910390f35b610158600480360381019061015391906111d3565b61065d565b005b610162610739565b60405161016f919061124e565b60405180910390f35b61018061075d565b005b61019c6004803603810190610197919061106d565b610771565b6040516101a99190611269565b60405180910390f35b6101ba610784565b6040516101c7919061124e565b60405180910390f35b6101ea60048036038101906101e59190611284565b6107ad565b6040516101f791906113d3565b60405180910390f35b6102086108bf565b6040516102159190611454565b60405180910390f35b6102386004803603810190610233919061146f565b6108e3565b005b610254600480360381019061024f919061106d565b61097f565b60405161026494939291906114d1565b60405180910390f35b6102876004803603810190610282919061106d565b6109cc565b005b610291610b33565b60405161029e9190611629565b60405180910390f35b6102c160048036038101906102bc9190611284565b610bcb565b005b600180549050811061030a576040517f08c379a0000000000000000000000000000000000000000000000000000000008152600401610301906116a8565b60405180910390fd5b6000600182815481106103205761031f6116c8565b5b906000526020600020906004020190508060030160009054906101000a900460ff16610381576040517f08c379a000000000000000000000000000000000000000000000000000000000815260040161037890611743565b60405180910390fd5b60008160000154116103c8576040517f08c379a00000000000000000000000000000000000000000000000000000000081526004016103bf906117d5565b60405180910390fd5b6103f87f000000000000000000000000000000000000000000000000000000000000000033308460000154610c51565b6104477f00000000000000000000000000000000000000000000000000000000000000007f00000000000000000000000000000000000000000000000000000000000000008360000154610cd3565b600260003373ffffffffffffffffffffffffffffffffffffffff1673ffffffffffffffffffffffffffffffffffffffff16815260200190815260200160002060405180608001604052803373ffffffffffffffffffffffffffffffffffffffff1681526020014281526020018481526020016000815250908060018154018082558091505060019003906000526020600020906004020160009091909190915060008201518160000160006101000a81548173ffffffffffffffffffffffffffffffffffffffff021916908373ffffffffffffffffffffffffffffffffffffffff16021790555060208201518160010155604082015181600201556060820151816003015550503373ffffffffffffffffffffffffffffffffffffffff167f34eab2c1c101aae7c3c39dcd33b0be70f74d40813f5de4bf5a68220738fe6828836001600260003373ffffffffffffffffffffffffffffffffffffffff1673ffffffffffffffffffffffffffffffffffffffff168152602001908152602001600020805490506105d69190611824565b6040516105e4929190611858565b60405180910390a25050565b6002602052816000526040600020818154811061060c57600080fd5b9060005260206000209060040201600091509150508060000160009054906101000a900473ffffffffffffffffffffffffffffffffffffffff16908060010154908060020154908060030154905084565b610665610d52565b60018054905085106106ac576040517f08c379a00000000000000000000000000000000000000000000000000000000081526004016106a3906118cd565b60405180910390fd5b6040518060800160405280858152602001848152602001838152602001821515815250600186815481106106e3576106e26116c8565b5b906000526020600020906004020160008201518160000155602082015181600101556040820151816002015560608201518160030160006101000a81548160ff0219169083151502179055509050505050505050565b7f000000000000000000000000000000000000000000000000000000000000000081565b610765610d52565b61076f6000610dd9565b565b600061077d3383610e9d565b9050919050565b60008060009054906101000a900473ffffffffffffffffffffffffffffffffffffffff16905090565b6060600260008373ffffffffffffffffffffffffffffffffffffffff1673ffffffffffffffffffffffffffffffffffffffff168152602001908152602001600020805480602002602001604051908101604052809291908181526020016000905b828210156108b457838290600052602060002090600402016040518060800160405290816000820160009054906101000a900473ffffffffffffffffffffffffffffffffffffffff1673ffffffffffffffffffffffffffffffffffffffff1673ffffffffffffffffffffffffffffffffffffffff16815260200160018201548152602001600282015481526020016003820154815250508152602001906001019061080e565b505050509050919050565b7f000000000000000000000000000000000000000000000000000000000000000081565b6108eb610d52565b6001604051806080016040528085815260200184815260200183815260200160011515815250908060018154018082558091505060019003906000526020600020906004020160009091909190915060008201518160000155602082015181600101556040820151816002015560608201518160030160006101000a81548160ff0219169083151502179055505050505050565b6001818154811061098f57600080fd5b90600052602060002090600402016000915090508060000154908060010154908060020154908060030160009054906101000a900460ff16905084565b60006109d83383610e9d565b905060008111610a1d576040517f08c379a0000000000000000000000000000000000000000000000000000000008152600401610a1490611939565b60405180910390fd5b80600260003373ffffffffffffffffffffffffffffffffffffffff1673ffffffffffffffffffffffffffffffffffffffff1681526020019081526020016000208381548110610a6f57610a6e6116c8565b5b90600052602060002090600402016003016000828254610a8f9190611959565b92505081905550610ae133827f000000000000000000000000000000000000000000000000000000000000000073ffffffffffffffffffffffffffffffffffffffff16610cd39092919063ffffffff16565b3373ffffffffffffffffffffffffffffffffffffffff167f4c7c41e0ce38a31a53484ef81428bc6c60c815a5cae4637f7d8dd191edeeea9282604051610b279190611269565b60405180910390a25050565b60606001805480602002602001604051908101604052809291908181526020016000905b82821015610bc257838290600052602060002090600402016040518060800160405290816000820154815260200160018201548152602001600282015481526020016003820160009054906101000a900460ff16151515158152505081526020019060010190610b57565b50505050905090565b610bd3610d52565b600073ffffffffffffffffffffffffffffffffffffffff168173ffffffffffffffffffffffffffffffffffffffff1603610c455760006040517f1e4fbdf7000000000000000000000000000000000000000000000000000000008152600401610c3c919061124e565b60405180910390fd5b610c4e81610dd9565b50565b610ccd848573ffffffffffffffffffffffffffffffffffffffff166323b872dd868686604051602401610c869392919061198d565b604051602081830303815290604052915060e01b6020820180517bffffffffffffffffffffffffffffffffffffffffffffffffffffffff8381831617835250505050610f88565b50505050565b610d4d838473ffffffffffffffffffffffffffffffffffffffff1663a9059cbb8585604051602401610d069291906119c4565b604051602081830303815290604052915060e01b6020820180517bffffffffffffffffffffffffffffffffffffffffffffffffffffffff8381831617835250505050610f88565b505050565b610d5a61102a565b73ffffffffffffffffffffffffffffffffffffffff16610d78610784565b73ffffffffffffffffffffffffffffffffffffffff1614610dd757610d9b61102a565b6040517f118cdaa7000000000000000000000000000000000000000000000000000000008152600401610dce919061124e565b60405180910390fd5b565b60008060009054906101000a900473ffffffffffffffffffffffffffffffffffffffff169050816000806101000a81548173ffffffffffffffffffffffffffffffffffffffff021916908373ffffffffffffffffffffffffffffffffffffffff1602179055508173ffffffffffffffffffffffffffffffffffffffff168173ffffffffffffffffffffffffffffffffffffffff167f8be0079c531659141344cd1fd0a4f28419497f9722a3daafe3b4186f6b6457e060405160405180910390a35050565b600080600260008573ffffffffffffffffffffffffffffffffffffffff1673ffffffffffffffffffffffffffffffffffffffff1681526020019081526020016000208381548110610ef157610ef06116c8565b5b9060005260206000209060040201905060006001826002015481548110610f1b57610f1a6116c8565b5b906000526020600020906004020190506000826001015442610f3d9190611824565b9050600082600201548211610f525781610f58565b82600201545b9050808360010154610f6a91906119ed565b9450836003015485610f7c9190611824565b94505050505092915050565b600080602060008451602086016000885af180610fab576040513d6000823e3d81fd5b3d925060005191505060008214610fc6576001811415610fe2565b60008473ffffffffffffffffffffffffffffffffffffffff163b145b1561102457836040517f5274afe700000000000000000000000000000000000000000000000000000000815260040161101b919061124e565b60405180910390fd5b50505050565b600033905090565b600080fd5b6000819050919050565b61104a81611037565b811461105557600080fd5b50565b60008135905061106781611041565b92915050565b60006020828403121561108357611082611032565b5b600061109184828501611058565b91505092915050565b600073ffffffffffffffffffffffffffffffffffffffff82169050919050565b60006110c58261109a565b9050919050565b6110d5816110ba565b81146110e057600080fd5b50565b6000813590506110f2816110cc565b92915050565b6000806040838503121561110f5761110e611032565b5b600061111d858286016110e3565b925050602061112e85828601611058565b9150509250929050565b611141816110ba565b82525050565b61115081611037565b82525050565b600060808201905061116b6000830187611138565b6111786020830186611147565b6111856040830185611147565b6111926060830184611147565b95945050505050565b60008115159050919050565b6111b08161119b565b81146111bb57600080fd5b50565b6000813590506111cd816111a7565b92915050565b600080600080600060a086880312156111ef576111ee611032565b5b60006111fd88828901611058565b955050602061120e88828901611058565b945050604061121f88828901611058565b935050606061123088828901611058565b9250506080611241888289016111be565b9150509295509295909350565b60006020820190506112636000830184611138565b92915050565b600060208201905061127e6000830184611147565b92915050565b60006020828403121561129a57611299611032565b5b60006112a8848285016110e3565b91505092915050565b600081519050919050565b600082825260208201905092915050565b6000819050602082019050919050565b6112e6816110ba565b82525050565b6112f581611037565b82525050565b60808201600082015161131160008501826112dd565b50602082015161132460208501826112ec565b50604082015161133760408501826112ec565b50606082015161134a60608501826112ec565b50505050565b600061135c83836112fb565b60808301905092915050565b6000602082019050919050565b6000611380826112b1565b61138a81856112bc565b9350611395836112cd565b8060005b838110156113c65781516113ad8882611350565b97506113b883611368565b925050600181019050611399565b5085935050505092915050565b600060208201905081810360008301526113ed8184611375565b905092915050565b6000819050919050565b600061141a6114156114108461109a565b6113f5565b61109a565b9050919050565b600061142c826113ff565b9050919050565b600061143e82611421565b9050919050565b61144e81611433565b82525050565b60006020820190506114696000830184611445565b92915050565b60008060006060848603121561148857611487611032565b5b600061149686828701611058565b93505060206114a786828701611058565b92505060406114b886828701611058565b9150509250925092565b6114cb8161119b565b82525050565b60006080820190506114e66000830187611147565b6114f36020830186611147565b6115006040830185611147565b61150d60608301846114c2565b95945050505050565b600081519050919050565b600082825260208201905092915050565b6000819050602082019050919050565b61154b8161119b565b82525050565b60808201600082015161156760008501826112ec565b50602082015161157a60208501826112ec565b50604082015161158d60408501826112ec565b5060608201516115a06060850182611542565b50505050565b60006115b28383611551565b60808301905092915050565b6000602082019050919050565b60006115d682611516565b6115e08185611521565b93506115eb83611532565b8060005b8381101561161c57815161160388826115a6565b975061160e836115be565b9250506001810190506115ef565b5085935050505092915050565b6000602082019050818103600083015261164381846115cb565b905092915050565b600082825260208201905092915050565b7f4d696e696e673a20496e76616c696420706c616e000000000000000000000000600082015250565b600061169260148361164b565b915061169d8261165c565b602082019050919050565b600060208201905081810360008301526116c181611685565b9050919050565b7f4e487b7100000000000000000000000000000000000000000000000000000000600052603260045260246000fd5b7f4d696e696e673a20506c616e206e6f7420616374697665000000000000000000600082015250565b600061172d60178361164b565b9150611738826116f7565b602082019050919050565b6000602082019050818103600083015261175c81611720565b9050919050565b7f4d696e696e673a20436f7374206d75737420626520677265617465722074686160008201527f6e207a65726f0000000000000000000000000000000000000000000000000000602082015250565b60006117bf60268361164b565b91506117ca82611763565b604082019050919050565b600060208201905081810360008301526117ee816117b2565b9050919050565b7f4e487b7100000000000000000000000000000000000000000000000000000000600052601160045260246000fd5b600061182f82611037565b915061183a83611037565b9250828203905081811115611852576118516117f5565b5b92915050565b600060408201905061186d6000830185611147565b61187a6020830184611147565b9392505050565b7f4d696e696e673a20496e76616c696420706c616e496400000000000000000000600082015250565b60006118b760168361164b565b91506118c282611881565b602082019050919050565b600060208201905081810360008301526118e6816118aa565b9050919050565b7f4d696e696e673a204e6f207265776172647320746f20636c61696d0000000000600082015250565b6000611923601b8361164b565b915061192e826118ed565b602082019050919050565b6000602082019050818103600083015261195281611916565b9050919050565b600061196482611037565b915061196f83611037565b9250828201905080821115611987576119866117f5565b5b92915050565b60006060820190506119a26000830186611138565b6119af6020830185611138565b6119bc6040830184611147565b949350505050565b60006040820190506119d96000830185611138565b6119e66020830184611147565b9392505050565b60006119f882611037565b9150611a0383611037565b9250828202611a1181611037565b91508282048414831517611a2857611a276117f5565b5b509291505056fea26469706673582212209a7d35f1c7fc531b5a5d6c6042668b60debc7ddc770f02e6e338cc176a09a3f764736f6c63430008180033",
  "linkReferences": {},
  "deployedLinkReferences": {}
}