{
  "_format": "hh-sol-artifact-1",
  "contractName": "MiningPool",
  "sourceName": "contracts/MiningPool.sol",
  "abi": [
    {
      "inputs": [
        {
          "internalType": "address",
          "name": "_lipt",
          "type": "address"
        }
      ],
      "stateMutability": "nonpayable",
      "type": "constructor"
    },
    {
      "inputs": [
        {
          "internalType": "address",
          "name": "owner",
          "type": "address"
        }
      ],
      "name": "OwnableInvalidOwner",
      "type": "error"
    },
    {
      "inputs": [
        {
          "internalType": "address",
          "name": "account",
          "type": "address"
        }
      ],
      "name": "OwnableUnauthorizedAccount",
      "type": "error"
    },
    {
      "inputs": [
        {
          "internalType": "address",
          "name": "token",
          "type": "address"
        }
      ],
      "name": "SafeERC20FailedOperation",
      "type": "error"
    },
    {
      "anonymous": false,
      "inputs": [
        {
          "indexed": true,
          "internalType": "address",
          "name": "user",
          "type": "address"
        },
        {
          "indexed": false,
          "internalType": "uint256",
          "name": "amount",
          "type": "uint256"
        }
      ],
      "name": "MinedRewardsClaimed",
      "type": "event"
    },
    {
      "anonymous": false,
      "inputs": [
        {
          "indexed": true,
          "internalType": "address",
          "name": "user",
          "type": "address"
        },
        {
          "indexed": false,
          "internalType": "uint256",
          "name": "planId",
          "type": "uint256"
        },
        {
          "indexed": false,
          "internalType": "uint256",
          "name": "minerId",
          "type": "uint256"
        }
      ],
      "name": "MinerActivated",
      "type": "event"
    },
    {
      "anonymous": false,
      "inputs": [
        {
          "indexed": true,
          "internalType": "address",
          "name": "previousOwner",
          "type": "address"
        },
        {
          "indexed": true,
          "internalType": "address",
          "name": "newOwner",
          "type": "address"
        }
      ],
      "name": "OwnershipTransferred",
      "type": "event"
    },
    {
      "inputs": [],
      "name": "DEAD_ADDRESS",
      "outputs": [
        {
          "internalType": "address",
          "name": "",
          "type": "address"
        }
      ],
      "stateMutability": "view",
      "type": "function"
    },
    {
      "inputs": [],
      "name": "LIPT",
      "outputs": [
        {
          "internalType": "contract IERC20",
          "name": "",
          "type": "address"
        }
      ],
      "stateMutability": "view",
      "type": "function"
    },
    {
      "inputs": [
        {
          "internalType": "uint256",
          "name": "planId",
          "type": "uint256"
        }
      ],
      "name": "activateMiner",
      "outputs": [],
      "stateMutability": "nonpayable",
      "type": "function"
    },
    {
      "inputs": [
        {
          "internalType": "uint256",
          "name": "_cost",
          "type": "uint256"
        },
        {
          "internalType": "uint256",
          "name": "_power",
          "type": "uint256"
        },
        {
          "internalType": "uint256",
          "name": "_duration",
          "type": "uint256"
        }
      ],
      "name": "addMiningPlan",
      "outputs": [],
      "stateMutability": "nonpayable",
      "type": "function"
    },
    {
      "inputs": [
        {
          "internalType": "uint256",
          "name": "minerId",
          "type": "uint256"
        }
      ],
      "name": "calculateMinedRewards",
      "outputs": [
        {
          "internalType": "uint256",
          "name": "rewards",
          "type": "uint256"
        }
      ],
      "stateMutability": "view",
      "type": "function"
    },
    {
      "inputs": [
        {
          "internalType": "uint256",
          "name": "minerId",
          "type": "uint256"
        }
      ],
      "name": "claimMinedRewards",
      "outputs": [],
      "stateMutability": "nonpayable",
      "type": "function"
    },
    {
      "inputs": [
        {
          "internalType": "uint256",
          "name": "planId",
          "type": "uint256"
        },
        {
          "internalType": "uint256",
          "name": "_cost",
          "type": "uint256"
        },
        {
          "internalType": "uint256",
          "name": "_power",
          "type": "uint256"
        },
        {
          "internalType": "uint256",
          "name": "_duration",
          "type": "uint256"
        },
        {
          "internalType": "bool",
          "name": "_active",
          "type": "bool"
        }
      ],
      "name": "modifyMiningPlan",
      "outputs": [],
      "stateMutability": "nonpayable",
      "type": "function"
    },
    {
      "inputs": [],
      "name": "owner",
      "outputs": [
        {
          "internalType": "address",
          "name": "",
          "type": "address"
        }
      ],
      "stateMutability": "view",
      "type": "function"
    },
    {
      "inputs": [
        {
          "internalType": "uint256",
          "name": "",
          "type": "uint256"
        }
      ],
      "name": "plans",
      "outputs": [
        {
          "internalType": "uint256",
          "name": "cost",
          "type": "uint256"
        },
        {
          "internalType": "uint256",
          "name": "power",
          "type": "uint256"
        },
        {
          "internalType": "uint256",
          "name": "duration",
          "type": "uint256"
        },
        {
          "internalType": "bool",
          "name": "active",
          "type": "bool"
        }
      ],
      "stateMutability": "view",
      "type": "function"
    },
    {
      "inputs": [],
      "name": "renounceOwnership",
      "outputs": [],
      "stateMutability": "nonpayable",
      "type": "function"
    },
    {
      "inputs": [
        {
          "internalType": "address",
          "name": "newOwner",
          "type": "address"
        }
      ],
      "name": "transferOwnership",
      "outputs": [],
      "stateMutability": "nonpayable",
      "type": "function"
    },
    {
      "inputs": [
        {
          "internalType": "address",
          "name": "",
          "type": "address"
        },
        {
          "internalType": "uint256",
          "name": "",
          "type": "uint256"
        }
      ],
      "name": "userMiners",
      "outputs": [
        {
          "internalType": "address",
          "name": "user",
          "type": "address"
        },
        {
          "internalType": "uint256",
          "name": "startDate",
          "type": "uint256"
        },
        {
          "internalType": "uint256",
          "name": "planId",
          "type": "uint256"
        },
        {
          "internalType": "uint256",
          "name": "rewardsClaimed",
          "type": "uint256"
        }
      ],
      "stateMutability": "view",
      "type": "function"
    }
  ],
  "bytecode": "0x60c060405261dead73ffffffffffffffffffffffffffffffffffffffff1660809073ffffffffffffffffffffffffffffffffffffffff168152503480156200004657600080fd5b50604051620017f5380380620017f583398181016040528101906200006c91906200025d565b33600073ffffffffffffffffffffffffffffffffffffffff168173ffffffffffffffffffffffffffffffffffffffff1603620000e25760006040517f1e4fbdf7000000000000000000000000000000000000000000000000000000008152600401620000d99190620002a0565b60405180910390fd5b620000f3816200012f60201b60201c565b508073ffffffffffffffffffffffffffffffffffffffff1660a08173ffffffffffffffffffffffffffffffffffffffff168152505050620002bd565b60008060009054906101000a900473ffffffffffffffffffffffffffffffffffffffff169050816000806101000a81548173ffffffffffffffffffffffffffffffffffffffff021916908373ffffffffffffffffffffffffffffffffffffffff1602179055508173ffffffffffffffffffffffffffffffffffffffff168173ffffffffffffffffffffffffffffffffffffffff167f8be0079c531659141344cd1fd0a4f28419497f9722a3daafe3b4186f6b6457e060405160405180910390a35050565b600080fd5b600073ffffffffffffffffffffffffffffffffffffffff82169050919050565b60006200022582620001f8565b9050919050565b620002378162000218565b81146200024357600080fd5b50565b60008151905062000257816200022c565b92915050565b600060208284031215620002765762000275620001f3565b5b6000620002868482850162000246565b91505092915050565b6200029a8162000218565b82525050565b6000602082019050620002b760008301846200028f565b92915050565b60805160a0516114f6620002ff6000396000818161030201528181610332015281816107bb0152610996015260008181610353015261067001526114f66000f3fe608060405234801561001057600080fd5b50600436106100b45760003560e01c80638da5cb5b116100715780638da5cb5b1461017c578063981d21bb1461019a578063ac696251146101b8578063b1620616146101d4578063d0eb407514610207578063f2fde38b14610223576100b4565b806329f0a20c146100b957806334759618146100d55780633ef01215146101085780634e6fd6c414610124578063715018a6146101425780637ce5b3451461014c575b600080fd5b6100d360048036038101906100ce9190610de3565b61023f565b005b6100ef60048036038101906100ea9190610e6e565b610525565b6040516100ff9493929190610ecc565b60405180910390f35b610122600480360381019061011d9190610f49565b610592565b005b61012c61066e565b6040516101399190610fc4565b60405180910390f35b61014a610692565b005b61016660048036038101906101619190610de3565b6106a6565b6040516101739190610fdf565b60405180910390f35b610184610790565b6040516101919190610fc4565b60405180910390f35b6101a26107b9565b6040516101af9190611059565b60405180910390f35b6101d260048036038101906101cd9190611074565b6107dd565b005b6101ee60048036038101906101e99190610de3565b610879565b6040516101fe94939291906110d6565b60405180910390f35b610221600480360381019061021c9190610de3565b6108c6565b005b61023d6004803603810190610238919061111b565b610a2c565b005b60006001828154811061025557610254611148565b5b906000526020600020906004020190508060030160009054906101000a900460ff166102b6576040517f08c379a00000000000000000000000000000000000000000000000000000000081526004016102ad906111d4565b60405180910390fd5b60008160000154116102fd576040517f08c379a00000000000000000000000000000000000000000000000000000000081526004016102f490611266565b60405180910390fd5b61032d7f000000000000000000000000000000000000000000000000000000000000000033308460000154610ab2565b61037c7f00000000000000000000000000000000000000000000000000000000000000007f00000000000000000000000000000000000000000000000000000000000000008360000154610b34565b600260003373ffffffffffffffffffffffffffffffffffffffff1673ffffffffffffffffffffffffffffffffffffffff16815260200190815260200160002060405180608001604052803373ffffffffffffffffffffffffffffffffffffffff1681526020014281526020018481526020016000815250908060018154018082558091505060019003906000526020600020906004020160009091909190915060008201518160000160006101000a81548173ffffffffffffffffffffffffffffffffffffffff021916908373ffffffffffffffffffffffffffffffffffffffff16021790555060208201518160010155604082015181600201556060820151816003015550503373ffffffffffffffffffffffffffffffffffffffff167f34eab2c1c101aae7c3c39dcd33b0be70f74d40813f5de4bf5a68220738fe6828836001600260003373ffffffffffffffffffffffffffffffffffffffff1673ffffffffffffffffffffffffffffffffffffffff1681526020019081526020016000208054905061050b91906112b5565b6040516105199291906112e9565b60405180910390a25050565b6002602052816000526040600020818154811061054157600080fd5b9060005260206000209060040201600091509150508060000160009054906101000a900473ffffffffffffffffffffffffffffffffffffffff16908060010154908060020154908060030154905084565b61059a610bb3565b60018054905085106105e1576040517f08c379a00000000000000000000000000000000000000000000000000000000081526004016105d89061135e565b60405180910390fd5b60405180608001604052808581526020018481526020018381526020018215158152506001868154811061061857610617611148565b5b906000526020600020906004020160008201518160000155602082015181600101556040820151816002015560608201518160030160006101000a81548160ff0219169083151502179055509050505050505050565b7f000000000000000000000000000000000000000000000000000000000000000081565b61069a610bb3565b6106a46000610c3a565b565b600080600260003373ffffffffffffffffffffffffffffffffffffffff1673ffffffffffffffffffffffffffffffffffffffff16815260200190815260200160002083815481106106fa576106f9611148565b5b906000526020600020906004020190506000600182600201548154811061072457610723611148565b5b90600052602060002090600402019050600082600101544261074691906112b5565b905060008260020154821161075b5781610761565b82600201545b9050808360010154610773919061137e565b945083600301548561078591906112b5565b945050505050919050565b60008060009054906101000a900473ffffffffffffffffffffffffffffffffffffffff16905090565b7f000000000000000000000000000000000000000000000000000000000000000081565b6107e5610bb3565b6001604051806080016040528085815260200184815260200183815260200160011515815250908060018154018082558091505060019003906000526020600020906004020160009091909190915060008201518160000155602082015181600101556040820151816002015560608201518160030160006101000a81548160ff0219169083151502179055505050505050565b6001818154811061088957600080fd5b90600052602060002090600402016000915090508060000154908060010154908060020154908060030160009054906101000a900460ff16905084565b60006108d1826106a6565b905060008111610916576040517f08c379a000000000000000000000000000000000000000000000000000000000815260040161090d9061140c565b60405180910390fd5b80600260003373ffffffffffffffffffffffffffffffffffffffff1673ffffffffffffffffffffffffffffffffffffffff168152602001908152602001600020838154811061096857610967611148565b5b90600052602060002090600402016003016000828254610988919061142c565b925050819055506109da33827f000000000000000000000000000000000000000000000000000000000000000073ffffffffffffffffffffffffffffffffffffffff16610b349092919063ffffffff16565b3373ffffffffffffffffffffffffffffffffffffffff167f4c7c41e0ce38a31a53484ef81428bc6c60c815a5cae4637f7d8dd191edeeea9282604051610a209190610fdf565b60405180910390a25050565b610a34610bb3565b600073ffffffffffffffffffffffffffffffffffffffff168173ffffffffffffffffffffffffffffffffffffffff1603610aa65760006040517f1e4fbdf7000000000000000000000000000000000000000000000000000000008152600401610a9d9190610fc4565b60405180910390fd5b610aaf81610c3a565b50565b610b2e848573ffffffffffffffffffffffffffffffffffffffff166323b872dd868686604051602401610ae793929190611460565b604051602081830303815290604052915060e01b6020820180517bffffffffffffffffffffffffffffffffffffffffffffffffffffffff8381831617835250505050610cfe565b50505050565b610bae838473ffffffffffffffffffffffffffffffffffffffff1663a9059cbb8585604051602401610b67929190611497565b604051602081830303815290604052915060e01b6020820180517bffffffffffffffffffffffffffffffffffffffffffffffffffffffff8381831617835250505050610cfe565b505050565b610bbb610da0565b73ffffffffffffffffffffffffffffffffffffffff16610bd9610790565b73ffffffffffffffffffffffffffffffffffffffff1614610c3857610bfc610da0565b6040517f118cdaa7000000000000000000000000000000000000000000000000000000008152600401610c2f9190610fc4565b60405180910390fd5b565b60008060009054906101000a900473ffffffffffffffffffffffffffffffffffffffff169050816000806101000a81548173ffffffffffffffffffffffffffffffffffffffff021916908373ffffffffffffffffffffffffffffffffffffffff1602179055508173ffffffffffffffffffffffffffffffffffffffff168173ffffffffffffffffffffffffffffffffffffffff167f8be0079c531659141344cd1fd0a4f28419497f9722a3daafe3b4186f6b6457e060405160405180910390a35050565b600080602060008451602086016000885af180610d21576040513d6000823e3d81fd5b3d925060005191505060008214610d3c576001811415610d58565b60008473ffffffffffffffffffffffffffffffffffffffff163b145b15610d9a57836040517f5274afe7000000000000000000000000000000000000000000000000000000008152600401610d919190610fc4565b60405180910390fd5b50505050565b600033905090565b600080fd5b6000819050919050565b610dc081610dad565b8114610dcb57600080fd5b50565b600081359050610ddd81610db7565b92915050565b600060208284031215610df957610df8610da8565b5b6000610e0784828501610dce565b91505092915050565b600073ffffffffffffffffffffffffffffffffffffffff82169050919050565b6000610e3b82610e10565b9050919050565b610e4b81610e30565b8114610e5657600080fd5b50565b600081359050610e6881610e42565b92915050565b60008060408385031215610e8557610e84610da8565b5b6000610e9385828601610e59565b9250506020610ea485828601610dce565b9150509250929050565b610eb781610e30565b82525050565b610ec681610dad565b82525050565b6000608082019050610ee16000830187610eae565b610eee6020830186610ebd565b610efb6040830185610ebd565b610f086060830184610ebd565b95945050505050565b60008115159050919050565b610f2681610f11565b8114610f3157600080fd5b50565b600081359050610f4381610f1d565b92915050565b600080600080600060a08688031215610f6557610f64610da8565b5b6000610f7388828901610dce565b9550506020610f8488828901610dce565b9450506040610f9588828901610dce565b9350506060610fa688828901610dce565b9250506080610fb788828901610f34565b9150509295509295909350565b6000602082019050610fd96000830184610eae565b92915050565b6000602082019050610ff46000830184610ebd565b92915050565b6000819050919050565b600061101f61101a61101584610e10565b610ffa565b610e10565b9050919050565b600061103182611004565b9050919050565b600061104382611026565b9050919050565b61105381611038565b82525050565b600060208201905061106e600083018461104a565b92915050565b60008060006060848603121561108d5761108c610da8565b5b600061109b86828701610dce565b93505060206110ac86828701610dce565b92505060406110bd86828701610dce565b9150509250925092565b6110d081610f11565b82525050565b60006080820190506110eb6000830187610ebd565b6110f86020830186610ebd565b6111056040830185610ebd565b61111260608301846110c7565b95945050505050565b60006020828403121561113157611130610da8565b5b600061113f84828501610e59565b91505092915050565b7f4e487b7100000000000000000000000000000000000000000000000000000000600052603260045260246000fd5b600082825260208201905092915050565b7f4d696e696e673a20506c616e206e6f7420616374697665000000000000000000600082015250565b60006111be601783611177565b91506111c982611188565b602082019050919050565b600060208201905081810360008301526111ed816111b1565b9050919050565b7f4d696e696e673a20436f7374206d75737420626520677265617465722074686160008201527f6e207a65726f0000000000000000000000000000000000000000000000000000602082015250565b6000611250602683611177565b915061125b826111f4565b604082019050919050565b6000602082019050818103600083015261127f81611243565b9050919050565b7f4e487b7100000000000000000000000000000000000000000000000000000000600052601160045260246000fd5b60006112c082610dad565b91506112cb83610dad565b92508282039050818111156112e3576112e2611286565b5b92915050565b60006040820190506112fe6000830185610ebd565b61130b6020830184610ebd565b9392505050565b7f4d696e696e673a20496e76616c696420706c616e496400000000000000000000600082015250565b6000611348601683611177565b915061135382611312565b602082019050919050565b600060208201905081810360008301526113778161133b565b9050919050565b600061138982610dad565b915061139483610dad565b92508282026113a281610dad565b915082820484148315176113b9576113b8611286565b5b5092915050565b7f4d696e696e673a204e6f207265776172647320746f20636c61696d0000000000600082015250565b60006113f6601b83611177565b9150611401826113c0565b602082019050919050565b60006020820190508181036000830152611425816113e9565b9050919050565b600061143782610dad565b915061144283610dad565b925082820190508082111561145a57611459611286565b5b92915050565b60006060820190506114756000830186610eae565b6114826020830185610eae565b61148f6040830184610ebd565b949350505050565b60006040820190506114ac6000830185610eae565b6114b96020830184610ebd565b939250505056fea2646970667358221220ae154a2198cb841ccc810877c9ed0c7acf2ab7935a0741627087aa145fc6a68564736f6c63430008180033",
  "linkReferences": {},
  "deployedLinkReferences": {}
}