{
  "_format": "hh-sol-artifact-1",
  "contractName": "ReferralProgram",
  "sourceName": "contracts/ReferralProgram.sol",
  "abi": [
    {
      "inputs": [
        {
          "internalType": "address",
          "name": "_lipt",
          "type": "address"
        }
      ],
      "stateMutability": "nonpayable",
      "type": "constructor"
    },
    {
      "inputs": [
        {
          "internalType": "address",
          "name": "owner",
          "type": "address"
        }
      ],
      "name": "OwnableInvalidOwner",
      "type": "error"
    },
    {
      "inputs": [
        {
          "internalType": "address",
          "name": "account",
          "type": "address"
        }
      ],
      "name": "OwnableUnauthorizedAccount",
      "type": "error"
    },
    {
      "inputs": [
        {
          "internalType": "address",
          "name": "token",
          "type": "address"
        }
      ],
      "name": "SafeERC20FailedOperation",
      "type": "error"
    },
    {
      "anonymous": false,
      "inputs": [
        {
          "indexed": true,
          "internalType": "address",
          "name": "previousOwner",
          "type": "address"
        },
        {
          "indexed": true,
          "internalType": "address",
          "name": "newOwner",
          "type": "address"
        }
      ],
      "name": "OwnershipTransferred",
      "type": "event"
    },
    {
      "anonymous": false,
      "inputs": [
        {
          "indexed": true,
          "internalType": "address",
          "name": "user",
          "type": "address"
        },
        {
          "indexed": false,
          "internalType": "uint256",
          "name": "amount",
          "type": "uint256"
        }
      ],
      "name": "ReferralRewardsClaimed",
      "type": "event"
    },
    {
      "anonymous": false,
      "inputs": [
        {
          "indexed": true,
          "internalType": "address",
          "name": "user",
          "type": "address"
        },
        {
          "indexed": true,
          "internalType": "address",
          "name": "referrer",
          "type": "address"
        }
      ],
      "name": "Registered",
      "type": "event"
    },
    {
      "inputs": [],
      "name": "LIPT",
      "outputs": [
        {
          "internalType": "contract IERC20",
          "name": "",
          "type": "address"
        }
      ],
      "stateMutability": "view",
      "type": "function"
    },
    {
      "inputs": [
        {
          "internalType": "address",
          "name": "",
          "type": "address"
        }
      ],
      "name": "accumulatedRewards",
      "outputs": [
        {
          "internalType": "uint256",
          "name": "",
          "type": "uint256"
        }
      ],
      "stateMutability": "view",
      "type": "function"
    },
    {
      "inputs": [],
      "name": "claimReferralRewards",
      "outputs": [],
      "stateMutability": "nonpayable",
      "type": "function"
    },
    {
      "inputs": [
        {
          "internalType": "uint256",
          "name": "",
          "type": "uint256"
        }
      ],
      "name": "commissionRates",
      "outputs": [
        {
          "internalType": "uint256",
          "name": "",
          "type": "uint256"
        }
      ],
      "stateMutability": "view",
      "type": "function"
    },
    {
      "inputs": [
        {
          "internalType": "address",
          "name": "referredUser",
          "type": "address"
        },
        {
          "internalType": "uint256",
          "name": "amount",
          "type": "uint256"
        }
      ],
      "name": "distributeCommission",
      "outputs": [],
      "stateMutability": "nonpayable",
      "type": "function"
    },
    {
      "inputs": [],
      "name": "getCommissionRates",
      "outputs": [
        {
          "internalType": "uint256[]",
          "name": "",
          "type": "uint256[]"
        }
      ],
      "stateMutability": "view",
      "type": "function"
    },
    {
      "inputs": [
        {
          "internalType": "address",
          "name": "user",
          "type": "address"
        }
      ],
      "name": "getReferralCount",
      "outputs": [
        {
          "internalType": "uint256",
          "name": "",
          "type": "uint256"
        }
      ],
      "stateMutability": "view",
      "type": "function"
    },
    {
      "inputs": [
        {
          "internalType": "address",
          "name": "user",
          "type": "address"
        }
      ],
      "name": "getReferrer",
      "outputs": [
        {
          "internalType": "address",
          "name": "",
          "type": "address"
        }
      ],
      "stateMutability": "view",
      "type": "function"
    },
    {
      "inputs": [
        {
          "internalType": "address",
          "name": "user",
          "type": "address"
        }
      ],
      "name": "getTotalCommissions",
      "outputs": [
        {
          "internalType": "uint256",
          "name": "",
          "type": "uint256"
        }
      ],
      "stateMutability": "view",
      "type": "function"
    },
    {
      "inputs": [],
      "name": "owner",
      "outputs": [
        {
          "internalType": "address",
          "name": "",
          "type": "address"
        }
      ],
      "stateMutability": "view",
      "type": "function"
    },
    {
      "inputs": [
        {
          "internalType": "address",
          "name": "",
          "type": "address"
        }
      ],
      "name": "referralCount",
      "outputs": [
        {
          "internalType": "uint256",
          "name": "",
          "type": "uint256"
        }
      ],
      "stateMutability": "view",
      "type": "function"
    },
    {
      "inputs": [
        {
          "internalType": "address",
          "name": "",
          "type": "address"
        }
      ],
      "name": "referrerOf",
      "outputs": [
        {
          "internalType": "address",
          "name": "",
          "type": "address"
        }
      ],
      "stateMutability": "view",
      "type": "function"
    },
    {
      "inputs": [
        {
          "internalType": "address",
          "name": "referrerAddress",
          "type": "address"
        }
      ],
      "name": "register",
      "outputs": [],
      "stateMutability": "nonpayable",
      "type": "function"
    },
    {
      "inputs": [],
      "name": "renounceOwnership",
      "outputs": [],
      "stateMutability": "nonpayable",
      "type": "function"
    },
    {
      "inputs": [
        {
          "internalType": "uint256[]",
          "name": "_rates",
          "type": "uint256[]"
        }
      ],
      "name": "setReferralCommissionRates",
      "outputs": [],
      "stateMutability": "nonpayable",
      "type": "function"
    },
    {
      "inputs": [
        {
          "internalType": "address",
          "name": "newOwner",
          "type": "address"
        }
      ],
      "name": "transferOwnership",
      "outputs": [],
      "stateMutability": "nonpayable",
      "type": "function"
    }
  ],
  "bytecode": "0x60a06040523480156200001157600080fd5b50604051620019da380380620019da833981810160405281019062000037919062000228565b33600073ffffffffffffffffffffffffffffffffffffffff168173ffffffffffffffffffffffffffffffffffffffff1603620000ad5760006040517f1e4fbdf7000000000000000000000000000000000000000000000000000000008152600401620000a491906200026b565b60405180910390fd5b620000be81620000fa60201b60201c565b508073ffffffffffffffffffffffffffffffffffffffff1660808173ffffffffffffffffffffffffffffffffffffffff16815250505062000288565b60008060009054906101000a900473ffffffffffffffffffffffffffffffffffffffff169050816000806101000a81548173ffffffffffffffffffffffffffffffffffffffff021916908373ffffffffffffffffffffffffffffffffffffffff1602179055508173ffffffffffffffffffffffffffffffffffffffff168173ffffffffffffffffffffffffffffffffffffffff167f8be0079c531659141344cd1fd0a4f28419497f9722a3daafe3b4186f6b6457e060405160405180910390a35050565b600080fd5b600073ffffffffffffffffffffffffffffffffffffffff82169050919050565b6000620001f082620001c3565b9050919050565b6200020281620001e3565b81146200020e57600080fd5b50565b6000815190506200022281620001f7565b92915050565b600060208284031215620002415762000240620001be565b5b6000620002518482850162000211565b91505092915050565b6200026581620001e3565b82525050565b60006020820190506200028260008301846200025a565b92915050565b60805161172f620002ab6000396000818161040601526108a3015261172f6000f3fe608060405234801561001057600080fd5b50600436106101005760003560e01c8063981d21bb11610097578063db74559b11610066578063db74559b14610287578063e3a82cef146102b7578063f2fde38b146102e7578063ff5a40d51461030357610100565b8063981d21bb146101ff578063999152cf1461021d578063b0e8fb391461023b578063d21cacdf1461025757610100565b80634a9fefc7116100d35780634a9fefc714610177578063715018a6146101a757806373f273fc146101b15780638da5cb5b146101e157610100565b806305eaab4b1461010557806324acbd691461010f578063434d46231461013f5780634420e4861461015b575b600080fd5b61010d610333565b005b61012960048036038101906101249190610f73565b61049b565b6040516101369190610fb9565b60405180910390f35b61015960048036038101906101549190611159565b6104e4565b005b61017560048036038101906101709190610f73565b610506565b005b610191600480360381019061018c9190610f73565b6107e3565b60405161019e91906111b1565b60405180910390f35b6101af61084c565b005b6101cb60048036038101906101c69190610f73565b610860565b6040516101d89190610fb9565b60405180910390f35b6101e9610878565b6040516101f691906111b1565b60405180910390f35b6102076108a1565b604051610214919061122b565b60405180910390f35b6102256108c5565b6040516102329190611304565b60405180910390f35b61025560048036038101906102509190611326565b61091d565b005b610271600480360381019061026c9190610f73565b610ae5565b60405161027e91906111b1565b60405180910390f35b6102a1600480360381019061029c9190610f73565b610b18565b6040516102ae9190610fb9565b60405180910390f35b6102d160048036038101906102cc9190610f73565b610b30565b6040516102de9190610fb9565b60405180910390f35b61030160048036038101906102fc9190610f73565b610b79565b005b61031d60048036038101906103189190611366565b610bff565b60405161032a9190610fb9565b60405180910390f35b6000600260003373ffffffffffffffffffffffffffffffffffffffff1673ffffffffffffffffffffffffffffffffffffffff168152602001908152602001600020549050600081116103ba576040517f08c379a00000000000000000000000000000000000000000000000000000000081526004016103b1906113f0565b60405180910390fd5b6000600260003373ffffffffffffffffffffffffffffffffffffffff1673ffffffffffffffffffffffffffffffffffffffff1681526020019081526020016000208190555061044a33827f000000000000000000000000000000000000000000000000000000000000000073ffffffffffffffffffffffffffffffffffffffff16610c239092919063ffffffff16565b3373ffffffffffffffffffffffffffffffffffffffff167f98741ecf35c5d20a8ed68dbd8540500684864a6c98c2a41a5844d0b3a2357d43826040516104909190610fb9565b60405180910390a250565b6000600360008373ffffffffffffffffffffffffffffffffffffffff1673ffffffffffffffffffffffffffffffffffffffff168152602001908152602001600020549050919050565b6104ec610ca2565b8060049080519060200190610502929190610e97565b5050565b600073ffffffffffffffffffffffffffffffffffffffff168173ffffffffffffffffffffffffffffffffffffffff1603610575576040517f08c379a000000000000000000000000000000000000000000000000000000000815260040161056c9061145c565b60405180910390fd5b3373ffffffffffffffffffffffffffffffffffffffff168173ffffffffffffffffffffffffffffffffffffffff16036105e3576040517f08c379a00000000000000000000000000000000000000000000000000000000081526004016105da906114c8565b60405180910390fd5b600073ffffffffffffffffffffffffffffffffffffffff16600160003373ffffffffffffffffffffffffffffffffffffffff1673ffffffffffffffffffffffffffffffffffffffff16815260200190815260200160002060009054906101000a900473ffffffffffffffffffffffffffffffffffffffff1673ffffffffffffffffffffffffffffffffffffffff16146106b1576040517f08c379a00000000000000000000000000000000000000000000000000000000081526004016106a890611534565b60405180910390fd5b80600160003373ffffffffffffffffffffffffffffffffffffffff1673ffffffffffffffffffffffffffffffffffffffff16815260200190815260200160002060006101000a81548173ffffffffffffffffffffffffffffffffffffffff021916908373ffffffffffffffffffffffffffffffffffffffff1602179055506001600360008373ffffffffffffffffffffffffffffffffffffffff1673ffffffffffffffffffffffffffffffffffffffff168152602001908152602001600020600082825461077f9190611583565b925050819055508073ffffffffffffffffffffffffffffffffffffffff163373ffffffffffffffffffffffffffffffffffffffff167f0a31ee9d46a828884b81003c8498156ea6aa15b9b54bdd0ef0b533d9eba57e5560405160405180910390a350565b6000600160008373ffffffffffffffffffffffffffffffffffffffff1673ffffffffffffffffffffffffffffffffffffffff16815260200190815260200160002060009054906101000a900473ffffffffffffffffffffffffffffffffffffffff169050919050565b610854610ca2565b61085e6000610d29565b565b60026020528060005260406000206000915090505481565b60008060009054906101000a900473ffffffffffffffffffffffffffffffffffffffff16905090565b7f000000000000000000000000000000000000000000000000000000000000000081565b6060600480548060200260200160405190810160405280929190818152602001828054801561091357602002820191906000526020600020905b8154815260200190600101908083116108ff575b5050505050905090565b610925610ca2565b6000600160008473ffffffffffffffffffffffffffffffffffffffff1673ffffffffffffffffffffffffffffffffffffffff16815260200190815260200160002060009054906101000a900473ffffffffffffffffffffffffffffffffffffffff16905060005b600073ffffffffffffffffffffffffffffffffffffffff168273ffffffffffffffffffffffffffffffffffffffff16141580156109cd575060048054905081105b15610adf576000600482815481106109e8576109e76115b7565b5b9060005260206000200154905060006127108286610a0691906115e6565b610a109190611657565b905080600260008673ffffffffffffffffffffffffffffffffffffffff1673ffffffffffffffffffffffffffffffffffffffff1681526020019081526020016000206000828254610a619190611583565b92505081905550600160008573ffffffffffffffffffffffffffffffffffffffff1673ffffffffffffffffffffffffffffffffffffffff16815260200190815260200160002060009054906101000a900473ffffffffffffffffffffffffffffffffffffffff1693508280610ad590611688565b935050505061098c565b50505050565b60016020528060005260406000206000915054906101000a900473ffffffffffffffffffffffffffffffffffffffff1681565b60036020528060005260406000206000915090505481565b6000600260008373ffffffffffffffffffffffffffffffffffffffff1673ffffffffffffffffffffffffffffffffffffffff168152602001908152602001600020549050919050565b610b81610ca2565b600073ffffffffffffffffffffffffffffffffffffffff168173ffffffffffffffffffffffffffffffffffffffff1603610bf35760006040517f1e4fbdf7000000000000000000000000000000000000000000000000000000008152600401610bea91906111b1565b60405180910390fd5b610bfc81610d29565b50565b60048181548110610c0f57600080fd5b906000526020600020016000915090505481565b610c9d838473ffffffffffffffffffffffffffffffffffffffff1663a9059cbb8585604051602401610c569291906116d0565b604051602081830303815290604052915060e01b6020820180517bffffffffffffffffffffffffffffffffffffffffffffffffffffffff8381831617835250505050610ded565b505050565b610caa610e8f565b73ffffffffffffffffffffffffffffffffffffffff16610cc8610878565b73ffffffffffffffffffffffffffffffffffffffff1614610d2757610ceb610e8f565b6040517f118cdaa7000000000000000000000000000000000000000000000000000000008152600401610d1e91906111b1565b60405180910390fd5b565b60008060009054906101000a900473ffffffffffffffffffffffffffffffffffffffff169050816000806101000a81548173ffffffffffffffffffffffffffffffffffffffff021916908373ffffffffffffffffffffffffffffffffffffffff1602179055508173ffffffffffffffffffffffffffffffffffffffff168173ffffffffffffffffffffffffffffffffffffffff167f8be0079c531659141344cd1fd0a4f28419497f9722a3daafe3b4186f6b6457e060405160405180910390a35050565b600080602060008451602086016000885af180610e10576040513d6000823e3d81fd5b3d925060005191505060008214610e2b576001811415610e47565b60008473ffffffffffffffffffffffffffffffffffffffff163b145b15610e8957836040517f5274afe7000000000000000000000000000000000000000000000000000000008152600401610e8091906111b1565b60405180910390fd5b50505050565b600033905090565b828054828255906000526020600020908101928215610ed3579160200282015b82811115610ed2578251825591602001919060010190610eb7565b5b509050610ee09190610ee4565b5090565b5b80821115610efd576000816000905550600101610ee5565b5090565b6000604051905090565b600080fd5b600080fd5b600073ffffffffffffffffffffffffffffffffffffffff82169050919050565b6000610f4082610f15565b9050919050565b610f5081610f35565b8114610f5b57600080fd5b50565b600081359050610f6d81610f47565b92915050565b600060208284031215610f8957610f88610f0b565b5b6000610f9784828501610f5e565b91505092915050565b6000819050919050565b610fb381610fa0565b82525050565b6000602082019050610fce6000830184610faa565b92915050565b600080fd5b6000601f19601f8301169050919050565b7f4e487b7100000000000000000000000000000000000000000000000000000000600052604160045260246000fd5b61102282610fd9565b810181811067ffffffffffffffff8211171561104157611040610fea565b5b80604052505050565b6000611054610f01565b90506110608282611019565b919050565b600067ffffffffffffffff8211156110805761107f610fea565b5b602082029050602081019050919050565b600080fd5b61109f81610fa0565b81146110aa57600080fd5b50565b6000813590506110bc81611096565b92915050565b60006110d56110d084611065565b61104a565b905080838252602082019050602084028301858111156110f8576110f7611091565b5b835b81811015611121578061110d88826110ad565b8452602084019350506020810190506110fa565b5050509392505050565b600082601f8301126111405761113f610fd4565b5b81356111508482602086016110c2565b91505092915050565b60006020828403121561116f5761116e610f0b565b5b600082013567ffffffffffffffff81111561118d5761118c610f10565b5b6111998482850161112b565b91505092915050565b6111ab81610f35565b82525050565b60006020820190506111c660008301846111a2565b92915050565b6000819050919050565b60006111f16111ec6111e784610f15565b6111cc565b610f15565b9050919050565b6000611203826111d6565b9050919050565b6000611215826111f8565b9050919050565b6112258161120a565b82525050565b6000602082019050611240600083018461121c565b92915050565b600081519050919050565b600082825260208201905092915050565b6000819050602082019050919050565b61127b81610fa0565b82525050565b600061128d8383611272565b60208301905092915050565b6000602082019050919050565b60006112b182611246565b6112bb8185611251565b93506112c683611262565b8060005b838110156112f75781516112de8882611281565b97506112e983611299565b9250506001810190506112ca565b5085935050505092915050565b6000602082019050818103600083015261131e81846112a6565b905092915050565b6000806040838503121561133d5761133c610f0b565b5b600061134b85828601610f5e565b925050602061135c858286016110ad565b9150509250929050565b60006020828403121561137c5761137b610f0b565b5b600061138a848285016110ad565b91505092915050565b600082825260208201905092915050565b7f526566657272616c3a204e6f207265776172647320746f20636c61696d000000600082015250565b60006113da601d83611393565b91506113e5826113a4565b602082019050919050565b60006020820190508181036000830152611409816113cd565b9050919050565b7f526566657272616c3a20496e76616c6964207265666572726572000000000000600082015250565b6000611446601a83611393565b915061145182611410565b602082019050919050565b6000602082019050818103600083015261147581611439565b9050919050565b7f526566657272616c3a2043616e6e6f742072656665722073656c660000000000600082015250565b60006114b2601b83611393565b91506114bd8261147c565b602082019050919050565b600060208201905081810360008301526114e1816114a5565b9050919050565b7f526566657272616c3a20416c7265616479207265676973746572656400000000600082015250565b600061151e601c83611393565b9150611529826114e8565b602082019050919050565b6000602082019050818103600083015261154d81611511565b9050919050565b7f4e487b7100000000000000000000000000000000000000000000000000000000600052601160045260246000fd5b600061158e82610fa0565b915061159983610fa0565b92508282019050808211156115b1576115b0611554565b5b92915050565b7f4e487b7100000000000000000000000000000000000000000000000000000000600052603260045260246000fd5b60006115f182610fa0565b91506115fc83610fa0565b925082820261160a81610fa0565b9150828204841483151761162157611620611554565b5b5092915050565b7f4e487b7100000000000000000000000000000000000000000000000000000000600052601260045260246000fd5b600061166282610fa0565b915061166d83610fa0565b92508261167d5761167c611628565b5b828204905092915050565b600061169382610fa0565b91507fffffffffffffffffffffffffffffffffffffffffffffffffffffffffffffffff82036116c5576116c4611554565b5b600182019050919050565b60006040820190506116e560008301856111a2565b6116f26020830184610faa565b939250505056fea26469706673582212206ce88c359c8dbe6de4fcbefde438f33ed0c54af7f4ed9da61cc25ea105cc28c764736f6c63430008180033",
  "linkReferences": {},
  "deployedLinkReferences": {}
}