{
  "_format": "hh-sol-artifact-1",
  "contractName": "ReferralProgram",
  "sourceName": "contracts/ReferralProgram.sol",
  "abi": [
    {
      "inputs": [
        {
          "internalType": "address",
          "name": "_lipt",
          "type": "address"
        }
      ],
      "stateMutability": "nonpayable",
      "type": "constructor"
    },
    {
      "inputs": [
        {
          "internalType": "address",
          "name": "owner",
          "type": "address"
        }
      ],
      "name": "OwnableInvalidOwner",
      "type": "error"
    },
    {
      "inputs": [
        {
          "internalType": "address",
          "name": "account",
          "type": "address"
        }
      ],
      "name": "OwnableUnauthorizedAccount",
      "type": "error"
    },
    {
      "inputs": [
        {
          "internalType": "address",
          "name": "token",
          "type": "address"
        }
      ],
      "name": "SafeERC20FailedOperation",
      "type": "error"
    },
    {
      "anonymous": false,
      "inputs": [
        {
          "indexed": true,
          "internalType": "address",
          "name": "previousOwner",
          "type": "address"
        },
        {
          "indexed": true,
          "internalType": "address",
          "name": "newOwner",
          "type": "address"
        }
      ],
      "name": "OwnershipTransferred",
      "type": "event"
    },
    {
      "anonymous": false,
      "inputs": [
        {
          "indexed": true,
          "internalType": "address",
          "name": "user",
          "type": "address"
        },
        {
          "indexed": false,
          "internalType": "uint256",
          "name": "amount",
          "type": "uint256"
        }
      ],
      "name": "ReferralRewardsClaimed",
      "type": "event"
    },
    {
      "anonymous": false,
      "inputs": [
        {
          "indexed": true,
          "internalType": "address",
          "name": "user",
          "type": "address"
        },
        {
          "indexed": true,
          "internalType": "address",
          "name": "referrer",
          "type": "address"
        }
      ],
      "name": "Registered",
      "type": "event"
    },
    {
      "inputs": [],
      "name": "LIPT",
      "outputs": [
        {
          "internalType": "contract IERC20",
          "name": "",
          "type": "address"
        }
      ],
      "stateMutability": "view",
      "type": "function"
    },
    {
      "inputs": [
        {
          "internalType": "address",
          "name": "",
          "type": "address"
        }
      ],
      "name": "accumulatedRewards",
      "outputs": [
        {
          "internalType": "uint256",
          "name": "",
          "type": "uint256"
        }
      ],
      "stateMutability": "view",
      "type": "function"
    },
    {
      "inputs": [],
      "name": "claimReferralRewards",
      "outputs": [],
      "stateMutability": "nonpayable",
      "type": "function"
    },
    {
      "inputs": [
        {
          "internalType": "uint256",
          "name": "",
          "type": "uint256"
        }
      ],
      "name": "commissionRates",
      "outputs": [
        {
          "internalType": "uint256",
          "name": "",
          "type": "uint256"
        }
      ],
      "stateMutability": "view",
      "type": "function"
    },
    {
      "inputs": [
        {
          "internalType": "address",
          "name": "referredUser",
          "type": "address"
        },
        {
          "internalType": "uint256",
          "name": "amount",
          "type": "uint256"
        }
      ],
      "name": "distributeCommission",
      "outputs": [],
      "stateMutability": "nonpayable",
      "type": "function"
    },
    {
      "inputs": [],
      "name": "owner",
      "outputs": [
        {
          "internalType": "address",
          "name": "",
          "type": "address"
        }
      ],
      "stateMutability": "view",
      "type": "function"
    },
    {
      "inputs": [
        {
          "internalType": "address",
          "name": "",
          "type": "address"
        }
      ],
      "name": "referrerOf",
      "outputs": [
        {
          "internalType": "address",
          "name": "",
          "type": "address"
        }
      ],
      "stateMutability": "view",
      "type": "function"
    },
    {
      "inputs": [
        {
          "internalType": "address",
          "name": "referrerAddress",
          "type": "address"
        }
      ],
      "name": "register",
      "outputs": [],
      "stateMutability": "nonpayable",
      "type": "function"
    },
    {
      "inputs": [],
      "name": "renounceOwnership",
      "outputs": [],
      "stateMutability": "nonpayable",
      "type": "function"
    },
    {
      "inputs": [
        {
          "internalType": "uint256[]",
          "name": "_rates",
          "type": "uint256[]"
        }
      ],
      "name": "setReferralCommissionRates",
      "outputs": [],
      "stateMutability": "nonpayable",
      "type": "function"
    },
    {
      "inputs": [
        {
          "internalType": "address",
          "name": "newOwner",
          "type": "address"
        }
      ],
      "name": "transferOwnership",
      "outputs": [],
      "stateMutability": "nonpayable",
      "type": "function"
    }
  ],
  "bytecode": "0x60a06040523480156200001157600080fd5b506040516200160338038062001603833981810160405281019062000037919062000228565b33600073ffffffffffffffffffffffffffffffffffffffff168173ffffffffffffffffffffffffffffffffffffffff1603620000ad5760006040517f1e4fbdf7000000000000000000000000000000000000000000000000000000008152600401620000a491906200026b565b60405180910390fd5b620000be81620000fa60201b60201c565b508073ffffffffffffffffffffffffffffffffffffffff1660808173ffffffffffffffffffffffffffffffffffffffff16815250505062000288565b60008060009054906101000a900473ffffffffffffffffffffffffffffffffffffffff169050816000806101000a81548173ffffffffffffffffffffffffffffffffffffffff021916908373ffffffffffffffffffffffffffffffffffffffff1602179055508173ffffffffffffffffffffffffffffffffffffffff168173ffffffffffffffffffffffffffffffffffffffff167f8be0079c531659141344cd1fd0a4f28419497f9722a3daafe3b4186f6b6457e060405160405180910390a35050565b600080fd5b600073ffffffffffffffffffffffffffffffffffffffff82169050919050565b6000620001f082620001c3565b9050919050565b6200020281620001e3565b81146200020e57600080fd5b50565b6000815190506200022281620001f7565b92915050565b600060208284031215620002415762000240620001be565b5b6000620002518482850162000211565b91505092915050565b6200026581620001e3565b82525050565b60006020820190506200028260008301846200025a565b92915050565b608051611358620002ab600039600081816102d1015261066501526113586000f3fe608060405234801561001057600080fd5b50600436106100a95760003560e01c80638da5cb5b116100715780638da5cb5b1461012a578063981d21bb14610148578063b0e8fb3914610166578063d21cacdf14610182578063f2fde38b146101b2578063ff5a40d5146101ce576100a9565b806305eaab4b146100ae578063434d4623146100b85780634420e486146100d4578063715018a6146100f057806373f273fc146100fa575b600080fd5b6100b66101fe565b005b6100d260048036038101906100cd9190610dad565b610366565b005b6100ee60048036038101906100e99190610e54565b610388565b005b6100f861060e565b005b610114600480360381019061010f9190610e54565b610622565b6040516101219190610e90565b60405180910390f35b61013261063a565b60405161013f9190610eba565b60405180910390f35b610150610663565b60405161015d9190610f34565b60405180910390f35b610180600480360381019061017b9190610f4f565b610687565b005b61019c60048036038101906101979190610e54565b61084f565b6040516101a99190610eba565b60405180910390f35b6101cc60048036038101906101c79190610e54565b610882565b005b6101e860048036038101906101e39190610f8f565b610908565b6040516101f59190610e90565b60405180910390f35b6000600260003373ffffffffffffffffffffffffffffffffffffffff1673ffffffffffffffffffffffffffffffffffffffff16815260200190815260200160002054905060008111610285576040517f08c379a000000000000000000000000000000000000000000000000000000000815260040161027c90611019565b60405180910390fd5b6000600260003373ffffffffffffffffffffffffffffffffffffffff1673ffffffffffffffffffffffffffffffffffffffff1681526020019081526020016000208190555061031533827f000000000000000000000000000000000000000000000000000000000000000073ffffffffffffffffffffffffffffffffffffffff1661092c9092919063ffffffff16565b3373ffffffffffffffffffffffffffffffffffffffff167f98741ecf35c5d20a8ed68dbd8540500684864a6c98c2a41a5844d0b3a2357d438260405161035b9190610e90565b60405180910390a250565b61036e6109ab565b8060039080519060200190610384929190610ba0565b5050565b600073ffffffffffffffffffffffffffffffffffffffff168173ffffffffffffffffffffffffffffffffffffffff16036103f7576040517f08c379a00000000000000000000000000000000000000000000000000000000081526004016103ee90611085565b60405180910390fd5b3373ffffffffffffffffffffffffffffffffffffffff168173ffffffffffffffffffffffffffffffffffffffff1603610465576040517f08c379a000000000000000000000000000000000000000000000000000000000815260040161045c906110f1565b60405180910390fd5b600073ffffffffffffffffffffffffffffffffffffffff16600160003373ffffffffffffffffffffffffffffffffffffffff1673ffffffffffffffffffffffffffffffffffffffff16815260200190815260200160002060009054906101000a900473ffffffffffffffffffffffffffffffffffffffff1673ffffffffffffffffffffffffffffffffffffffff1614610533576040517f08c379a000000000000000000000000000000000000000000000000000000000815260040161052a9061115d565b60405180910390fd5b80600160003373ffffffffffffffffffffffffffffffffffffffff1673ffffffffffffffffffffffffffffffffffffffff16815260200190815260200160002060006101000a81548173ffffffffffffffffffffffffffffffffffffffff021916908373ffffffffffffffffffffffffffffffffffffffff1602179055508073ffffffffffffffffffffffffffffffffffffffff163373ffffffffffffffffffffffffffffffffffffffff167f0a31ee9d46a828884b81003c8498156ea6aa15b9b54bdd0ef0b533d9eba57e5560405160405180910390a350565b6106166109ab565b6106206000610a32565b565b60026020528060005260406000206000915090505481565b60008060009054906101000a900473ffffffffffffffffffffffffffffffffffffffff16905090565b7f000000000000000000000000000000000000000000000000000000000000000081565b61068f6109ab565b6000600160008473ffffffffffffffffffffffffffffffffffffffff1673ffffffffffffffffffffffffffffffffffffffff16815260200190815260200160002060009054906101000a900473ffffffffffffffffffffffffffffffffffffffff16905060005b600073ffffffffffffffffffffffffffffffffffffffff168273ffffffffffffffffffffffffffffffffffffffff1614158015610737575060038054905081105b15610849576000600382815481106107525761075161117d565b5b906000526020600020015490506000612710828661077091906111db565b61077a919061124c565b905080600260008673ffffffffffffffffffffffffffffffffffffffff1673ffffffffffffffffffffffffffffffffffffffff16815260200190815260200160002060008282546107cb919061127d565b92505081905550600160008573ffffffffffffffffffffffffffffffffffffffff1673ffffffffffffffffffffffffffffffffffffffff16815260200190815260200160002060009054906101000a900473ffffffffffffffffffffffffffffffffffffffff169350828061083f906112b1565b93505050506106f6565b50505050565b60016020528060005260406000206000915054906101000a900473ffffffffffffffffffffffffffffffffffffffff1681565b61088a6109ab565b600073ffffffffffffffffffffffffffffffffffffffff168173ffffffffffffffffffffffffffffffffffffffff16036108fc5760006040517f1e4fbdf70000000000000000000000000000000000000000000000000000000081526004016108f39190610eba565b60405180910390fd5b61090581610a32565b50565b6003818154811061091857600080fd5b906000526020600020016000915090505481565b6109a6838473ffffffffffffffffffffffffffffffffffffffff1663a9059cbb858560405160240161095f9291906112f9565b604051602081830303815290604052915060e01b6020820180517bffffffffffffffffffffffffffffffffffffffffffffffffffffffff8381831617835250505050610af6565b505050565b6109b3610b98565b73ffffffffffffffffffffffffffffffffffffffff166109d161063a565b73ffffffffffffffffffffffffffffffffffffffff1614610a30576109f4610b98565b6040517f118cdaa7000000000000000000000000000000000000000000000000000000008152600401610a279190610eba565b60405180910390fd5b565b60008060009054906101000a900473ffffffffffffffffffffffffffffffffffffffff169050816000806101000a81548173ffffffffffffffffffffffffffffffffffffffff021916908373ffffffffffffffffffffffffffffffffffffffff1602179055508173ffffffffffffffffffffffffffffffffffffffff168173ffffffffffffffffffffffffffffffffffffffff167f8be0079c531659141344cd1fd0a4f28419497f9722a3daafe3b4186f6b6457e060405160405180910390a35050565b600080602060008451602086016000885af180610b19576040513d6000823e3d81fd5b3d925060005191505060008214610b34576001811415610b50565b60008473ffffffffffffffffffffffffffffffffffffffff163b145b15610b9257836040517f5274afe7000000000000000000000000000000000000000000000000000000008152600401610b899190610eba565b60405180910390fd5b50505050565b600033905090565b828054828255906000526020600020908101928215610bdc579160200282015b82811115610bdb578251825591602001919060010190610bc0565b5b509050610be99190610bed565b5090565b5b80821115610c06576000816000905550600101610bee565b5090565b6000604051905090565b600080fd5b600080fd5b600080fd5b6000601f19601f8301169050919050565b7f4e487b7100000000000000000000000000000000000000000000000000000000600052604160045260246000fd5b610c6c82610c23565b810181811067ffffffffffffffff82111715610c8b57610c8a610c34565b5b80604052505050565b6000610c9e610c0a565b9050610caa8282610c63565b919050565b600067ffffffffffffffff821115610cca57610cc9610c34565b5b602082029050602081019050919050565b600080fd5b6000819050919050565b610cf381610ce0565b8114610cfe57600080fd5b50565b600081359050610d1081610cea565b92915050565b6000610d29610d2484610caf565b610c94565b90508083825260208201905060208402830185811115610d4c57610d4b610cdb565b5b835b81811015610d755780610d618882610d01565b845260208401935050602081019050610d4e565b5050509392505050565b600082601f830112610d9457610d93610c1e565b5b8135610da4848260208601610d16565b91505092915050565b600060208284031215610dc357610dc2610c14565b5b600082013567ffffffffffffffff811115610de157610de0610c19565b5b610ded84828501610d7f565b91505092915050565b600073ffffffffffffffffffffffffffffffffffffffff82169050919050565b6000610e2182610df6565b9050919050565b610e3181610e16565b8114610e3c57600080fd5b50565b600081359050610e4e81610e28565b92915050565b600060208284031215610e6a57610e69610c14565b5b6000610e7884828501610e3f565b91505092915050565b610e8a81610ce0565b82525050565b6000602082019050610ea56000830184610e81565b92915050565b610eb481610e16565b82525050565b6000602082019050610ecf6000830184610eab565b92915050565b6000819050919050565b6000610efa610ef5610ef084610df6565b610ed5565b610df6565b9050919050565b6000610f0c82610edf565b9050919050565b6000610f1e82610f01565b9050919050565b610f2e81610f13565b82525050565b6000602082019050610f496000830184610f25565b92915050565b60008060408385031215610f6657610f65610c14565b5b6000610f7485828601610e3f565b9250506020610f8585828601610d01565b9150509250929050565b600060208284031215610fa557610fa4610c14565b5b6000610fb384828501610d01565b91505092915050565b600082825260208201905092915050565b7f526566657272616c3a204e6f207265776172647320746f20636c61696d000000600082015250565b6000611003601d83610fbc565b915061100e82610fcd565b602082019050919050565b6000602082019050818103600083015261103281610ff6565b9050919050565b7f526566657272616c3a20496e76616c6964207265666572726572000000000000600082015250565b600061106f601a83610fbc565b915061107a82611039565b602082019050919050565b6000602082019050818103600083015261109e81611062565b9050919050565b7f526566657272616c3a2043616e6e6f742072656665722073656c660000000000600082015250565b60006110db601b83610fbc565b91506110e6826110a5565b602082019050919050565b6000602082019050818103600083015261110a816110ce565b9050919050565b7f526566657272616c3a20416c7265616479207265676973746572656400000000600082015250565b6000611147601c83610fbc565b915061115282611111565b602082019050919050565b600060208201905081810360008301526111768161113a565b9050919050565b7f4e487b7100000000000000000000000000000000000000000000000000000000600052603260045260246000fd5b7f4e487b7100000000000000000000000000000000000000000000000000000000600052601160045260246000fd5b60006111e682610ce0565b91506111f183610ce0565b92508282026111ff81610ce0565b91508282048414831517611216576112156111ac565b5b5092915050565b7f4e487b7100000000000000000000000000000000000000000000000000000000600052601260045260246000fd5b600061125782610ce0565b915061126283610ce0565b9250826112725761127161121d565b5b828204905092915050565b600061128882610ce0565b915061129383610ce0565b92508282019050808211156112ab576112aa6111ac565b5b92915050565b60006112bc82610ce0565b91507fffffffffffffffffffffffffffffffffffffffffffffffffffffffffffffffff82036112ee576112ed6111ac565b5b600182019050919050565b600060408201905061130e6000830185610eab565b61131b6020830184610e81565b939250505056fea2646970667358221220bbbb7e5a5a2e5df47e0baa441c3c85f1e671276f0c8ad3700b8474100ca10d6664736f6c63430008180033",
  "linkReferences": {},
  "deployedLinkReferences": {}
}