{
  "_format": "hh-sol-artifact-1",
  "contractName": "StakingPool",
  "sourceName": "contracts/StakingPool.sol",
  "abi": [
    {
      "inputs": [
        {
          "internalType": "address",
          "name": "_lipt",
          "type": "address"
        }
      ],
      "stateMutability": "nonpayable",
      "type": "constructor"
    },
    {
      "inputs": [
        {
          "internalType": "address",
          "name": "owner",
          "type": "address"
        }
      ],
      "name": "OwnableInvalidOwner",
      "type": "error"
    },
    {
      "inputs": [
        {
          "internalType": "address",
          "name": "account",
          "type": "address"
        }
      ],
      "name": "OwnableUnauthorizedAccount",
      "type": "error"
    },
    {
      "inputs": [
        {
          "internalType": "address",
          "name": "token",
          "type": "address"
        }
      ],
      "name": "SafeERC20FailedOperation",
      "type": "error"
    },
    {
      "anonymous": false,
      "inputs": [
        {
          "indexed": true,
          "internalType": "address",
          "name": "previousOwner",
          "type": "address"
        },
        {
          "indexed": true,
          "internalType": "address",
          "name": "newOwner",
          "type": "address"
        }
      ],
      "name": "OwnershipTransferred",
      "type": "event"
    },
    {
      "anonymous": false,
      "inputs": [
        {
          "indexed": true,
          "internalType": "address",
          "name": "user",
          "type": "address"
        },
        {
          "indexed": false,
          "internalType": "uint256",
          "name": "amount",
          "type": "uint256"
        }
      ],
      "name": "RewardsClaimed",
      "type": "event"
    },
    {
      "anonymous": false,
      "inputs": [
        {
          "indexed": true,
          "internalType": "address",
          "name": "user",
          "type": "address"
        },
        {
          "indexed": false,
          "internalType": "uint256",
          "name": "amount",
          "type": "uint256"
        },
        {
          "indexed": false,
          "internalType": "uint256",
          "name": "planId",
          "type": "uint256"
        },
        {
          "indexed": false,
          "internalType": "uint256",
          "name": "stakeId",
          "type": "uint256"
        }
      ],
      "name": "Staked",
      "type": "event"
    },
    {
      "anonymous": false,
      "inputs": [
        {
          "indexed": true,
          "internalType": "address",
          "name": "user",
          "type": "address"
        },
        {
          "indexed": false,
          "internalType": "uint256",
          "name": "amount",
          "type": "uint256"
        },
        {
          "indexed": false,
          "internalType": "uint256",
          "name": "penalty",
          "type": "uint256"
        }
      ],
      "name": "Unstaked",
      "type": "event"
    },
    {
      "inputs": [],
      "name": "DEAD_ADDRESS",
      "outputs": [
        {
          "internalType": "address",
          "name": "",
          "type": "address"
        }
      ],
      "stateMutability": "view",
      "type": "function"
    },
    {
      "inputs": [],
      "name": "LIPT",
      "outputs": [
        {
          "internalType": "contract IERC20",
          "name": "",
          "type": "address"
        }
      ],
      "stateMutability": "view",
      "type": "function"
    },
    {
      "inputs": [
        {
          "internalType": "uint256",
          "name": "_duration",
          "type": "uint256"
        },
        {
          "internalType": "uint256",
          "name": "_apy",
          "type": "uint256"
        }
      ],
      "name": "addStakingPlan",
      "outputs": [],
      "stateMutability": "nonpayable",
      "type": "function"
    },
    {
      "inputs": [
        {
          "internalType": "uint256",
          "name": "stakeId",
          "type": "uint256"
        }
      ],
      "name": "calculateRewards",
      "outputs": [
        {
          "internalType": "uint256",
          "name": "rewards",
          "type": "uint256"
        }
      ],
      "stateMutability": "view",
      "type": "function"
    },
    {
      "inputs": [
        {
          "internalType": "uint256",
          "name": "stakeId",
          "type": "uint256"
        }
      ],
      "name": "claimRewards",
      "outputs": [],
      "stateMutability": "nonpayable",
      "type": "function"
    },
    {
      "inputs": [],
      "name": "earlyUnstakePenaltyBasisPoints",
      "outputs": [
        {
          "internalType": "uint256",
          "name": "",
          "type": "uint256"
        }
      ],
      "stateMutability": "view",
      "type": "function"
    },
    {
      "inputs": [
        {
          "internalType": "uint256",
          "name": "planId",
          "type": "uint256"
        },
        {
          "internalType": "uint256",
          "name": "_duration",
          "type": "uint256"
        },
        {
          "internalType": "uint256",
          "name": "_apy",
          "type": "uint256"
        },
        {
          "internalType": "bool",
          "name": "_active",
          "type": "bool"
        }
      ],
      "name": "modifyStakingPlan",
      "outputs": [],
      "stateMutability": "nonpayable",
      "type": "function"
    },
    {
      "inputs": [],
      "name": "owner",
      "outputs": [
        {
          "internalType": "address",
          "name": "",
          "type": "address"
        }
      ],
      "stateMutability": "view",
      "type": "function"
    },
    {
      "inputs": [
        {
          "internalType": "uint256",
          "name": "",
          "type": "uint256"
        }
      ],
      "name": "plans",
      "outputs": [
        {
          "internalType": "uint256",
          "name": "duration",
          "type": "uint256"
        },
        {
          "internalType": "uint256",
          "name": "apy",
          "type": "uint256"
        },
        {
          "internalType": "bool",
          "name": "active",
          "type": "bool"
        }
      ],
      "stateMutability": "view",
      "type": "function"
    },
    {
      "inputs": [],
      "name": "renounceOwnership",
      "outputs": [],
      "stateMutability": "nonpayable",
      "type": "function"
    },
    {
      "inputs": [
        {
          "internalType": "uint256",
          "name": "penaltyBasisPoints",
          "type": "uint256"
        }
      ],
      "name": "setEarlyUnstakePenalty",
      "outputs": [],
      "stateMutability": "nonpayable",
      "type": "function"
    },
    {
      "inputs": [
        {
          "internalType": "uint256",
          "name": "amount",
          "type": "uint256"
        },
        {
          "internalType": "uint256",
          "name": "planId",
          "type": "uint256"
        }
      ],
      "name": "stake",
      "outputs": [],
      "stateMutability": "nonpayable",
      "type": "function"
    },
    {
      "inputs": [
        {
          "internalType": "address",
          "name": "newOwner",
          "type": "address"
        }
      ],
      "name": "transferOwnership",
      "outputs": [],
      "stateMutability": "nonpayable",
      "type": "function"
    },
    {
      "inputs": [
        {
          "internalType": "uint256",
          "name": "stakeId",
          "type": "uint256"
        }
      ],
      "name": "unstake",
      "outputs": [],
      "stateMutability": "nonpayable",
      "type": "function"
    },
    {
      "inputs": [
        {
          "internalType": "address",
          "name": "",
          "type": "address"
        },
        {
          "internalType": "uint256",
          "name": "",
          "type": "uint256"
        }
      ],
      "name": "userStakes",
      "outputs": [
        {
          "internalType": "address",
          "name": "user",
          "type": "address"
        },
        {
          "internalType": "uint256",
          "name": "amount",
          "type": "uint256"
        },
        {
          "internalType": "uint256",
          "name": "startDate",
          "type": "uint256"
        },
        {
          "internalType": "uint256",
          "name": "planId",
          "type": "uint256"
        },
        {
          "internalType": "uint256",
          "name": "rewardsClaimed",
          "type": "uint256"
        }
      ],
      "stateMutability": "view",
      "type": "function"
    }
  ],
  "bytecode": "0x60c060405261dead73ffffffffffffffffffffffffffffffffffffffff1660809073ffffffffffffffffffffffffffffffffffffffff168152506103e86003553480156200004c57600080fd5b5060405162001acb38038062001acb833981810160405281019062000072919062000263565b33600073ffffffffffffffffffffffffffffffffffffffff168173ffffffffffffffffffffffffffffffffffffffff1603620000e85760006040517f1e4fbdf7000000000000000000000000000000000000000000000000000000008152600401620000df9190620002a6565b60405180910390fd5b620000f9816200013560201b60201c565b508073ffffffffffffffffffffffffffffffffffffffff1660a08173ffffffffffffffffffffffffffffffffffffffff168152505050620002c3565b60008060009054906101000a900473ffffffffffffffffffffffffffffffffffffffff169050816000806101000a81548173ffffffffffffffffffffffffffffffffffffffff021916908373ffffffffffffffffffffffffffffffffffffffff1602179055508173ffffffffffffffffffffffffffffffffffffffff168173ffffffffffffffffffffffffffffffffffffffff167f8be0079c531659141344cd1fd0a4f28419497f9722a3daafe3b4186f6b6457e060405160405180910390a35050565b600080fd5b600073ffffffffffffffffffffffffffffffffffffffff82169050919050565b60006200022b82620001fe565b9050919050565b6200023d816200021e565b81146200024957600080fd5b50565b6000815190506200025d8162000232565b92915050565b6000602082840312156200027c576200027b620001f9565b5b60006200028c848285016200024c565b91505092915050565b620002a0816200021e565b82525050565b6000602082019050620002bd600083018462000295565b92915050565b60805160a0516117bf6200030c600039600081816103a6015281816105220152818161058d015281816107c201526109ff01526000818161056b015261063e01526117bf6000f3fe608060405234801561001057600080fd5b50600436106100f55760003560e01c80638da5cb5b11610097578063b37c7e5611610066578063b37c7e561461023a578063b5d5b5fa14610256578063d3ea43501461028a578063f2fde38b146102ba576100f5565b80638da5cb5b146101b05780638e1eb324146101ce578063981d21bb146101ea578063b162061614610208576100f5565b80635ef23fa9116100d35780635ef23fa91461015057806364f95e5f1461016c578063715018a61461018a5780637b0472f014610194576100f5565b80630962ef79146100fa5780632e17de78146101165780634e6fd6c414610132575b600080fd5b610114600480360381019061010f9190611062565b6102d6565b005b610130600480360381019061012b9190611062565b61043c565b005b61013a61063c565b60405161014791906110d0565b60405180910390f35b61016a600480360381019061016591906110eb565b610660565b005b6101746106eb565b604051610181919061113a565b60405180910390f35b6101926106f1565b005b6101ae60048036038101906101a991906110eb565b610705565b005b6101b86109c2565b6040516101c591906110d0565b60405180910390f35b6101e860048036038101906101e39190611062565b6109eb565b005b6101f26109fd565b6040516101ff91906111b4565b60405180910390f35b610222600480360381019061021d9190611062565b610a21565b604051610231939291906111ea565b60405180910390f35b610254600480360381019061024f919061124d565b610a68565b005b610270600480360381019061026b91906112e0565b610b33565b604051610281959493929190611320565b60405180910390f35b6102a4600480360381019061029f9190611062565b610ba6565b6040516102b1919061113a565b60405180910390f35b6102d460048036038101906102cf9190611373565b610cab565b005b60006102e182610ba6565b905060008111610326576040517f08c379a000000000000000000000000000000000000000000000000000000000815260040161031d906113fd565b60405180910390fd5b80600260003373ffffffffffffffffffffffffffffffffffffffff1673ffffffffffffffffffffffffffffffffffffffff16815260200190815260200160002083815481106103785761037761141d565b5b90600052602060002090600502016004016000828254610398919061147b565b925050819055506103ea33827f000000000000000000000000000000000000000000000000000000000000000073ffffffffffffffffffffffffffffffffffffffff16610d319092919063ffffffff16565b3373ffffffffffffffffffffffffffffffffffffffff167ffc30cddea38e2bf4d6ea7d3f9ed3b6ad7f176419f4963bd81318067a4aee73fe82604051610430919061113a565b60405180910390a25050565b6000600260003373ffffffffffffffffffffffffffffffffffffffff1673ffffffffffffffffffffffffffffffffffffffff168152602001908152602001600020828154811061048f5761048e61141d565b5b90600052602060002090600502019050600060018260030154815481106104b9576104b861141d565b5b906000526020600020906003020190506000826001015490506000826000015484600201546104e8919061147b565b42101561051b576127106003548361050091906114af565b61050a9190611520565b905080826105189190611551565b91505b61056633837f000000000000000000000000000000000000000000000000000000000000000073ffffffffffffffffffffffffffffffffffffffff16610d319092919063ffffffff16565b6105d17f0000000000000000000000000000000000000000000000000000000000000000827f000000000000000000000000000000000000000000000000000000000000000073ffffffffffffffffffffffffffffffffffffffff16610d319092919063ffffffff16565b60008460010181905550600084600201819055503373ffffffffffffffffffffffffffffffffffffffff167f7fc4727e062e336010f2c282598ef5f14facb3de68cf8195c2f23e1454b2b74e838360405161062d929190611585565b60405180910390a25050505050565b7f000000000000000000000000000000000000000000000000000000000000000081565b610668610db0565b60016040518060600160405280848152602001838152602001600115158152509080600181540180825580915050600190039060005260206000209060030201600090919091909150600082015181600001556020820151816001015560408201518160020160006101000a81548160ff02191690831515021790555050505050565b60035481565b6106f9610db0565b6107036000610e37565b565b600181815481106107195761071861141d565b5b906000526020600020906003020160020160009054906101000a900460ff16610777576040517f08c379a000000000000000000000000000000000000000000000000000000000815260040161076e906115fa565b60405180910390fd5b600082116107ba576040517f08c379a00000000000000000000000000000000000000000000000000000000081526004016107b190611666565b60405180910390fd5b6108073330847f000000000000000000000000000000000000000000000000000000000000000073ffffffffffffffffffffffffffffffffffffffff16610efb909392919063ffffffff16565b600260003373ffffffffffffffffffffffffffffffffffffffff1673ffffffffffffffffffffffffffffffffffffffff1681526020019081526020016000206040518060a001604052803373ffffffffffffffffffffffffffffffffffffffff1681526020018481526020014281526020018381526020016000815250908060018154018082558091505060019003906000526020600020906005020160009091909190915060008201518160000160006101000a81548173ffffffffffffffffffffffffffffffffffffffff021916908373ffffffffffffffffffffffffffffffffffffffff1602179055506020820151816001015560408201518160020155606082015181600301556080820151816004015550503373ffffffffffffffffffffffffffffffffffffffff167fb4caaf29adda3eefee3ad552a8e85058589bf834c7466cae4ee58787f70589ed83836001600260003373ffffffffffffffffffffffffffffffffffffffff1673ffffffffffffffffffffffffffffffffffffffff168152602001908152602001600020805490506109a79190611551565b6040516109b693929190611686565b60405180910390a25050565b60008060009054906101000a900473ffffffffffffffffffffffffffffffffffffffff16905090565b6109f3610db0565b8060038190555050565b7f000000000000000000000000000000000000000000000000000000000000000081565b60018181548110610a3157600080fd5b90600052602060002090600302016000915090508060000154908060010154908060020160009054906101000a900460ff16905083565b610a70610db0565b6001805490508410610ab7576040517f08c379a0000000000000000000000000000000000000000000000000000000008152600401610aae90611709565b60405180910390fd5b604051806060016040528084815260200183815260200182151581525060018581548110610ae857610ae761141d565b5b9060005260206000209060030201600082015181600001556020820151816001015560408201518160020160006101000a81548160ff02191690831515021790555090505050505050565b60026020528160005260406000208181548110610b4f57600080fd5b9060005260206000209060050201600091509150508060000160009054906101000a900473ffffffffffffffffffffffffffffffffffffffff16908060010154908060020154908060030154908060040154905085565b600080600260003373ffffffffffffffffffffffffffffffffffffffff1673ffffffffffffffffffffffffffffffffffffffff1681526020019081526020016000208381548110610bfa57610bf961141d565b5b9060005260206000209060050201905060006001826003015481548110610c2457610c2361141d565b5b906000526020600020906003020190506000826002015442610c469190611551565b9050600082600001549050600081612710610c6191906114af565b84600101548660010154610c7591906114af565b610c7f9190611520565b90508281610c8d91906114af565b9550846004015486610c9f9190611551565b95505050505050919050565b610cb3610db0565b600073ffffffffffffffffffffffffffffffffffffffff168173ffffffffffffffffffffffffffffffffffffffff1603610d255760006040517f1e4fbdf7000000000000000000000000000000000000000000000000000000008152600401610d1c91906110d0565b60405180910390fd5b610d2e81610e37565b50565b610dab838473ffffffffffffffffffffffffffffffffffffffff1663a9059cbb8585604051602401610d64929190611729565b604051602081830303815290604052915060e01b6020820180517bffffffffffffffffffffffffffffffffffffffffffffffffffffffff8381831617835250505050610f7d565b505050565b610db861101f565b73ffffffffffffffffffffffffffffffffffffffff16610dd66109c2565b73ffffffffffffffffffffffffffffffffffffffff1614610e3557610df961101f565b6040517f118cdaa7000000000000000000000000000000000000000000000000000000008152600401610e2c91906110d0565b60405180910390fd5b565b60008060009054906101000a900473ffffffffffffffffffffffffffffffffffffffff169050816000806101000a81548173ffffffffffffffffffffffffffffffffffffffff021916908373ffffffffffffffffffffffffffffffffffffffff1602179055508173ffffffffffffffffffffffffffffffffffffffff168173ffffffffffffffffffffffffffffffffffffffff167f8be0079c531659141344cd1fd0a4f28419497f9722a3daafe3b4186f6b6457e060405160405180910390a35050565b610f77848573ffffffffffffffffffffffffffffffffffffffff166323b872dd868686604051602401610f3093929190611752565b604051602081830303815290604052915060e01b6020820180517bffffffffffffffffffffffffffffffffffffffffffffffffffffffff8381831617835250505050610f7d565b50505050565b600080602060008451602086016000885af180610fa0576040513d6000823e3d81fd5b3d925060005191505060008214610fbb576001811415610fd7565b60008473ffffffffffffffffffffffffffffffffffffffff163b145b1561101957836040517f5274afe700000000000000000000000000000000000000000000000000000000815260040161101091906110d0565b60405180910390fd5b50505050565b600033905090565b600080fd5b6000819050919050565b61103f8161102c565b811461104a57600080fd5b50565b60008135905061105c81611036565b92915050565b60006020828403121561107857611077611027565b5b60006110868482850161104d565b91505092915050565b600073ffffffffffffffffffffffffffffffffffffffff82169050919050565b60006110ba8261108f565b9050919050565b6110ca816110af565b82525050565b60006020820190506110e560008301846110c1565b92915050565b6000806040838503121561110257611101611027565b5b60006111108582860161104d565b92505060206111218582860161104d565b9150509250929050565b6111348161102c565b82525050565b600060208201905061114f600083018461112b565b92915050565b6000819050919050565b600061117a6111756111708461108f565b611155565b61108f565b9050919050565b600061118c8261115f565b9050919050565b600061119e82611181565b9050919050565b6111ae81611193565b82525050565b60006020820190506111c960008301846111a5565b92915050565b60008115159050919050565b6111e4816111cf565b82525050565b60006060820190506111ff600083018661112b565b61120c602083018561112b565b61121960408301846111db565b949350505050565b61122a816111cf565b811461123557600080fd5b50565b60008135905061124781611221565b92915050565b6000806000806080858703121561126757611266611027565b5b60006112758782880161104d565b94505060206112868782880161104d565b93505060406112978782880161104d565b92505060606112a887828801611238565b91505092959194509250565b6112bd816110af565b81146112c857600080fd5b50565b6000813590506112da816112b4565b92915050565b600080604083850312156112f7576112f6611027565b5b6000611305858286016112cb565b92505060206113168582860161104d565b9150509250929050565b600060a08201905061133560008301886110c1565b611342602083018761112b565b61134f604083018661112b565b61135c606083018561112b565b611369608083018461112b565b9695505050505050565b60006020828403121561138957611388611027565b5b6000611397848285016112cb565b91505092915050565b600082825260208201905092915050565b7f5374616b696e673a204e6f207265776172647320746f20636c61696d00000000600082015250565b60006113e7601c836113a0565b91506113f2826113b1565b602082019050919050565b60006020820190508181036000830152611416816113da565b9050919050565b7f4e487b7100000000000000000000000000000000000000000000000000000000600052603260045260246000fd5b7f4e487b7100000000000000000000000000000000000000000000000000000000600052601160045260246000fd5b60006114868261102c565b91506114918361102c565b92508282019050808211156114a9576114a861144c565b5b92915050565b60006114ba8261102c565b91506114c58361102c565b92508282026114d38161102c565b915082820484148315176114ea576114e961144c565b5b5092915050565b7f4e487b7100000000000000000000000000000000000000000000000000000000600052601260045260246000fd5b600061152b8261102c565b91506115368361102c565b925082611546576115456114f1565b5b828204905092915050565b600061155c8261102c565b91506115678361102c565b925082820390508181111561157f5761157e61144c565b5b92915050565b600060408201905061159a600083018561112b565b6115a7602083018461112b565b9392505050565b7f5374616b696e673a20506c616e206e6f74206163746976650000000000000000600082015250565b60006115e46018836113a0565b91506115ef826115ae565b602082019050919050565b60006020820190508181036000830152611613816115d7565b9050919050565b7f5374616b696e673a205a65726f20616d6f756e74000000000000000000000000600082015250565b60006116506014836113a0565b915061165b8261161a565b602082019050919050565b6000602082019050818103600083015261167f81611643565b9050919050565b600060608201905061169b600083018661112b565b6116a8602083018561112b565b6116b5604083018461112b565b949350505050565b7f5374616b696e673a20496e76616c696420706c616e4964000000000000000000600082015250565b60006116f36017836113a0565b91506116fe826116bd565b602082019050919050565b60006020820190508181036000830152611722816116e6565b9050919050565b600060408201905061173e60008301856110c1565b61174b602083018461112b565b9392505050565b600060608201905061176760008301866110c1565b61177460208301856110c1565b611781604083018461112b565b94935050505056fea26469706673582212202d7a1a277cef1f61230ee99d0f9af9081bd627cbf8ae66f3192a7642f1b7359d64736f6c63430008180033",
  "linkReferences": {},
  "deployedLinkReferences": {}
}