{
  "_format": "hh-sol-artifact-1",
  "contractName": "WheelOfFortune",
  "sourceName": "contracts/WheelOfFortune.sol",
  "abi": [
    {
      "inputs": [
        {
          "internalType": "address",
          "name": "_lipt",
          "type": "address"
        }
      ],
      "stateMutability": "nonpayable",
      "type": "constructor"
    },
    {
      "inputs": [
        {
          "internalType": "address",
          "name": "owner",
          "type": "address"
        }
      ],
      "name": "OwnableInvalidOwner",
      "type": "error"
    },
    {
      "inputs": [
        {
          "internalType": "address",
          "name": "account",
          "type": "address"
        }
      ],
      "name": "OwnableUnauthorizedAccount",
      "type": "error"
    },
    {
      "inputs": [
        {
          "internalType": "address",
          "name": "token",
          "type": "address"
        }
      ],
      "name": "SafeERC20FailedOperation",
      "type": "error"
    },
    {
      "anonymous": false,
      "inputs": [
        {
          "indexed": true,
          "internalType": "address",
          "name": "user",
          "type": "address"
        },
        {
          "indexed": false,
          "internalType": "uint256",
          "name": "amount",
          "type": "uint256"
        }
      ],
      "name": "BetPlaced",
      "type": "event"
    },
    {
      "anonymous": false,
      "inputs": [
        {
          "indexed": false,
          "internalType": "uint256",
          "name": "amount",
          "type": "uint256"
        }
      ],
      "name": "HouseEdgeCollected",
      "type": "event"
    },
    {
      "anonymous": false,
      "inputs": [
        {
          "indexed": true,
          "internalType": "address",
          "name": "previousOwner",
          "type": "address"
        },
        {
          "indexed": true,
          "internalType": "address",
          "name": "newOwner",
          "type": "address"
        }
      ],
      "name": "OwnershipTransferred",
      "type": "event"
    },
    {
      "anonymous": false,
      "inputs": [
        {
          "indexed": true,
          "internalType": "address",
          "name": "user",
          "type": "address"
        },
        {
          "indexed": false,
          "internalType": "uint256",
          "name": "betAmount",
          "type": "uint256"
        },
        {
          "indexed": false,
          "internalType": "uint256",
          "name": "multiplier",
          "type": "uint256"
        },
        {
          "indexed": false,
          "internalType": "uint256",
          "name": "winnings",
          "type": "uint256"
        }
      ],
      "name": "WheelSpun",
      "type": "event"
    },
    {
      "anonymous": false,
      "inputs": [
        {
          "indexed": true,
          "internalType": "address",
          "name": "user",
          "type": "address"
        },
        {
          "indexed": false,
          "internalType": "uint256",
          "name": "amount",
          "type": "uint256"
        }
      ],
      "name": "WinningsPaid",
      "type": "event"
    },
    {
      "inputs": [],
      "name": "DEAD_ADDRESS",
      "outputs": [
        {
          "internalType": "address",
          "name": "",
          "type": "address"
        }
      ],
      "stateMutability": "view",
      "type": "function"
    },
    {
      "inputs": [],
      "name": "LIPT",
      "outputs": [
        {
          "internalType": "contract IERC20",
          "name": "",
          "type": "address"
        }
      ],
      "stateMutability": "view",
      "type": "function"
    },
    {
      "inputs": [],
      "name": "houseEdgeBasisPoints",
      "outputs": [
        {
          "internalType": "uint256",
          "name": "",
          "type": "uint256"
        }
      ],
      "stateMutability": "view",
      "type": "function"
    },
    {
      "inputs": [],
      "name": "owner",
      "outputs": [
        {
          "internalType": "address",
          "name": "",
          "type": "address"
        }
      ],
      "stateMutability": "view",
      "type": "function"
    },
    {
      "inputs": [],
      "name": "renounceOwnership",
      "outputs": [],
      "stateMutability": "nonpayable",
      "type": "function"
    },
    {
      "inputs": [
        {
          "internalType": "uint256",
          "name": "",
          "type": "uint256"
        }
      ],
      "name": "segments",
      "outputs": [
        {
          "internalType": "uint256",
          "name": "multiplier",
          "type": "uint256"
        },
        {
          "internalType": "uint256",
          "name": "weight",
          "type": "uint256"
        }
      ],
      "stateMutability": "view",
      "type": "function"
    },
    {
      "inputs": [
        {
          "internalType": "uint256",
          "name": "edgeBasisPoints",
          "type": "uint256"
        }
      ],
      "name": "setHouseEdge",
      "outputs": [],
      "stateMutability": "nonpayable",
      "type": "function"
    },
    {
      "inputs": [
        {
          "internalType": "address",
          "name": "_treasuryAddress",
          "type": "address"
        }
      ],
      "name": "setTreasuryAddress",
      "outputs": [],
      "stateMutability": "nonpayable",
      "type": "function"
    },
    {
      "inputs": [
        {
          "internalType": "uint256[]",
          "name": "multipliers",
          "type": "uint256[]"
        },
        {
          "internalType": "uint256[]",
          "name": "weights",
          "type": "uint256[]"
        }
      ],
      "name": "setWheelSegments",
      "outputs": [],
      "stateMutability": "nonpayable",
      "type": "function"
    },
    {
      "inputs": [
        {
          "internalType": "uint256",
          "name": "betAmount",
          "type": "uint256"
        }
      ],
      "name": "spinWheel",
      "outputs": [],
      "stateMutability": "nonpayable",
      "type": "function"
    },
    {
      "inputs": [],
      "name": "totalWeight",
      "outputs": [
        {
          "internalType": "uint256",
          "name": "",
          "type": "uint256"
        }
      ],
      "stateMutability": "view",
      "type": "function"
    },
    {
      "inputs": [
        {
          "internalType": "address",
          "name": "newOwner",
          "type": "address"
        }
      ],
      "name": "transferOwnership",
      "outputs": [],
      "stateMutability": "nonpayable",
      "type": "function"
    },
    {
      "inputs": [],
      "name": "treasuryAddress",
      "outputs": [
        {
          "internalType": "address",
          "name": "",
          "type": "address"
        }
      ],
      "stateMutability": "view",
      "type": "function"
    },
    {
      "inputs": [
        {
          "internalType": "uint256",
          "name": "",
          "type": "uint256"
        }
      ],
      "name": "vrfRequests",
      "outputs": [
        {
          "internalType": "address",
          "name": "",
          "type": "address"
        }
      ],
      "stateMutability": "view",
      "type": "function"
    }
  ],
  "bytecode": "0x60c060405261dead73ffffffffffffffffffffffffffffffffffffffff1660a09073ffffffffffffffffffffffffffffffffffffffff168152506101f46004553480156200004c57600080fd5b5060405162001b4d38038062001b4d833981810160405281019062000072919062000265565b8033600073ffffffffffffffffffffffffffffffffffffffff168173ffffffffffffffffffffffffffffffffffffffff1603620000e95760006040517f1e4fbdf7000000000000000000000000000000000000000000000000000000008152600401620000e09190620002a8565b60405180910390fd5b620000fa816200013760201b60201c565b508073ffffffffffffffffffffffffffffffffffffffff1660808173ffffffffffffffffffffffffffffffffffffffff16815250505050620002c5565b60008060009054906101000a900473ffffffffffffffffffffffffffffffffffffffff169050816000806101000a81548173ffffffffffffffffffffffffffffffffffffffff021916908373ffffffffffffffffffffffffffffffffffffffff1602179055508173ffffffffffffffffffffffffffffffffffffffff168173ffffffffffffffffffffffffffffffffffffffff167f8be0079c531659141344cd1fd0a4f28419497f9722a3daafe3b4186f6b6457e060405160405180910390a35050565b600080fd5b600073ffffffffffffffffffffffffffffffffffffffff82169050919050565b60006200022d8262000200565b9050919050565b6200023f8162000220565b81146200024b57600080fd5b50565b6000815190506200025f8162000234565b92915050565b6000602082840312156200027e576200027d620001fb565b5b60006200028e848285016200024e565b91505092915050565b620002a28162000220565b82525050565b6000602082019050620002bf600083018462000297565b92915050565b60805160a0516118386200031560003960008181610440015261097601526000818161057a01528181610856015281816109030152818161095501528181610b060152610e3401526118386000f3fe608060405234801561001057600080fd5b50600436106100ea5760003560e01c8063715018a61161008c578063981d21bb11610066578063981d21bb14610226578063a2d7c10614610244578063c5f956af14610260578063f2fde38b1461027e576100ea565b8063715018a6146101e05780638da5cb5b146101ea57806396c82e5714610208576100ea565b80634e6fd6c4116100c85780634e6fd6c41461016c57806364afa6761461018a5780636605bfda146101a85780636cd0f102146101c4576100ea565b80631a1d9252146100ef578063315606261461011f57806332c2ccf314610150575b600080fd5b61010960048036038101906101049190610fe3565b61029a565b6040516101169190611051565b60405180910390f35b61013960048036038101906101349190610fe3565b6102cd565b60405161014792919061107b565b60405180910390f35b61016a600480360381019061016591906111fd565b610301565b005b61017461043e565b6040516101819190611051565b60405180910390f35b610192610462565b60405161019f9190611275565b60405180910390f35b6101c260048036038101906101bd91906112bc565b610468565b005b6101de60048036038101906101d99190610fe3565b610523565b005b6101e8610535565b005b6101f2610549565b6040516101ff9190611051565b60405180910390f35b610210610572565b60405161021d9190611275565b60405180910390f35b61022e610578565b60405161023b9190611348565b60405180910390f35b61025e60048036038101906102599190610fe3565b61059c565b005b610268610616565b6040516102759190611051565b60405180910390f35b610298600480360381019061029391906112bc565b61063c565b005b60056020528060005260406000206000915054906101000a900473ffffffffffffffffffffffffffffffffffffffff1681565b600281815481106102dd57600080fd5b90600052602060002090600202016000915090508060000154908060010154905082565b6103096106c2565b805182511461034d576040517f08c379a0000000000000000000000000000000000000000000000000000000008152600401610344906113c0565b60405180910390fd5b6002600061035b9190610f4e565b600060038190555060005b8251811015610439576002604051806040016040528085848151811061038f5761038e6113e0565b5b602002602001015181526020018484815181106103af576103ae6113e0565b5b602002602001015181525090806001815401808255809150506001900390600052602060002090600202016000909190919091506000820151816000015560208201518160010155505081818151811061040c5761040b6113e0565b5b602002602001015160036000828254610425919061143e565b925050819055508080600101915050610366565b505050565b7f000000000000000000000000000000000000000000000000000000000000000081565b60045481565b6104706106c2565b600073ffffffffffffffffffffffffffffffffffffffff168173ffffffffffffffffffffffffffffffffffffffff16036104df576040517f08c379a00000000000000000000000000000000000000000000000000000000081526004016104d6906114be565b60405180910390fd5b80600160006101000a81548173ffffffffffffffffffffffffffffffffffffffff021916908373ffffffffffffffffffffffffffffffffffffffff16021790555050565b61052b6106c2565b8060048190555050565b61053d6106c2565b6105476000610749565b565b60008060009054906101000a900473ffffffffffffffffffffffffffffffffffffffff16905090565b60035481565b7f000000000000000000000000000000000000000000000000000000000000000081565b60006105aa8260045461080d565b90506000429050336005600083815260200190815260200160002060006101000a81548173ffffffffffffffffffffffffffffffffffffffff021916908373ffffffffffffffffffffffffffffffffffffffff1602179055506106118163075bcd15610a28565b505050565b600160009054906101000a900473ffffffffffffffffffffffffffffffffffffffff1681565b6106446106c2565b600073ffffffffffffffffffffffffffffffffffffffff168173ffffffffffffffffffffffffffffffffffffffff16036106b65760006040517f1e4fbdf70000000000000000000000000000000000000000000000000000000081526004016106ad9190611051565b60405180910390fd5b6106bf81610749565b50565b6106ca610c5f565b73ffffffffffffffffffffffffffffffffffffffff166106e8610549565b73ffffffffffffffffffffffffffffffffffffffff16146107475761070b610c5f565b6040517f118cdaa700000000000000000000000000000000000000000000000000000000815260040161073e9190611051565b60405180910390fd5b565b60008060009054906101000a900473ffffffffffffffffffffffffffffffffffffffff169050816000806101000a81548173ffffffffffffffffffffffffffffffffffffffff021916908373ffffffffffffffffffffffffffffffffffffffff1602179055508173ffffffffffffffffffffffffffffffffffffffff168173ffffffffffffffffffffffffffffffffffffffff167f8be0079c531659141344cd1fd0a4f28419497f9722a3daafe3b4186f6b6457e060405160405180910390a35050565b6000808311610851576040517f08c379a00000000000000000000000000000000000000000000000000000000081526004016108489061152a565b60405180910390fd5b61087d7f0000000000000000000000000000000000000000000000000000000000000000333086610c67565b6000612710838561088e919061154a565b61089891906115bb565b905080846108a691906115ec565b9150600073ffffffffffffffffffffffffffffffffffffffff16600160009054906101000a900473ffffffffffffffffffffffffffffffffffffffff1673ffffffffffffffffffffffffffffffffffffffff16146109505761094b7f0000000000000000000000000000000000000000000000000000000000000000600160009054906101000a900473ffffffffffffffffffffffffffffffffffffffff1683610ce9565b61099c565b61099b7f00000000000000000000000000000000000000000000000000000000000000007f000000000000000000000000000000000000000000000000000000000000000083610ce9565b5b3373ffffffffffffffffffffffffffffffffffffffff167f43e08d78302cdf9c94e1ffd293c2a3696139ee41cf3199b6f5eed9c7f6cc6090856040516109e29190611275565b60405180910390a27f83c04686a6b006cf4f4dc153a9e3f5f9d2d355d6d2d0e56b1f2f2c1408e6486981604051610a199190611275565b60405180910390a15092915050565b60006005600084815260200190815260200160002060009054906101000a900473ffffffffffffffffffffffffffffffffffffffff169050600073ffffffffffffffffffffffffffffffffffffffff168173ffffffffffffffffffffffffffffffffffffffff1603610acf576040517f08c379a0000000000000000000000000000000000000000000000000000000008152600401610ac69061166c565b60405180910390fd5b6000610ada83610d68565b9050600060028281548110610af257610af16113e0565b5b9060005260206000209060020201905060007f000000000000000000000000000000000000000000000000000000000000000073ffffffffffffffffffffffffffffffffffffffff166370a08231306040518263ffffffff1660e01b8152600401610b5d9190611051565b602060405180830381865afa158015610b7a573d6000803e3d6000fd5b505050506040513d601f19601f82011682018060405250810190610b9e91906116a1565b905060006064836000015483610bb4919061154a565b610bbe91906115bb565b9050610bca8582610dec565b8473ffffffffffffffffffffffffffffffffffffffff167f3d8509065db873d1ff2373327d11144df7531601812c1f26f06d84e4b688f66783856000015484604051610c18939291906116ce565b60405180910390a26005600088815260200190815260200160002060006101000a81549073ffffffffffffffffffffffffffffffffffffffff021916905550505050505050565b600033905090565b610ce3848573ffffffffffffffffffffffffffffffffffffffff166323b872dd868686604051602401610c9c93929190611705565b604051602081830303815290604052915060e01b6020820180517bffffffffffffffffffffffffffffffffffffffffffffffffffffffff8381831617835250505050610eac565b50505050565b610d63838473ffffffffffffffffffffffffffffffffffffffff1663a9059cbb8585604051602401610d1c92919061173c565b604051602081830303815290604052915060e01b6020820180517bffffffffffffffffffffffffffffffffffffffffffffffffffffffff8381831617835250505050610eac565b505050565b60008060035483610d799190611765565b90506000805b600280549050811015610ddf5760028181548110610da057610d9f6113e0565b5b90600052602060002090600202016001015482610dbd919061143e565b915081831015610dd257809350505050610de7565b8080600101915050610d7f565b506000925050505b919050565b60008111610e2f576040517f08c379a0000000000000000000000000000000000000000000000000000000008152600401610e26906117e2565b60405180910390fd5b610e5a7f00000000000000000000000000000000000000000000000000000000000000008383610ce9565b8173ffffffffffffffffffffffffffffffffffffffff167f478faca9a753c4ddb73661df251feef7ac07bfea4dd12660d21b4b80bc431cc182604051610ea09190611275565b60405180910390a25050565b600080602060008451602086016000885af180610ecf576040513d6000823e3d81fd5b3d925060005191505060008214610eea576001811415610f06565b60008473ffffffffffffffffffffffffffffffffffffffff163b145b15610f4857836040517f5274afe7000000000000000000000000000000000000000000000000000000008152600401610f3f9190611051565b60405180910390fd5b50505050565b5080546000825560020290600052602060002090810190610f6f9190610f72565b50565b5b80821115610f9557600080820160009055600182016000905550600201610f73565b5090565b6000604051905090565b600080fd5b600080fd5b6000819050919050565b610fc081610fad565b8114610fcb57600080fd5b50565b600081359050610fdd81610fb7565b92915050565b600060208284031215610ff957610ff8610fa3565b5b600061100784828501610fce565b91505092915050565b600073ffffffffffffffffffffffffffffffffffffffff82169050919050565b600061103b82611010565b9050919050565b61104b81611030565b82525050565b60006020820190506110666000830184611042565b92915050565b61107581610fad565b82525050565b6000604082019050611090600083018561106c565b61109d602083018461106c565b9392505050565b600080fd5b6000601f19601f8301169050919050565b7f4e487b7100000000000000000000000000000000000000000000000000000000600052604160045260246000fd5b6110f2826110a9565b810181811067ffffffffffffffff82111715611111576111106110ba565b5b80604052505050565b6000611124610f99565b905061113082826110e9565b919050565b600067ffffffffffffffff8211156111505761114f6110ba565b5b602082029050602081019050919050565b600080fd5b600061117961117484611135565b61111a565b9050808382526020820190506020840283018581111561119c5761119b611161565b5b835b818110156111c557806111b18882610fce565b84526020840193505060208101905061119e565b5050509392505050565b600082601f8301126111e4576111e36110a4565b5b81356111f4848260208601611166565b91505092915050565b6000806040838503121561121457611213610fa3565b5b600083013567ffffffffffffffff81111561123257611231610fa8565b5b61123e858286016111cf565b925050602083013567ffffffffffffffff81111561125f5761125e610fa8565b5b61126b858286016111cf565b9150509250929050565b600060208201905061128a600083018461106c565b92915050565b61129981611030565b81146112a457600080fd5b50565b6000813590506112b681611290565b92915050565b6000602082840312156112d2576112d1610fa3565b5b60006112e0848285016112a7565b91505092915050565b6000819050919050565b600061130e61130961130484611010565b6112e9565b611010565b9050919050565b6000611320826112f3565b9050919050565b600061133282611315565b9050919050565b61134281611327565b82525050565b600060208201905061135d6000830184611339565b92915050565b600082825260208201905092915050565b7f576865656c3a204172726179206c656e677468206d69736d6174636800000000600082015250565b60006113aa601c83611363565b91506113b582611374565b602082019050919050565b600060208201905081810360008301526113d98161139d565b9050919050565b7f4e487b7100000000000000000000000000000000000000000000000000000000600052603260045260246000fd5b7f4e487b7100000000000000000000000000000000000000000000000000000000600052601160045260246000fd5b600061144982610fad565b915061145483610fad565b925082820190508082111561146c5761146b61140f565b5b92915050565b7f47616d65426173653a205a65726f206164647265737300000000000000000000600082015250565b60006114a8601683611363565b91506114b382611472565b602082019050919050565b600060208201905081810360008301526114d78161149b565b9050919050565b7f47616d65426173653a205a65726f206265740000000000000000000000000000600082015250565b6000611514601283611363565b915061151f826114de565b602082019050919050565b6000602082019050818103600083015261154381611507565b9050919050565b600061155582610fad565b915061156083610fad565b925082820261156e81610fad565b915082820484148315176115855761158461140f565b5b5092915050565b7f4e487b7100000000000000000000000000000000000000000000000000000000600052601260045260246000fd5b60006115c682610fad565b91506115d183610fad565b9250826115e1576115e061158c565b5b828204905092915050565b60006115f782610fad565b915061160283610fad565b925082820390508181111561161a5761161961140f565b5b92915050565b7f576865656c3a20496e76616c6964207265717565737420494400000000000000600082015250565b6000611656601983611363565b915061166182611620565b602082019050919050565b6000602082019050818103600083015261168581611649565b9050919050565b60008151905061169b81610fb7565b92915050565b6000602082840312156116b7576116b6610fa3565b5b60006116c58482850161168c565b91505092915050565b60006060820190506116e3600083018661106c565b6116f0602083018561106c565b6116fd604083018461106c565b949350505050565b600060608201905061171a6000830186611042565b6117276020830185611042565b611734604083018461106c565b949350505050565b60006040820190506117516000830185611042565b61175e602083018461106c565b9392505050565b600061177082610fad565b915061177b83610fad565b92508261178b5761178a61158c565b5b828206905092915050565b7f47616d65426173653a205a65726f2077696e6e696e6773000000000000000000600082015250565b60006117cc601783611363565b91506117d782611796565b602082019050919050565b600060208201905081810360008301526117fb816117bf565b905091905056fea264697066735822122020f898170238cc3a516ff2940c3a0f5f74ae12d8d8fe84983d30d50d27119c2464736f6c63430008180033",
  "linkReferences": {},
  "deployedLinkReferences": {}
}