{"contracts/TaxHandler.sol":{"TaxHandler":{"abi":[{"inputs":[{"internalType":"address","name":"_lipt","type":"address"}],"stateMutability":"nonpayable","type":"constructor"},{"inputs":[{"internalType":"address","name":"owner","type":"address"}],"name":"OwnableInvalidOwner","type":"error"},{"inputs":[{"internalType":"address","name":"account","type":"address"}],"name":"OwnableUnauthorizedAccount","type":"error"},{"inputs":[{"internalType":"address","name":"token","type":"address"}],"name":"SafeERC20FailedOperation","type":"error"},{"anonymous":false,"inputs":[{"indexed":true,"internalType":"address","name":"previousOwner","type":"address"},{"indexed":true,"internalType":"address","name":"newOwner","type":"address"}],"name":"OwnershipTransferred","type":"event"},{"inputs":[],"name":"DEAD_ADDRESS","outputs":[{"internalType":"address","name":"","type":"address"}],"stateMutability":"view","type":"function"},{"inputs":[],"name":"LIPT","outputs":[{"internalType":"contract IERC20","name":"","type":"address"}],"stateMutability":"view","type":"function"},{"inputs":[],"name":"burnFee","outputs":[{"internalType":"uint256","name":"","type":"uint256"}],"stateMutability":"view","type":"function"},{"inputs":[],"name":"liquidityPoolAddress","outputs":[{"internalType":"address","name":"","type":"address"}],"stateMutability":"view","type":"function"},{"inputs":[],"name":"lpFee","outputs":[{"internalType":"uint256","name":"","type":"uint256"}],"stateMutability":"view","type":"function"},{"inputs":[],"name":"owner","outputs":[{"internalType":"address","name":"","type":"address"}],"stateMutability":"view","type":"function"},{"inputs":[],"name":"reflectionFee","outputs":[{"internalType":"uint256","name":"","type":"uint256"}],"stateMutability":"view","type":"function"},{"inputs":[],"name":"renounceOwnership","outputs":[],"stateMutability":"nonpayable","type":"function"},{"inputs":[{"internalType":"uint256","name":"_burnFee","type":"uint256"},{"internalType":"uint256","name":"_lpFee","type":"uint256"},{"internalType":"uint256","name":"_reflectionFee","type":"uint256"}],"name":"setFees","outputs":[],"stateMutability":"nonpayable","type":"function"},{"inputs":[{"internalType":"address","name":"_liquidityPoolAddress","type":"address"}],"name":"setLiquidityPoolAddress","outputs":[],"stateMutability":"nonpayable","type":"function"},{"inputs":[],"name":"totalFee","outputs":[{"internalType":"uint256","name":"","type":"uint256"}],"stateMutability":"view","type":"function"},{"inputs":[{"internalType":"address","name":"newOwner","type":"address"}],"name":"transferOwnership","outputs":[],"stateMutability":"nonpayable","type":"function"},{"inputs":[{"internalType":"address","name":"from","type":"address"},{"internalType":"address","name":"to","type":"address"},{"internalType":"uint256","name":"amount","type":"uint256"}],"name":"transferWithTax","outputs":[],"stateMutability":"nonpayable","type":"function"}],"evm":{"bytecode":{"linkReferences":{},"object":"60c060405261dead73ffffffffffffffffffffffffffffffffffffffff1660a09073ffffffffffffffffffffffffffffffffffffffff168152506064600155606460025560646003556003546002546001546200005d91906200025f565b6200006991906200025f565b6004553480156200007957600080fd5b50604051620011d9380380620011d983398181016040528101906200009f919062000304565b33600073ffffffffffffffffffffffffffffffffffffffff168173ffffffffffffffffffffffffffffffffffffffff1603620001155760006040517f1e4fbdf70000000000000000000000000000000000000000000000000000000081526004016200010c919062000347565b60405180910390fd5b62000126816200016260201b60201c565b508073ffffffffffffffffffffffffffffffffffffffff1660808173ffffffffffffffffffffffffffffffffffffffff16815250505062000364565b60008060009054906101000a900473ffffffffffffffffffffffffffffffffffffffff169050816000806101000a81548173ffffffffffffffffffffffffffffffffffffffff021916908373ffffffffffffffffffffffffffffffffffffffff1602179055508173ffffffffffffffffffffffffffffffffffffffff168173ffffffffffffffffffffffffffffffffffffffff167f8be0079c531659141344cd1fd0a4f28419497f9722a3daafe3b4186f6b6457e060405160405180910390a35050565b6000819050919050565b7f4e487b7100000000000000000000000000000000000000000000000000000000600052601160045260246000fd5b60006200026c8262000226565b9150620002798362000226565b925082820190508082111562000294576200029362000230565b5b92915050565b600080fd5b600073ffffffffffffffffffffffffffffffffffffffff82169050919050565b6000620002cc826200029f565b9050919050565b620002de81620002bf565b8114620002ea57600080fd5b50565b600081519050620002fe81620002d3565b92915050565b6000602082840312156200031d576200031c6200029a565b5b60006200032d84828501620002ed565b91505092915050565b6200034181620002bf565b82525050565b60006020820190506200035e600083018462000336565b92915050565b60805160a051610e33620003a660003960008181610246015261058801526000818161036e0152818161053a0152818161056601526106130152610e336000f3fe608060405234801561001057600080fd5b50600436106100cf5760003560e01c80638da5cb5b1161008c578063d25b17b611610066578063d25b17b6146101ca578063de1d708a146101e8578063f2fde38b14610204578063fce589d814610220576100cf565b80638da5cb5b14610172578063981d21bb14610190578063cec10c11146101ae576100cf565b80631df4ccfc146100d45780634e6fd6c4146100f257806363986aba14610110578063704ce43e1461012c578063715018a61461014a57806383ad799414610154575b600080fd5b6100dc61023e565b6040516100e99190610983565b60405180910390f35b6100fa610244565b60405161010791906109df565b60405180910390f35b61012a60048036038101906101259190610a2b565b610268565b005b610134610323565b6040516101419190610983565b60405180910390f35b610152610329565b005b61015c61033d565b6040516101699190610983565b60405180910390f35b61017a610343565b60405161018791906109df565b60405180910390f35b61019861036c565b6040516101a59190610ab7565b60405180910390f35b6101c860048036038101906101c39190610afe565b610390565b005b6101d26103d5565b6040516101df91906109df565b60405180910390f35b61020260048036038101906101fd9190610b51565b6103fb565b005b61021e60048036038101906102199190610a2b565b610667565b005b6102286106ed565b6040516102359190610983565b60405180910390f35b60045481565b7f000000000000000000000000000000000000000000000000000000000000000081565b6102706106f3565b600073ffffffffffffffffffffffffffffffffffffffff168173ffffffffffffffffffffffffffffffffffffffff16036102df576040517f08c379a00000000000000000000000000000000000000000000000000000000081526004016102d690610c01565b60405180910390fd5b80600560006101000a81548173ffffffffffffffffffffffffffffffffffffffff021916908373ffffffffffffffffffffffffffffffffffffffff16021790555050565b60025481565b6103316106f3565b61033b600061077a565b565b60035481565b60008060009054906101000a900473ffffffffffffffffffffffffffffffffffffffff16905090565b7f000000000000000000000000000000000000000000000000000000000000000081565b6103986106f3565b8260018190555081600281905550806003819055506003546002546001546103c09190610c50565b6103ca9190610c50565b600481905550505050565b600560009054906101000a900473ffffffffffffffffffffffffffffffffffffffff1681565b6000811161043e576040517f08c379a000000000000000000000000000000000000000000000000000000000815260040161043590610cd0565b60405180910390fd5b600073ffffffffffffffffffffffffffffffffffffffff168273ffffffffffffffffffffffffffffffffffffffff16036104ad576040517f08c379a00000000000000000000000000000000000000000000000000000000081526004016104a490610c01565b60405180910390fd5b6000612710600154836104c09190610cf0565b6104ca9190610d61565b90506000612710600254846104df9190610cf0565b6104e99190610d61565b90506000612710600354856104fe9190610cf0565b6105089190610d61565b905060008183856105199190610c50565b6105239190610c50565b9050600081866105339190610d92565b90506105617f000000000000000000000000000000000000000000000000000000000000000089898461083e565b6105b87f0000000000000000000000000000000000000000000000000000000000000000897f000000000000000000000000000000000000000000000000000000000000000086896105b39190610c50565b61083e565b600073ffffffffffffffffffffffffffffffffffffffff16600560009054906101000a900473ffffffffffffffffffffffffffffffffffffffff1673ffffffffffffffffffffffffffffffffffffffff161461065d5761065c7f000000000000000000000000000000000000000000000000000000000000000089600560009054906101000a900473ffffffffffffffffffffffffffffffffffffffff168761083e565b5b5050505050505050565b61066f6106f3565b600073ffffffffffffffffffffffffffffffffffffffff168173ffffffffffffffffffffffffffffffffffffffff16036106e15760006040517f1e4fbdf70000000000000000000000000000000000000000000000000000000081526004016106d891906109df565b60405180910390fd5b6106ea8161077a565b50565b60015481565b6106fb6108c0565b73ffffffffffffffffffffffffffffffffffffffff16610719610343565b73ffffffffffffffffffffffffffffffffffffffff16146107785761073c6108c0565b6040517f118cdaa700000000000000000000000000000000000000000000000000000000815260040161076f91906109df565b60405180910390fd5b565b60008060009054906101000a900473ffffffffffffffffffffffffffffffffffffffff169050816000806101000a81548173ffffffffffffffffffffffffffffffffffffffff021916908373ffffffffffffffffffffffffffffffffffffffff1602179055508173ffffffffffffffffffffffffffffffffffffffff168173ffffffffffffffffffffffffffffffffffffffff167f8be0079c531659141344cd1fd0a4f28419497f9722a3daafe3b4186f6b6457e060405160405180910390a35050565b6108ba848573ffffffffffffffffffffffffffffffffffffffff166323b872dd86868660405160240161087393929190610dc6565b604051602081830303815290604052915060e01b6020820180517bffffffffffffffffffffffffffffffffffffffffffffffffffffffff83818316178352505050506108c8565b50505050565b600033905090565b600080602060008451602086016000885af1806108eb576040513d6000823e3d81fd5b3d925060005191505060008214610906576001811415610922565b60008473ffffffffffffffffffffffffffffffffffffffff163b145b1561096457836040517f5274afe700000000000000000000000000000000000000000000000000000000815260040161095b91906109df565b60405180910390fd5b50505050565b6000819050919050565b61097d8161096a565b82525050565b60006020820190506109986000830184610974565b92915050565b600073ffffffffffffffffffffffffffffffffffffffff82169050919050565b60006109c98261099e565b9050919050565b6109d9816109be565b82525050565b60006020820190506109f460008301846109d0565b92915050565b600080fd5b610a08816109be565b8114610a1357600080fd5b50565b600081359050610a25816109ff565b92915050565b600060208284031215610a4157610a406109fa565b5b6000610a4f84828501610a16565b91505092915050565b6000819050919050565b6000610a7d610a78610a738461099e565b610a58565b61099e565b9050919050565b6000610a8f82610a62565b9050919050565b6000610aa182610a84565b9050919050565b610ab181610a96565b82525050565b6000602082019050610acc6000830184610aa8565b92915050565b610adb8161096a565b8114610ae657600080fd5b50565b600081359050610af881610ad2565b92915050565b600080600060608486031215610b1757610b166109fa565b5b6000610b2586828701610ae9565b9350506020610b3686828701610ae9565b9250506040610b4786828701610ae9565b9150509250925092565b600080600060608486031215610b6a57610b696109fa565b5b6000610b7886828701610a16565b9350506020610b8986828701610a16565b9250506040610b9a86828701610ae9565b9150509250925092565b600082825260208201905092915050565b7f54617848616e646c65723a205a65726f20616464726573730000000000000000600082015250565b6000610beb601883610ba4565b9150610bf682610bb5565b602082019050919050565b60006020820190508181036000830152610c1a81610bde565b9050919050565b7f4e487b7100000000000000000000000000000000000000000000000000000000600052601160045260246000fd5b6000610c5b8261096a565b9150610c668361096a565b9250828201905080821115610c7e57610c7d610c21565b5b92915050565b7f54617848616e646c65723a205a65726f20616d6f756e74000000000000000000600082015250565b6000610cba601783610ba4565b9150610cc582610c84565b602082019050919050565b60006020820190508181036000830152610ce981610cad565b9050919050565b6000610cfb8261096a565b9150610d068361096a565b9250828202610d148161096a565b91508282048414831517610d2b57610d2a610c21565b5b5092915050565b7f4e487b7100000000000000000000000000000000000000000000000000000000600052601260045260246000fd5b6000610d6c8261096a565b9150610d778361096a565b925082610d8757610d86610d32565b5b828204905092915050565b6000610d9d8261096a565b9150610da88361096a565b9250828203905081811115610dc057610dbf610c21565b5b92915050565b6000606082019050610ddb60008301866109d0565b610de860208301856109d0565b610df56040830184610974565b94935050505056fea264697066735822122052faf187778440b0a63cf4a266c6a2642847a705f30bc43d9b8acd54f821489f64736f6c63430008180033","opcodes":"PUSH1 0xC0 PUSH1 0x40 MSTORE PUSH2 0xDEAD PUSH20 0xFFFFFFFFFFFFFFFFFFFFFFFFFFFFFFFFFFFFFFFF AND PUSH1 0xA0 SWAP1 PUSH20 0xFFFFFFFFFFFFFFFFFFFFFFFFFFFFFFFFFFFFFFFF AND DUP2 MSTORE POP PUSH1 0x64 PUSH1 0x1 SSTORE PUSH1 0x64 PUSH1 0x2 SSTORE PUSH1 0x64 PUSH1 0x3 SSTORE PUSH1 0x3 SLOAD PUSH1 0x2 SLOAD PUSH1 0x1 SLOAD PUSH3 0x5D SWAP2 SWAP1 PUSH3 0x25F JUMP JUMPDEST PUSH3 0x69 SWAP2 SWAP1 PUSH3 0x25F JUMP JUMPDEST PUSH1 0x4 SSTORE CALLVALUE DUP1 ISZERO PUSH3 0x79 JUMPI PUSH1 0x0 DUP1 REVERT JUMPDEST POP PUSH1 0x40 MLOAD PUSH3 0x11D9 CODESIZE SUB DUP1 PUSH3 0x11D9 DUP4 CODECOPY DUP2 DUP2 ADD PUSH1 0x40 MSTORE DUP2 ADD SWAP1 PUSH3 0x9F SWAP2 SWAP1 PUSH3 0x304 JUMP JUMPDEST CALLER PUSH1 0x0 PUSH20 0xFFFFFFFFFFFFFFFFFFFFFFFFFFFFFFFFFFFFFFFF AND DUP2 PUSH20 0xFFFFFFFFFFFFFFFFFFFFFFFFFFFFFFFFFFFFFFFF AND SUB PUSH3 0x115 JUMPI PUSH1 0x0 PUSH1 0x40 MLOAD PUSH32 0x1E4FBDF700000000000000000000000000000000000000000000000000000000 DUP2 MSTORE PUSH1 0x4 ADD PUSH3 0x10C SWAP2 SWAP1 PUSH3 0x347 JUMP JUMPDEST PUSH1 0x40 MLOAD DUP1 SWAP2 SUB SWAP1 REVERT JUMPDEST PUSH3 0x126 DUP2 PUSH3 0x162 PUSH1 0x20 SHL PUSH1 0x20 SHR JUMP JUMPDEST POP DUP1 PUSH20 0xFFFFFFFFFFFFFFFFFFFFFFFFFFFFFFFFFFFFFFFF AND PUSH1 0x80 DUP2 PUSH20 0xFFFFFFFFFFFFFFFFFFFFFFFFFFFFFFFFFFFFFFFF AND DUP2 MSTORE POP POP POP PUSH3 0x364 JUMP JUMPDEST PUSH1 0x0 DUP1 PUSH1 0x0 SWAP1 SLOAD SWAP1 PUSH2 0x100 EXP SWAP1 DIV PUSH20 0xFFFFFFFFFFFFFFFFFFFFFFFFFFFFFFFFFFFFFFFF AND SWAP1 POP DUP2 PUSH1 0x0 DUP1 PUSH2 0x100 EXP DUP2 SLOAD DUP2 PUSH20 0xFFFFFFFFFFFFFFFFFFFFFFFFFFFFFFFFFFFFFFFF MUL NOT AND SWAP1 DUP4 PUSH20 0xFFFFFFFFFFFFFFFFFFFFFFFFFFFFFFFFFFFFFFFF AND MUL OR SWAP1 SSTORE POP DUP2 PUSH20 0xFFFFFFFFFFFFFFFFFFFFFFFFFFFFFFFFFFFFFFFF AND DUP2 PUSH20 0xFFFFFFFFFFFFFFFFFFFFFFFFFFFFFFFFFFFFFFFF AND PUSH32 0x8BE0079C531659141344CD1FD0A4F28419497F9722A3DAAFE3B4186F6B6457E0 PUSH1 0x40 MLOAD PUSH1 0x40 MLOAD DUP1 SWAP2 SUB SWAP1 LOG3 POP POP JUMP JUMPDEST PUSH1 0x0 DUP2 SWAP1 POP SWAP2 SWAP1 POP JUMP JUMPDEST PUSH32 0x4E487B7100000000000000000000000000000000000000000000000000000000 PUSH1 0x0 MSTORE PUSH1 0x11 PUSH1 0x4 MSTORE PUSH1 0x24 PUSH1 0x0 REVERT JUMPDEST PUSH1 0x0 PUSH3 0x26C DUP3 PUSH3 0x226 JUMP JUMPDEST SWAP2 POP PUSH3 0x279 DUP4 PUSH3 0x226 JUMP JUMPDEST SWAP3 POP DUP3 DUP3 ADD SWAP1 POP DUP1 DUP3 GT ISZERO PUSH3 0x294 JUMPI PUSH3 0x293 PUSH3 0x230 JUMP JUMPDEST JUMPDEST SWAP3 SWAP2 POP POP JUMP JUMPDEST PUSH1 0x0 DUP1 REVERT JUMPDEST PUSH1 0x0 PUSH20 0xFFFFFFFFFFFFFFFFFFFFFFFFFFFFFFFFFFFFFFFF DUP3 AND SWAP1 POP SWAP2 SWAP1 POP JUMP JUMPDEST PUSH1 0x0 PUSH3 0x2CC DUP3 PUSH3 0x29F JUMP JUMPDEST SWAP1 POP SWAP2 SWAP1 POP JUMP JUMPDEST PUSH3 0x2DE DUP2 PUSH3 0x2BF JUMP JUMPDEST DUP2 EQ PUSH3 0x2EA JUMPI PUSH1 0x0 DUP1 REVERT JUMPDEST POP JUMP JUMPDEST PUSH1 0x0 DUP2 MLOAD SWAP1 POP PUSH3 0x2FE DUP2 PUSH3 0x2D3 JUMP JUMPDEST SWAP3 SWAP2 POP POP JUMP JUMPDEST PUSH1 0x0 PUSH1 0x20 DUP3 DUP5 SUB SLT ISZERO PUSH3 0x31D JUMPI PUSH3 0x31C PUSH3 0x29A JUMP JUMPDEST JUMPDEST PUSH1 0x0 PUSH3 0x32D DUP5 DUP3 DUP6 ADD PUSH3 0x2ED JUMP JUMPDEST SWAP2 POP POP SWAP3 SWAP2 POP POP JUMP JUMPDEST PUSH3 0x341 DUP2 PUSH3 0x2BF JUMP JUMPDEST DUP3 MSTORE POP POP JUMP JUMPDEST PUSH1 0x0 PUSH1 0x20 DUP3 ADD SWAP1 POP PUSH3 0x35E PUSH1 0x0 DUP4 ADD DUP5 PUSH3 0x336 JUMP JUMPDEST SWAP3 SWAP2 POP POP JUMP JUMPDEST PUSH1 0x80 MLOAD PUSH1 0xA0 MLOAD PUSH2 0xE33 PUSH3 0x3A6 PUSH1 0x0 CODECOPY PUSH1 0x0 DUP2 DUP2 PUSH2 0x246 ADD MSTORE PUSH2 0x588 ADD MSTORE PUSH1 0x0 DUP2 DUP2 PUSH2 0x36E ADD MSTORE DUP2 DUP2 PUSH2 0x53A ADD MSTORE DUP2 DUP2 PUSH2 0x566 ADD MSTORE PUSH2 0x613 ADD MSTORE PUSH2 0xE33 PUSH1 0x0 RETURN INVALID PUSH1 0x80 PUSH1 0x40 MSTORE CALLVALUE DUP1 ISZERO PUSH2 0x10 JUMPI PUSH1 0x0 DUP1 REVERT JUMPDEST POP PUSH1 0x4 CALLDATASIZE LT PUSH2 0xCF JUMPI PUSH1 0x0 CALLDATALOAD PUSH1 0xE0 SHR DUP1 PUSH4 0x8DA5CB5B GT PUSH2 0x8C JUMPI DUP1 PUSH4 0xD25B17B6 GT PUSH2 0x66 JUMPI DUP1 PUSH4 0xD25B17B6 EQ PUSH2 0x1CA JUMPI DUP1 PUSH4 0xDE1D708A EQ PUSH2 0x1E8 JUMPI DUP1 PUSH4 0xF2FDE38B EQ PUSH2 0x204 JUMPI DUP1 PUSH4 0xFCE589D8 EQ PUSH2 0x220 JUMPI PUSH2 0xCF JUMP JUMPDEST DUP1 PUSH4 0x8DA5CB5B EQ PUSH2 0x172 JUMPI DUP1 PUSH4 0x981D21BB EQ PUSH2 0x190 JUMPI DUP1 PUSH4 0xCEC10C11 EQ PUSH2 0x1AE JUMPI PUSH2 0xCF JUMP JUMPDEST DUP1 PUSH4 0x1DF4CCFC EQ PUSH2 0xD4 JUMPI DUP1 PUSH4 0x4E6FD6C4 EQ PUSH2 0xF2 JUMPI DUP1 PUSH4 0x63986ABA EQ PUSH2 0x110 JUMPI DUP1 PUSH4 0x704CE43E EQ PUSH2 0x12C JUMPI DUP1 PUSH4 0x715018A6 EQ PUSH2 0x14A JUMPI DUP1 PUSH4 0x83AD7994 EQ PUSH2 0x154 JUMPI JUMPDEST PUSH1 0x0 DUP1 REVERT JUMPDEST PUSH2 0xDC PUSH2 0x23E JUMP JUMPDEST PUSH1 0x40 MLOAD PUSH2 0xE9 SWAP2 SWAP1 PUSH2 0x983 JUMP JUMPDEST PUSH1 0x40 MLOAD DUP1 SWAP2 SUB SWAP1 RETURN JUMPDEST PUSH2 0xFA PUSH2 0x244 JUMP JUMPDEST PUSH1 0x40 MLOAD PUSH2 0x107 SWAP2 SWAP1 PUSH2 0x9DF JUMP JUMPDEST PUSH1 0x40 MLOAD DUP1 SWAP2 SUB SWAP1 RETURN JUMPDEST PUSH2 0x12A PUSH1 0x4 DUP1 CALLDATASIZE SUB DUP2 ADD SWAP1 PUSH2 0x125 SWAP2 SWAP1 PUSH2 0xA2B JUMP JUMPDEST PUSH2 0x268 JUMP JUMPDEST STOP JUMPDEST PUSH2 0x134 PUSH2 0x323 JUMP JUMPDEST PUSH1 0x40 MLOAD PUSH2 0x141 SWAP2 SWAP1 PUSH2 0x983 JUMP JUMPDEST PUSH1 0x40 MLOAD DUP1 SWAP2 SUB SWAP1 RETURN JUMPDEST PUSH2 0x152 PUSH2 0x329 JUMP JUMPDEST STOP JUMPDEST PUSH2 0x15C PUSH2 0x33D JUMP JUMPDEST PUSH1 0x40 MLOAD PUSH2 0x169 SWAP2 SWAP1 PUSH2 0x983 JUMP JUMPDEST PUSH1 0x40 MLOAD DUP1 SWAP2 SUB SWAP1 RETURN JUMPDEST PUSH2 0x17A PUSH2 0x343 JUMP JUMPDEST PUSH1 0x40 MLOAD PUSH2 0x187 SWAP2 SWAP1 PUSH2 0x9DF JUMP JUMPDEST PUSH1 0x40 MLOAD DUP1 SWAP2 SUB SWAP1 RETURN JUMPDEST PUSH2 0x198 PUSH2 0x36C JUMP JUMPDEST PUSH1 0x40 MLOAD PUSH2 0x1A5 SWAP2 SWAP1 PUSH2 0xAB7 JUMP JUMPDEST PUSH1 0x40 MLOAD DUP1 SWAP2 SUB SWAP1 RETURN JUMPDEST PUSH2 0x1C8 PUSH1 0x4 DUP1 CALLDATASIZE SUB DUP2 ADD SWAP1 PUSH2 0x1C3 SWAP2 SWAP1 PUSH2 0xAFE JUMP JUMPDEST PUSH2 0x390 JUMP JUMPDEST STOP JUMPDEST PUSH2 0x1D2 PUSH2 0x3D5 JUMP JUMPDEST PUSH1 0x40 MLOAD PUSH2 0x1DF SWAP2 SWAP1 PUSH2 0x9DF JUMP JUMPDEST PUSH1 0x40 MLOAD DUP1 SWAP2 SUB SWAP1 RETURN JUMPDEST PUSH2 0x202 PUSH1 0x4 DUP1 CALLDATASIZE SUB DUP2 ADD SWAP1 PUSH2 0x1FD SWAP2 SWAP1 PUSH2 0xB51 JUMP JUMPDEST PUSH2 0x3FB JUMP JUMPDEST STOP JUMPDEST PUSH2 0x21E PUSH1 0x4 DUP1 CALLDATASIZE SUB DUP2 ADD SWAP1 PUSH2 0x219 SWAP2 SWAP1 PUSH2 0xA2B JUMP JUMPDEST PUSH2 0x667 JUMP JUMPDEST STOP JUMPDEST PUSH2 0x228 PUSH2 0x6ED JUMP JUMPDEST PUSH1 0x40 MLOAD PUSH2 0x235 SWAP2 SWAP1 PUSH2 0x983 JUMP JUMPDEST PUSH1 0x40 MLOAD DUP1 SWAP2 SUB SWAP1 RETURN JUMPDEST PUSH1 0x4 SLOAD DUP2 JUMP JUMPDEST PUSH32 0x0 DUP2 JUMP JUMPDEST PUSH2 0x270 PUSH2 0x6F3 JUMP JUMPDEST PUSH1 0x0 PUSH20 0xFFFFFFFFFFFFFFFFFFFFFFFFFFFFFFFFFFFFFFFF AND DUP2 PUSH20 0xFFFFFFFFFFFFFFFFFFFFFFFFFFFFFFFFFFFFFFFF AND SUB PUSH2 0x2DF JUMPI PUSH1 0x40 MLOAD PUSH32 0x8C379A000000000000000000000000000000000000000000000000000000000 DUP2 MSTORE PUSH1 0x4 ADD PUSH2 0x2D6 SWAP1 PUSH2 0xC01 JUMP JUMPDEST PUSH1 0x40 MLOAD DUP1 SWAP2 SUB SWAP1 REVERT JUMPDEST DUP1 PUSH1 0x5 PUSH1 0x0 PUSH2 0x100 EXP DUP2 SLOAD DUP2 PUSH20 0xFFFFFFFFFFFFFFFFFFFFFFFFFFFFFFFFFFFFFFFF MUL NOT AND SWAP1 DUP4 PUSH20 0xFFFFFFFFFFFFFFFFFFFFFFFFFFFFFFFFFFFFFFFF AND MUL OR SWAP1 SSTORE POP POP JUMP JUMPDEST PUSH1 0x2 SLOAD DUP2 JUMP JUMPDEST PUSH2 0x331 PUSH2 0x6F3 JUMP JUMPDEST PUSH2 0x33B PUSH1 0x0 PUSH2 0x77A JUMP JUMPDEST JUMP JUMPDEST PUSH1 0x3 SLOAD DUP2 JUMP JUMPDEST PUSH1 0x0 DUP1 PUSH1 0x0 SWAP1 SLOAD SWAP1 PUSH2 0x100 EXP SWAP1 DIV PUSH20 0xFFFFFFFFFFFFFFFFFFFFFFFFFFFFFFFFFFFFFFFF AND SWAP1 POP SWAP1 JUMP JUMPDEST PUSH32 0x0 DUP2 JUMP JUMPDEST PUSH2 0x398 PUSH2 0x6F3 JUMP JUMPDEST DUP3 PUSH1 0x1 DUP2 SWAP1 SSTORE POP DUP2 PUSH1 0x2 DUP2 SWAP1 SSTORE POP DUP1 PUSH1 0x3 DUP2 SWAP1 SSTORE POP PUSH1 0x3 SLOAD PUSH1 0x2 SLOAD PUSH1 0x1 SLOAD PUSH2 0x3C0 SWAP2 SWAP1 PUSH2 0xC50 JUMP JUMPDEST PUSH2 0x3CA SWAP2 SWAP1 PUSH2 0xC50 JUMP JUMPDEST PUSH1 0x4 DUP2 SWAP1 SSTORE POP POP POP POP JUMP JUMPDEST PUSH1 0x5 PUSH1 0x0 SWAP1 SLOAD SWAP1 PUSH2 0x100 EXP SWAP1 DIV PUSH20 0xFFFFFFFFFFFFFFFFFFFFFFFFFFFFFFFFFFFFFFFF AND DUP2 JUMP JUMPDEST PUSH1 0x0 DUP2 GT PUSH2 0x43E JUMPI PUSH1 0x40 MLOAD PUSH32 0x8C379A000000000000000000000000000000000000000000000000000000000 DUP2 MSTORE PUSH1 0x4 ADD PUSH2 0x435 SWAP1 PUSH2 0xCD0 JUMP JUMPDEST PUSH1 0x40 MLOAD DUP1 SWAP2 SUB SWAP1 REVERT JUMPDEST PUSH1 0x0 PUSH20 0xFFFFFFFFFFFFFFFFFFFFFFFFFFFFFFFFFFFFFFFF AND DUP3 PUSH20 0xFFFFFFFFFFFFFFFFFFFFFFFFFFFFFFFFFFFFFFFF AND SUB PUSH2 0x4AD JUMPI PUSH1 0x40 MLOAD PUSH32 0x8C379A000000000000000000000000000000000000000000000000000000000 DUP2 MSTORE PUSH1 0x4 ADD PUSH2 0x4A4 SWAP1 PUSH2 0xC01 JUMP JUMPDEST PUSH1 0x40 MLOAD DUP1 SWAP2 SUB SWAP1 REVERT JUMPDEST PUSH1 0x0 PUSH2 0x2710 PUSH1 0x1 SLOAD DUP4 PUSH2 0x4C0 SWAP2 SWAP1 PUSH2 0xCF0 JUMP JUMPDEST PUSH2 0x4CA SWAP2 SWAP1 PUSH2 0xD61 JUMP JUMPDEST SWAP1 POP PUSH1 0x0 PUSH2 0x2710 PUSH1 0x2 SLOAD DUP5 PUSH2 0x4DF SWAP2 SWAP1 PUSH2 0xCF0 JUMP JUMPDEST PUSH2 0x4E9 SWAP2 SWAP1 PUSH2 0xD61 JUMP JUMPDEST SWAP1 POP PUSH1 0x0 PUSH2 0x2710 PUSH1 0x3 SLOAD DUP6 PUSH2 0x4FE SWAP2 SWAP1 PUSH2 0xCF0 JUMP JUMPDEST PUSH2 0x508 SWAP2 SWAP1 PUSH2 0xD61 JUMP JUMPDEST SWAP1 POP PUSH1 0x0 DUP2 DUP4 DUP6 PUSH2 0x519 SWAP2 SWAP1 PUSH2 0xC50 JUMP JUMPDEST PUSH2 0x523 SWAP2 SWAP1 PUSH2 0xC50 JUMP JUMPDEST SWAP1 POP PUSH1 0x0 DUP2 DUP7 PUSH2 0x533 SWAP2 SWAP1 PUSH2 0xD92 JUMP JUMPDEST SWAP1 POP PUSH2 0x561 PUSH32 0x0 DUP10 DUP10 DUP5 PUSH2 0x83E JUMP JUMPDEST PUSH2 0x5B8 PUSH32 0x0 DUP10 PUSH32 0x0 DUP7 DUP10 PUSH2 0x5B3 SWAP2 SWAP1 PUSH2 0xC50 JUMP JUMPDEST PUSH2 0x83E JUMP JUMPDEST PUSH1 0x0 PUSH20 0xFFFFFFFFFFFFFFFFFFFFFFFFFFFFFFFFFFFFFFFF AND PUSH1 0x5 PUSH1 0x0 SWAP1 SLOAD SWAP1 PUSH2 0x100 EXP SWAP1 DIV PUSH20 0xFFFFFFFFFFFFFFFFFFFFFFFFFFFFFFFFFFFFFFFF AND PUSH20 0xFFFFFFFFFFFFFFFFFFFFFFFFFFFFFFFFFFFFFFFF AND EQ PUSH2 0x65D JUMPI PUSH2 0x65C PUSH32 0x0 DUP10 PUSH1 0x5 PUSH1 0x0 SWAP1 SLOAD SWAP1 PUSH2 0x100 EXP SWAP1 DIV PUSH20 0xFFFFFFFFFFFFFFFFFFFFFFFFFFFFFFFFFFFFFFFF AND DUP8 PUSH2 0x83E JUMP JUMPDEST JUMPDEST POP POP POP POP POP POP POP POP JUMP JUMPDEST PUSH2 0x66F PUSH2 0x6F3 JUMP JUMPDEST PUSH1 0x0 PUSH20 0xFFFFFFFFFFFFFFFFFFFFFFFFFFFFFFFFFFFFFFFF AND DUP2 PUSH20 0xFFFFFFFFFFFFFFFFFFFFFFFFFFFFFFFFFFFFFFFF AND SUB PUSH2 0x6E1 JUMPI PUSH1 0x0 PUSH1 0x40 MLOAD PUSH32 0x1E4FBDF700000000000000000000000000000000000000000000000000000000 DUP2 MSTORE PUSH1 0x4 ADD PUSH2 0x6D8 SWAP2 SWAP1 PUSH2 0x9DF JUMP JUMPDEST PUSH1 0x40 MLOAD DUP1 SWAP2 SUB SWAP1 REVERT JUMPDEST PUSH2 0x6EA DUP2 PUSH2 0x77A JUMP JUMPDEST POP JUMP JUMPDEST PUSH1 0x1 SLOAD DUP2 JUMP JUMPDEST PUSH2 0x6FB PUSH2 0x8C0 JUMP JUMPDEST PUSH20 0xFFFFFFFFFFFFFFFFFFFFFFFFFFFFFFFFFFFFFFFF AND PUSH2 0x719 PUSH2 0x343 JUMP JUMPDEST PUSH20 0xFFFFFFFFFFFFFFFFFFFFFFFFFFFFFFFFFFFFFFFF AND EQ PUSH2 0x778 JUMPI PUSH2 0x73C PUSH2 0x8C0 JUMP JUMPDEST PUSH1 0x40 MLOAD PUSH32 0x118CDAA700000000000000000000000000000000000000000000000000000000 DUP2 MSTORE PUSH1 0x4 ADD PUSH2 0x76F SWAP2 SWAP1 PUSH2 0x9DF JUMP JUMPDEST PUSH1 0x40 MLOAD DUP1 SWAP2 SUB SWAP1 REVERT JUMPDEST JUMP JUMPDEST PUSH1 0x0 DUP1 PUSH1 0x0 SWAP1 SLOAD SWAP1 PUSH2 0x100 EXP SWAP1 DIV PUSH20 0xFFFFFFFFFFFFFFFFFFFFFFFFFFFFFFFFFFFFFFFF AND SWAP1 POP DUP2 PUSH1 0x0 DUP1 PUSH2 0x100 EXP DUP2 SLOAD DUP2 PUSH20 0xFFFFFFFFFFFFFFFFFFFFFFFFFFFFFFFFFFFFFFFF MUL NOT AND SWAP1 DUP4 PUSH20 0xFFFFFFFFFFFFFFFFFFFFFFFFFFFFFFFFFFFFFFFF AND MUL OR SWAP1 SSTORE POP DUP2 PUSH20 0xFFFFFFFFFFFFFFFFFFFFFFFFFFFFFFFFFFFFFFFF AND DUP2 PUSH20 0xFFFFFFFFFFFFFFFFFFFFFFFFFFFFFFFFFFFFFFFF AND PUSH32 0x8BE0079C531659141344CD1FD0A4F28419497F9722A3DAAFE3B4186F6B6457E0 PUSH1 0x40 MLOAD PUSH1 0x40 MLOAD DUP1 SWAP2 SUB SWAP1 LOG3 POP POP JUMP JUMPDEST PUSH2 0x8BA DUP5 DUP6 PUSH20 0xFFFFFFFFFFFFFFFFFFFFFFFFFFFFFFFFFFFFFFFF AND PUSH4 0x23B872DD DUP7 DUP7 DUP7 PUSH1 0x40 MLOAD PUSH1 0x24 ADD PUSH2 0x873 SWAP4 SWAP3 SWAP2 SWAP1 PUSH2 0xDC6 JUMP JUMPDEST PUSH1 0x40 MLOAD PUSH1 0x20 DUP2 DUP4 SUB SUB DUP2 MSTORE SWAP1 PUSH1 0x40 MSTORE SWAP2 POP PUSH1 0xE0 SHL PUSH1 0x20 DUP3 ADD DUP1 MLOAD PUSH28 0xFFFFFFFFFFFFFFFFFFFFFFFFFFFFFFFFFFFFFFFFFFFFFFFFFFFFFFFF DUP4 DUP2 DUP4 AND OR DUP4 MSTORE POP POP POP POP PUSH2 0x8C8 JUMP JUMPDEST POP POP POP POP JUMP JUMPDEST PUSH1 0x0 CALLER SWAP1 POP SWAP1 JUMP JUMPDEST PUSH1 0x0 DUP1 PUSH1 0x20 PUSH1 0x0 DUP5 MLOAD PUSH1 0x20 DUP7 ADD PUSH1 0x0 DUP9 GAS CALL DUP1 PUSH2 0x8EB JUMPI PUSH1 0x40 MLOAD RETURNDATASIZE PUSH1 0x0 DUP3 RETURNDATACOPY RETURNDATASIZE DUP2 REVERT JUMPDEST RETURNDATASIZE SWAP3 POP PUSH1 0x0 MLOAD SWAP2 POP POP PUSH1 0x0 DUP3 EQ PUSH2 0x906 JUMPI PUSH1 0x1 DUP2 EQ ISZERO PUSH2 0x922 JUMP JUMPDEST PUSH1 0x0 DUP5 PUSH20 0xFFFFFFFFFFFFFFFFFFFFFFFFFFFFFFFFFFFFFFFF AND EXTCODESIZE EQ JUMPDEST ISZERO PUSH2 0x964 JUMPI DUP4 PUSH1 0x40 MLOAD PUSH32 0x5274AFE700000000000000000000000000000000000000000000000000000000 DUP2 MSTORE PUSH1 0x4 ADD PUSH2 0x95B SWAP2 SWAP1 PUSH2 0x9DF JUMP JUMPDEST PUSH1 0x40 MLOAD DUP1 SWAP2 SUB SWAP1 REVERT JUMPDEST POP POP POP POP JUMP JUMPDEST PUSH1 0x0 DUP2 SWAP1 POP SWAP2 SWAP1 POP JUMP JUMPDEST PUSH2 0x97D DUP2 PUSH2 0x96A JUMP JUMPDEST DUP3 MSTORE POP POP JUMP JUMPDEST PUSH1 0x0 PUSH1 0x20 DUP3 ADD SWAP1 POP PUSH2 0x998 PUSH1 0x0 DUP4 ADD DUP5 PUSH2 0x974 JUMP JUMPDEST SWAP3 SWAP2 POP POP JUMP JUMPDEST PUSH1 0x0 PUSH20 0xFFFFFFFFFFFFFFFFFFFFFFFFFFFFFFFFFFFFFFFF DUP3 AND SWAP1 POP SWAP2 SWAP1 POP JUMP JUMPDEST PUSH1 0x0 PUSH2 0x9C9 DUP3 PUSH2 0x99E JUMP JUMPDEST SWAP1 POP SWAP2 SWAP1 POP JUMP JUMPDEST PUSH2 0x9D9 DUP2 PUSH2 0x9BE JUMP JUMPDEST DUP3 MSTORE POP POP JUMP JUMPDEST PUSH1 0x0 PUSH1 0x20 DUP3 ADD SWAP1 POP PUSH2 0x9F4 PUSH1 0x0 DUP4 ADD DUP5 PUSH2 0x9D0 JUMP JUMPDEST SWAP3 SWAP2 POP POP JUMP JUMPDEST PUSH1 0x0 DUP1 REVERT JUMPDEST PUSH2 0xA08 DUP2 PUSH2 0x9BE JUMP JUMPDEST DUP2 EQ PUSH2 0xA13 JUMPI PUSH1 0x0 DUP1 REVERT JUMPDEST POP JUMP JUMPDEST PUSH1 0x0 DUP2 CALLDATALOAD SWAP1 POP PUSH2 0xA25 DUP2 PUSH2 0x9FF JUMP JUMPDEST SWAP3 SWAP2 POP POP JUMP JUMPDEST PUSH1 0x0 PUSH1 0x20 DUP3 DUP5 SUB SLT ISZERO PUSH2 0xA41 JUMPI PUSH2 0xA40 PUSH2 0x9FA JUMP JUMPDEST JUMPDEST PUSH1 0x0 PUSH2 0xA4F DUP5 DUP3 DUP6 ADD PUSH2 0xA16 JUMP JUMPDEST SWAP2 POP POP SWAP3 SWAP2 POP POP JUMP JUMPDEST PUSH1 0x0 DUP2 SWAP1 POP SWAP2 SWAP1 POP JUMP JUMPDEST PUSH1 0x0 PUSH2 0xA7D PUSH2 0xA78 PUSH2 0xA73 DUP5 PUSH2 0x99E JUMP JUMPDEST PUSH2 0xA58 JUMP JUMPDEST PUSH2 0x99E JUMP JUMPDEST SWAP1 POP SWAP2 SWAP1 POP JUMP JUMPDEST PUSH1 0x0 PUSH2 0xA8F DUP3 PUSH2 0xA62 JUMP JUMPDEST SWAP1 POP SWAP2 SWAP1 POP JUMP JUMPDEST PUSH1 0x0 PUSH2 0xAA1 DUP3 PUSH2 0xA84 JUMP JUMPDEST SWAP1 POP SWAP2 SWAP1 POP JUMP JUMPDEST PUSH2 0xAB1 DUP2 PUSH2 0xA96 JUMP JUMPDEST DUP3 MSTORE POP POP JUMP JUMPDEST PUSH1 0x0 PUSH1 0x20 DUP3 ADD SWAP1 POP PUSH2 0xACC PUSH1 0x0 DUP4 ADD DUP5 PUSH2 0xAA8 JUMP JUMPDEST SWAP3 SWAP2 POP POP JUMP JUMPDEST PUSH2 0xADB DUP2 PUSH2 0x96A JUMP JUMPDEST DUP2 EQ PUSH2 0xAE6 JUMPI PUSH1 0x0 DUP1 REVERT JUMPDEST POP JUMP JUMPDEST PUSH1 0x0 DUP2 CALLDATALOAD SWAP1 POP PUSH2 0xAF8 DUP2 PUSH2 0xAD2 JUMP JUMPDEST SWAP3 SWAP2 POP POP JUMP JUMPDEST PUSH1 0x0 DUP1 PUSH1 0x0 PUSH1 0x60 DUP5 DUP7 SUB SLT ISZERO PUSH2 0xB17 JUMPI PUSH2 0xB16 PUSH2 0x9FA JUMP JUMPDEST JUMPDEST PUSH1 0x0 PUSH2 0xB25 DUP7 DUP3 DUP8 ADD PUSH2 0xAE9 JUMP JUMPDEST SWAP4 POP POP PUSH1 0x20 PUSH2 0xB36 DUP7 DUP3 DUP8 ADD PUSH2 0xAE9 JUMP JUMPDEST SWAP3 POP POP PUSH1 0x40 PUSH2 0xB47 DUP7 DUP3 DUP8 ADD PUSH2 0xAE9 JUMP JUMPDEST SWAP2 POP POP SWAP3 POP SWAP3 POP SWAP3 JUMP JUMPDEST PUSH1 0x0 DUP1 PUSH1 0x0 PUSH1 0x60 DUP5 DUP7 SUB SLT ISZERO PUSH2 0xB6A JUMPI PUSH2 0xB69 PUSH2 0x9FA JUMP JUMPDEST JUMPDEST PUSH1 0x0 PUSH2 0xB78 DUP7 DUP3 DUP8 ADD PUSH2 0xA16 JUMP JUMPDEST SWAP4 POP POP PUSH1 0x20 PUSH2 0xB89 DUP7 DUP3 DUP8 ADD PUSH2 0xA16 JUMP JUMPDEST SWAP3 POP POP PUSH1 0x40 PUSH2 0xB9A DUP7 DUP3 DUP8 ADD PUSH2 0xAE9 JUMP JUMPDEST SWAP2 POP POP SWAP3 POP SWAP3 POP SWAP3 JUMP JUMPDEST PUSH1 0x0 DUP3 DUP3 MSTORE PUSH1 0x20 DUP3 ADD SWAP1 POP SWAP3 SWAP2 POP POP JUMP JUMPDEST PUSH32 0x54617848616E646C65723A205A65726F20616464726573730000000000000000 PUSH1 0x0 DUP3 ADD MSTORE POP JUMP JUMPDEST PUSH1 0x0 PUSH2 0xBEB PUSH1 0x18 DUP4 PUSH2 0xBA4 JUMP JUMPDEST SWAP2 POP PUSH2 0xBF6 DUP3 PUSH2 0xBB5 JUMP JUMPDEST PUSH1 0x20 DUP3 ADD SWAP1 POP SWAP2 SWAP1 POP JUMP JUMPDEST PUSH1 0x0 PUSH1 0x20 DUP3 ADD SWAP1 POP DUP2 DUP2 SUB PUSH1 0x0 DUP4 ADD MSTORE PUSH2 0xC1A DUP2 PUSH2 0xBDE JUMP JUMPDEST SWAP1 POP SWAP2 SWAP1 POP JUMP JUMPDEST PUSH32 0x4E487B7100000000000000000000000000000000000000000000000000000000 PUSH1 0x0 MSTORE PUSH1 0x11 PUSH1 0x4 MSTORE PUSH1 0x24 PUSH1 0x0 REVERT JUMPDEST PUSH1 0x0 PUSH2 0xC5B DUP3 PUSH2 0x96A JUMP JUMPDEST SWAP2 POP PUSH2 0xC66 DUP4 PUSH2 0x96A JUMP JUMPDEST SWAP3 POP DUP3 DUP3 ADD SWAP1 POP DUP1 DUP3 GT ISZERO PUSH2 0xC7E JUMPI PUSH2 0xC7D PUSH2 0xC21 JUMP JUMPDEST JUMPDEST SWAP3 SWAP2 POP POP JUMP JUMPDEST PUSH32 0x54617848616E646C65723A205A65726F20616D6F756E74000000000000000000 PUSH1 0x0 DUP3 ADD MSTORE POP JUMP JUMPDEST PUSH1 0x0 PUSH2 0xCBA PUSH1 0x17 DUP4 PUSH2 0xBA4 JUMP JUMPDEST SWAP2 POP PUSH2 0xCC5 DUP3 PUSH2 0xC84 JUMP JUMPDEST PUSH1 0x20 DUP3 ADD SWAP1 POP SWAP2 SWAP1 POP JUMP JUMPDEST PUSH1 0x0 PUSH1 0x20 DUP3 ADD SWAP1 POP DUP2 DUP2 SUB PUSH1 0x0 DUP4 ADD MSTORE PUSH2 0xCE9 DUP2 PUSH2 0xCAD JUMP JUMPDEST SWAP1 POP SWAP2 SWAP1 POP JUMP JUMPDEST PUSH1 0x0 PUSH2 0xCFB DUP3 PUSH2 0x96A JUMP JUMPDEST SWAP2 POP PUSH2 0xD06 DUP4 PUSH2 0x96A JUMP JUMPDEST SWAP3 POP DUP3 DUP3 MUL PUSH2 0xD14 DUP2 PUSH2 0x96A JUMP JUMPDEST SWAP2 POP DUP3 DUP3 DIV DUP5 EQ DUP4 ISZERO OR PUSH2 0xD2B JUMPI PUSH2 0xD2A PUSH2 0xC21 JUMP JUMPDEST JUMPDEST POP SWAP3 SWAP2 POP POP JUMP JUMPDEST PUSH32 0x4E487B7100000000000000000000000000000000000000000000000000000000 PUSH1 0x0 MSTORE PUSH1 0x12 PUSH1 0x4 MSTORE PUSH1 0x24 PUSH1 0x0 REVERT JUMPDEST PUSH1 0x0 PUSH2 0xD6C DUP3 PUSH2 0x96A JUMP JUMPDEST SWAP2 POP PUSH2 0xD77 DUP4 PUSH2 0x96A JUMP JUMPDEST SWAP3 POP DUP3 PUSH2 0xD87 JUMPI PUSH2 0xD86 PUSH2 0xD32 JUMP JUMPDEST JUMPDEST DUP3 DUP3 DIV SWAP1 POP SWAP3 SWAP2 POP POP JUMP JUMPDEST PUSH1 0x0 PUSH2 0xD9D DUP3 PUSH2 0x96A JUMP JUMPDEST SWAP2 POP PUSH2 0xDA8 DUP4 PUSH2 0x96A JUMP JUMPDEST SWAP3 POP DUP3 DUP3 SUB SWAP1 POP DUP2 DUP2 GT ISZERO PUSH2 0xDC0 JUMPI PUSH2 0xDBF PUSH2 0xC21 JUMP JUMPDEST JUMPDEST SWAP3 SWAP2 POP POP JUMP JUMPDEST PUSH1 0x0 PUSH1 0x60 DUP3 ADD SWAP1 POP PUSH2 0xDDB PUSH1 0x0 DUP4 ADD DUP7 PUSH2 0x9D0 JUMP JUMPDEST PUSH2 0xDE8 PUSH1 0x20 DUP4 ADD DUP6 PUSH2 0x9D0 JUMP JUMPDEST PUSH2 0xDF5 PUSH1 0x40 DUP4 ADD DUP5 PUSH2 0x974 JUMP JUMPDEST SWAP5 SWAP4 POP POP POP POP JUMP INVALID LOG2 PUSH5 0x6970667358 0x22 SLT KECCAK256 MSTORE STATICCALL CALL DUP8 PUSH24 0x8440B0A63CF4A266C6A2642847A705F30BC43D9B8ACD54F8 0x21 BASEFEE SWAP16 PUSH5 0x736F6C6343 STOP ADDMOD XOR STOP CALLER "},"methodIdentifiers":{"DEAD_ADDRESS()":"4e6fd6c4","LIPT()":"981d21bb","burnFee()":"fce589d8","liquidityPoolAddress()":"d25b17b6","lpFee()":"704ce43e","owner()":"8da5cb5b","reflectionFee()":"83ad7994","renounceOwnership()":"715018a6","setFees(uint256,uint256,uint256)":"cec10c11","setLiquidityPoolAddress(address)":"63986aba","totalFee()":"1df4ccfc","transferOwnership(address)":"f2fde38b","transferWithTax(address,address,uint256)":"de1d708a"}}}}}