{
  "_format": "hh-sol-artifact-1",
  "contractName": "TaxHandler",
  "sourceName": "contracts/TaxHandler.sol",
  "abi": [
    {
      "inputs": [
        {
          "internalType": "address",
          "name": "_lipt",
          "type": "address"
        }
      ],
      "stateMutability": "nonpayable",
      "type": "constructor"
    },
    {
      "inputs": [
        {
          "internalType": "address",
          "name": "owner",
          "type": "address"
        }
      ],
      "name": "OwnableInvalidOwner",
      "type": "error"
    },
    {
      "inputs": [
        {
          "internalType": "address",
          "name": "account",
          "type": "address"
        }
      ],
      "name": "OwnableUnauthorizedAccount",
      "type": "error"
    },
    {
      "inputs": [
        {
          "internalType": "address",
          "name": "token",
          "type": "address"
        }
      ],
      "name": "SafeERC20FailedOperation",
      "type": "error"
    },
    {
      "anonymous": false,
      "inputs": [
        {
          "indexed": true,
          "internalType": "address",
          "name": "previousOwner",
          "type": "address"
        },
        {
          "indexed": true,
          "internalType": "address",
          "name": "newOwner",
          "type": "address"
        }
      ],
      "name": "OwnershipTransferred",
      "type": "event"
    },
    {
      "inputs": [],
      "name": "DEAD_ADDRESS",
      "outputs": [
        {
          "internalType": "address",
          "name": "",
          "type": "address"
        }
      ],
      "stateMutability": "view",
      "type": "function"
    },
    {
      "inputs": [],
      "name": "LIPT",
      "outputs": [
        {
          "internalType": "contract IERC20",
          "name": "",
          "type": "address"
        }
      ],
      "stateMutability": "view",
      "type": "function"
    },
    {
      "inputs": [],
      "name": "burnFee",
      "outputs": [
        {
          "internalType": "uint256",
          "name": "",
          "type": "uint256"
        }
      ],
      "stateMutability": "view",
      "type": "function"
    },
    {
      "inputs": [],
      "name": "liquidityPoolAddress",
      "outputs": [
        {
          "internalType": "address",
          "name": "",
          "type": "address"
        }
      ],
      "stateMutability": "view",
      "type": "function"
    },
    {
      "inputs": [],
      "name": "lpFee",
      "outputs": [
        {
          "internalType": "uint256",
          "name": "",
          "type": "uint256"
        }
      ],
      "stateMutability": "view",
      "type": "function"
    },
    {
      "inputs": [],
      "name": "owner",
      "outputs": [
        {
          "internalType": "address",
          "name": "",
          "type": "address"
        }
      ],
      "stateMutability": "view",
      "type": "function"
    },
    {
      "inputs": [],
      "name": "reflectionFee",
      "outputs": [
        {
          "internalType": "uint256",
          "name": "",
          "type": "uint256"
        }
      ],
      "stateMutability": "view",
      "type": "function"
    },
    {
      "inputs": [],
      "name": "renounceOwnership",
      "outputs": [],
      "stateMutability": "nonpayable",
      "type": "function"
    },
    {
      "inputs": [
        {
          "internalType": "uint256",
          "name": "_burnFee",
          "type": "uint256"
        },
        {
          "internalType": "uint256",
          "name": "_lpFee",
          "type": "uint256"
        },
        {
          "internalType": "uint256",
          "name": "_reflectionFee",
          "type": "uint256"
        }
      ],
      "name": "setFees",
      "outputs": [],
      "stateMutability": "nonpayable",
      "type": "function"
    },
    {
      "inputs": [
        {
          "internalType": "address",
          "name": "_liquidityPoolAddress",
          "type": "address"
        }
      ],
      "name": "setLiquidityPoolAddress",
      "outputs": [],
      "stateMutability": "nonpayable",
      "type": "function"
    },
    {
      "inputs": [],
      "name": "totalFee",
      "outputs": [
        {
          "internalType": "uint256",
          "name": "",
          "type": "uint256"
        }
      ],
      "stateMutability": "view",
      "type": "function"
    },
    {
      "inputs": [
        {
          "internalType": "address",
          "name": "newOwner",
          "type": "address"
        }
      ],
      "name": "transferOwnership",
      "outputs": [],
      "stateMutability": "nonpayable",
      "type": "function"
    },
    {
      "inputs": [
        {
          "internalType": "address",
          "name": "from",
          "type": "address"
        },
        {
          "internalType": "address",
          "name": "to",
          "type": "address"
        },
        {
          "internalType": "uint256",
          "name": "amount",
          "type": "uint256"
        }
      ],
      "name": "transferWithTax",
      "outputs": [],
      "stateMutability": "nonpayable",
      "type": "function"
    }
  ],
  "bytecode": "0x60c060405261dead73ffffffffffffffffffffffffffffffffffffffff1660a09073ffffffffffffffffffffffffffffffffffffffff168152506064600155606460025560646003556003546002546001546200005d91906200025f565b6200006991906200025f565b6004553480156200007957600080fd5b50604051620011d9380380620011d983398181016040528101906200009f919062000304565b33600073ffffffffffffffffffffffffffffffffffffffff168173ffffffffffffffffffffffffffffffffffffffff1603620001155760006040517f1e4fbdf70000000000000000000000000000000000000000000000000000000081526004016200010c919062000347565b60405180910390fd5b62000126816200016260201b60201c565b508073ffffffffffffffffffffffffffffffffffffffff1660808173ffffffffffffffffffffffffffffffffffffffff16815250505062000364565b60008060009054906101000a900473ffffffffffffffffffffffffffffffffffffffff169050816000806101000a81548173ffffffffffffffffffffffffffffffffffffffff021916908373ffffffffffffffffffffffffffffffffffffffff1602179055508173ffffffffffffffffffffffffffffffffffffffff168173ffffffffffffffffffffffffffffffffffffffff167f8be0079c531659141344cd1fd0a4f28419497f9722a3daafe3b4186f6b6457e060405160405180910390a35050565b6000819050919050565b7f4e487b7100000000000000000000000000000000000000000000000000000000600052601160045260246000fd5b60006200026c8262000226565b9150620002798362000226565b925082820190508082111562000294576200029362000230565b5b92915050565b600080fd5b600073ffffffffffffffffffffffffffffffffffffffff82169050919050565b6000620002cc826200029f565b9050919050565b620002de81620002bf565b8114620002ea57600080fd5b50565b600081519050620002fe81620002d3565b92915050565b6000602082840312156200031d576200031c6200029a565b5b60006200032d84828501620002ed565b91505092915050565b6200034181620002bf565b82525050565b60006020820190506200035e600083018462000336565b92915050565b60805160a051610e33620003a660003960008181610246015261058801526000818161036e0152818161053a0152818161056601526106130152610e336000f3fe608060405234801561001057600080fd5b50600436106100cf5760003560e01c80638da5cb5b1161008c578063d25b17b611610066578063d25b17b6146101ca578063de1d708a146101e8578063f2fde38b14610204578063fce589d814610220576100cf565b80638da5cb5b14610172578063981d21bb14610190578063cec10c11146101ae576100cf565b80631df4ccfc146100d45780634e6fd6c4146100f257806363986aba14610110578063704ce43e1461012c578063715018a61461014a57806383ad799414610154575b600080fd5b6100dc61023e565b6040516100e99190610983565b60405180910390f35b6100fa610244565b60405161010791906109df565b60405180910390f35b61012a60048036038101906101259190610a2b565b610268565b005b610134610323565b6040516101419190610983565b60405180910390f35b610152610329565b005b61015c61033d565b6040516101699190610983565b60405180910390f35b61017a610343565b60405161018791906109df565b60405180910390f35b61019861036c565b6040516101a59190610ab7565b60405180910390f35b6101c860048036038101906101c39190610afe565b610390565b005b6101d26103d5565b6040516101df91906109df565b60405180910390f35b61020260048036038101906101fd9190610b51565b6103fb565b005b61021e60048036038101906102199190610a2b565b610667565b005b6102286106ed565b6040516102359190610983565b60405180910390f35b60045481565b7f000000000000000000000000000000000000000000000000000000000000000081565b6102706106f3565b600073ffffffffffffffffffffffffffffffffffffffff168173ffffffffffffffffffffffffffffffffffffffff16036102df576040517f08c379a00000000000000000000000000000000000000000000000000000000081526004016102d690610c01565b60405180910390fd5b80600560006101000a81548173ffffffffffffffffffffffffffffffffffffffff021916908373ffffffffffffffffffffffffffffffffffffffff16021790555050565b60025481565b6103316106f3565b61033b600061077a565b565b60035481565b60008060009054906101000a900473ffffffffffffffffffffffffffffffffffffffff16905090565b7f000000000000000000000000000000000000000000000000000000000000000081565b6103986106f3565b8260018190555081600281905550806003819055506003546002546001546103c09190610c50565b6103ca9190610c50565b600481905550505050565b600560009054906101000a900473ffffffffffffffffffffffffffffffffffffffff1681565b6000811161043e576040517f08c379a000000000000000000000000000000000000000000000000000000000815260040161043590610cd0565b60405180910390fd5b600073ffffffffffffffffffffffffffffffffffffffff168273ffffffffffffffffffffffffffffffffffffffff16036104ad576040517f08c379a00000000000000000000000000000000000000000000000000000000081526004016104a490610c01565b60405180910390fd5b6000612710600154836104c09190610cf0565b6104ca9190610d61565b90506000612710600254846104df9190610cf0565b6104e99190610d61565b90506000612710600354856104fe9190610cf0565b6105089190610d61565b905060008183856105199190610c50565b6105239190610c50565b9050600081866105339190610d92565b90506105617f000000000000000000000000000000000000000000000000000000000000000089898461083e565b6105b87f0000000000000000000000000000000000000000000000000000000000000000897f000000000000000000000000000000000000000000000000000000000000000086896105b39190610c50565b61083e565b600073ffffffffffffffffffffffffffffffffffffffff16600560009054906101000a900473ffffffffffffffffffffffffffffffffffffffff1673ffffffffffffffffffffffffffffffffffffffff161461065d5761065c7f000000000000000000000000000000000000000000000000000000000000000089600560009054906101000a900473ffffffffffffffffffffffffffffffffffffffff168761083e565b5b5050505050505050565b61066f6106f3565b600073ffffffffffffffffffffffffffffffffffffffff168173ffffffffffffffffffffffffffffffffffffffff16036106e15760006040517f1e4fbdf70000000000000000000000000000000000000000000000000000000081526004016106d891906109df565b60405180910390fd5b6106ea8161077a565b50565b60015481565b6106fb6108c0565b73ffffffffffffffffffffffffffffffffffffffff16610719610343565b73ffffffffffffffffffffffffffffffffffffffff16146107785761073c6108c0565b6040517f118cdaa700000000000000000000000000000000000000000000000000000000815260040161076f91906109df565b60405180910390fd5b565b60008060009054906101000a900473ffffffffffffffffffffffffffffffffffffffff169050816000806101000a81548173ffffffffffffffffffffffffffffffffffffffff021916908373ffffffffffffffffffffffffffffffffffffffff1602179055508173ffffffffffffffffffffffffffffffffffffffff168173ffffffffffffffffffffffffffffffffffffffff167f8be0079c531659141344cd1fd0a4f28419497f9722a3daafe3b4186f6b6457e060405160405180910390a35050565b6108ba848573ffffffffffffffffffffffffffffffffffffffff166323b872dd86868660405160240161087393929190610dc6565b604051602081830303815290604052915060e01b6020820180517bffffffffffffffffffffffffffffffffffffffffffffffffffffffff83818316178352505050506108c8565b50505050565b600033905090565b600080602060008451602086016000885af1806108eb576040513d6000823e3d81fd5b3d925060005191505060008214610906576001811415610922565b60008473ffffffffffffffffffffffffffffffffffffffff163b145b1561096457836040517f5274afe700000000000000000000000000000000000000000000000000000000815260040161095b91906109df565b60405180910390fd5b50505050565b6000819050919050565b61097d8161096a565b82525050565b60006020820190506109986000830184610974565b92915050565b600073ffffffffffffffffffffffffffffffffffffffff82169050919050565b60006109c98261099e565b9050919050565b6109d9816109be565b82525050565b60006020820190506109f460008301846109d0565b92915050565b600080fd5b610a08816109be565b8114610a1357600080fd5b50565b600081359050610a25816109ff565b92915050565b600060208284031215610a4157610a406109fa565b5b6000610a4f84828501610a16565b91505092915050565b6000819050919050565b6000610a7d610a78610a738461099e565b610a58565b61099e565b9050919050565b6000610a8f82610a62565b9050919050565b6000610aa182610a84565b9050919050565b610ab181610a96565b82525050565b6000602082019050610acc6000830184610aa8565b92915050565b610adb8161096a565b8114610ae657600080fd5b50565b600081359050610af881610ad2565b92915050565b600080600060608486031215610b1757610b166109fa565b5b6000610b2586828701610ae9565b9350506020610b3686828701610ae9565b9250506040610b4786828701610ae9565b9150509250925092565b600080600060608486031215610b6a57610b696109fa565b5b6000610b7886828701610a16565b9350506020610b8986828701610a16565b9250506040610b9a86828701610ae9565b9150509250925092565b600082825260208201905092915050565b7f54617848616e646c65723a205a65726f20616464726573730000000000000000600082015250565b6000610beb601883610ba4565b9150610bf682610bb5565b602082019050919050565b60006020820190508181036000830152610c1a81610bde565b9050919050565b7f4e487b7100000000000000000000000000000000000000000000000000000000600052601160045260246000fd5b6000610c5b8261096a565b9150610c668361096a565b9250828201905080821115610c7e57610c7d610c21565b5b92915050565b7f54617848616e646c65723a205a65726f20616d6f756e74000000000000000000600082015250565b6000610cba601783610ba4565b9150610cc582610c84565b602082019050919050565b60006020820190508181036000830152610ce981610cad565b9050919050565b6000610cfb8261096a565b9150610d068361096a565b9250828202610d148161096a565b91508282048414831517610d2b57610d2a610c21565b5b5092915050565b7f4e487b7100000000000000000000000000000000000000000000000000000000600052601260045260246000fd5b6000610d6c8261096a565b9150610d778361096a565b925082610d8757610d86610d32565b5b828204905092915050565b6000610d9d8261096a565b9150610da88361096a565b9250828203905081811115610dc057610dbf610c21565b5b92915050565b6000606082019050610ddb60008301866109d0565b610de860208301856109d0565b610df56040830184610974565b94935050505056fea2646970667358221220c38120e58b74b2dc838c52ef5a879898354d147a98836e1d66755ee3fac47b2264736f6c63430008180033",
  "linkReferences": {},
  "deployedLinkReferences": {}
}