{
  "_format": "hh-sol-artifact-1",
  "contractName": "StakingPool",
  "sourceName": "contracts/StakingPool.sol",
  "abi": [
    {
      "inputs": [
        {
          "internalType": "address",
          "name": "_lipt",
          "type": "address"
        }
      ],
      "stateMutability": "nonpayable",
      "type": "constructor"
    },
    {
      "inputs": [
        {
          "internalType": "address",
          "name": "owner",
          "type": "address"
        }
      ],
      "name": "OwnableInvalidOwner",
      "type": "error"
    },
    {
      "inputs": [
        {
          "internalType": "address",
          "name": "account",
          "type": "address"
        }
      ],
      "name": "OwnableUnauthorizedAccount",
      "type": "error"
    },
    {
      "inputs": [
        {
          "internalType": "address",
          "name": "token",
          "type": "address"
        }
      ],
      "name": "SafeERC20FailedOperation",
      "type": "error"
    },
    {
      "anonymous": false,
      "inputs": [
        {
          "indexed": true,
          "internalType": "address",
          "name": "previousOwner",
          "type": "address"
        },
        {
          "indexed": true,
          "internalType": "address",
          "name": "newOwner",
          "type": "address"
        }
      ],
      "name": "OwnershipTransferred",
      "type": "event"
    },
    {
      "anonymous": false,
      "inputs": [
        {
          "indexed": true,
          "internalType": "address",
          "name": "user",
          "type": "address"
        },
        {
          "indexed": false,
          "internalType": "uint256",
          "name": "amount",
          "type": "uint256"
        }
      ],
      "name": "RewardsClaimed",
      "type": "event"
    },
    {
      "anonymous": false,
      "inputs": [
        {
          "indexed": true,
          "internalType": "address",
          "name": "user",
          "type": "address"
        },
        {
          "indexed": false,
          "internalType": "uint256",
          "name": "amount",
          "type": "uint256"
        },
        {
          "indexed": false,
          "internalType": "uint256",
          "name": "planId",
          "type": "uint256"
        },
        {
          "indexed": false,
          "internalType": "uint256",
          "name": "stakeId",
          "type": "uint256"
        }
      ],
      "name": "Staked",
      "type": "event"
    },
    {
      "anonymous": false,
      "inputs": [
        {
          "indexed": true,
          "internalType": "address",
          "name": "user",
          "type": "address"
        },
        {
          "indexed": false,
          "internalType": "uint256",
          "name": "amount",
          "type": "uint256"
        },
        {
          "indexed": false,
          "internalType": "uint256",
          "name": "penalty",
          "type": "uint256"
        }
      ],
      "name": "Unstaked",
      "type": "event"
    },
    {
      "inputs": [],
      "name": "DEAD_ADDRESS",
      "outputs": [
        {
          "internalType": "address",
          "name": "",
          "type": "address"
        }
      ],
      "stateMutability": "view",
      "type": "function"
    },
    {
      "inputs": [],
      "name": "LIPT",
      "outputs": [
        {
          "internalType": "contract IERC20",
          "name": "",
          "type": "address"
        }
      ],
      "stateMutability": "view",
      "type": "function"
    },
    {
      "inputs": [
        {
          "internalType": "uint256",
          "name": "_duration",
          "type": "uint256"
        },
        {
          "internalType": "uint256",
          "name": "_apy",
          "type": "uint256"
        }
      ],
      "name": "addStakingPlan",
      "outputs": [],
      "stateMutability": "nonpayable",
      "type": "function"
    },
    {
      "inputs": [
        {
          "internalType": "uint256",
          "name": "stakeId",
          "type": "uint256"
        }
      ],
      "name": "calculateRewards",
      "outputs": [
        {
          "internalType": "uint256",
          "name": "rewards",
          "type": "uint256"
        }
      ],
      "stateMutability": "view",
      "type": "function"
    },
    {
      "inputs": [
        {
          "internalType": "uint256",
          "name": "stakeId",
          "type": "uint256"
        }
      ],
      "name": "claimRewards",
      "outputs": [],
      "stateMutability": "nonpayable",
      "type": "function"
    },
    {
      "inputs": [],
      "name": "earlyUnstakePenaltyBasisPoints",
      "outputs": [
        {
          "internalType": "uint256",
          "name": "",
          "type": "uint256"
        }
      ],
      "stateMutability": "view",
      "type": "function"
    },
    {
      "inputs": [],
      "name": "getStakingPlans",
      "outputs": [
        {
          "components": [
            {
              "internalType": "uint256",
              "name": "duration",
              "type": "uint256"
            },
            {
              "internalType": "uint256",
              "name": "apy",
              "type": "uint256"
            },
            {
              "internalType": "bool",
              "name": "active",
              "type": "bool"
            }
          ],
          "internalType": "struct StakingPool.StakingPlan[]",
          "name": "",
          "type": "tuple[]"
        }
      ],
      "stateMutability": "view",
      "type": "function"
    },
    {
      "inputs": [
        {
          "internalType": "address",
          "name": "user",
          "type": "address"
        }
      ],
      "name": "getUnclaimedRewards",
      "outputs": [
        {
          "internalType": "uint256[]",
          "name": "rewards",
          "type": "uint256[]"
        }
      ],
      "stateMutability": "view",
      "type": "function"
    },
    {
      "inputs": [
        {
          "internalType": "address",
          "name": "user",
          "type": "address"
        }
      ],
      "name": "getUserStakes",
      "outputs": [
        {
          "components": [
            {
              "internalType": "address",
              "name": "user",
              "type": "address"
            },
            {
              "internalType": "uint256",
              "name": "amount",
              "type": "uint256"
            },
            {
              "internalType": "uint256",
              "name": "startDate",
              "type": "uint256"
            },
            {
              "internalType": "uint256",
              "name": "planId",
              "type": "uint256"
            },
            {
              "internalType": "uint256",
              "name": "rewardsClaimed",
              "type": "uint256"
            }
          ],
          "internalType": "struct StakingPool.Stake[]",
          "name": "",
          "type": "tuple[]"
        }
      ],
      "stateMutability": "view",
      "type": "function"
    },
    {
      "inputs": [
        {
          "internalType": "uint256",
          "name": "planId",
          "type": "uint256"
        },
        {
          "internalType": "uint256",
          "name": "_duration",
          "type": "uint256"
        },
        {
          "internalType": "uint256",
          "name": "_apy",
          "type": "uint256"
        },
        {
          "internalType": "bool",
          "name": "_active",
          "type": "bool"
        }
      ],
      "name": "modifyStakingPlan",
      "outputs": [],
      "stateMutability": "nonpayable",
      "type": "function"
    },
    {
      "inputs": [],
      "name": "owner",
      "outputs": [
        {
          "internalType": "address",
          "name": "",
          "type": "address"
        }
      ],
      "stateMutability": "view",
      "type": "function"
    },
    {
      "inputs": [
        {
          "internalType": "uint256",
          "name": "",
          "type": "uint256"
        }
      ],
      "name": "plans",
      "outputs": [
        {
          "internalType": "uint256",
          "name": "duration",
          "type": "uint256"
        },
        {
          "internalType": "uint256",
          "name": "apy",
          "type": "uint256"
        },
        {
          "internalType": "bool",
          "name": "active",
          "type": "bool"
        }
      ],
      "stateMutability": "view",
      "type": "function"
    },
    {
      "inputs": [],
      "name": "renounceOwnership",
      "outputs": [],
      "stateMutability": "nonpayable",
      "type": "function"
    },
    {
      "inputs": [
        {
          "internalType": "uint256",
          "name": "penaltyBasisPoints",
          "type": "uint256"
        }
      ],
      "name": "setEarlyUnstakePenalty",
      "outputs": [],
      "stateMutability": "nonpayable",
      "type": "function"
    },
    {
      "inputs": [
        {
          "internalType": "uint256",
          "name": "amount",
          "type": "uint256"
        },
        {
          "internalType": "uint256",
          "name": "planId",
          "type": "uint256"
        }
      ],
      "name": "stake",
      "outputs": [],
      "stateMutability": "nonpayable",
      "type": "function"
    },
    {
      "inputs": [
        {
          "internalType": "address",
          "name": "newOwner",
          "type": "address"
        }
      ],
      "name": "transferOwnership",
      "outputs": [],
      "stateMutability": "nonpayable",
      "type": "function"
    },
    {
      "inputs": [
        {
          "internalType": "uint256",
          "name": "stakeId",
          "type": "uint256"
        }
      ],
      "name": "unstake",
      "outputs": [],
      "stateMutability": "nonpayable",
      "type": "function"
    },
    {
      "inputs": [
        {
          "internalType": "address",
          "name": "",
          "type": "address"
        },
        {
          "internalType": "uint256",
          "name": "",
          "type": "uint256"
        }
      ],
      "name": "userStakes",
      "outputs": [
        {
          "internalType": "address",
          "name": "user",
          "type": "address"
        },
        {
          "internalType": "uint256",
          "name": "amount",
          "type": "uint256"
        },
        {
          "internalType": "uint256",
          "name": "startDate",
          "type": "uint256"
        },
        {
          "internalType": "uint256",
          "name": "planId",
          "type": "uint256"
        },
        {
          "internalType": "uint256",
          "name": "rewardsClaimed",
          "type": "uint256"
        }
      ],
      "stateMutability": "view",
      "type": "function"
    }
  ],
  "bytecode": "0x60c060405261dead73ffffffffffffffffffffffffffffffffffffffff1660809073ffffffffffffffffffffffffffffffffffffffff168152506103e86003553480156200004c57600080fd5b506040516200223138038062002231833981810160405281019062000072919062000263565b33600073ffffffffffffffffffffffffffffffffffffffff168173ffffffffffffffffffffffffffffffffffffffff1603620000e85760006040517f1e4fbdf7000000000000000000000000000000000000000000000000000000008152600401620000df9190620002a6565b60405180910390fd5b620000f9816200013560201b60201c565b508073ffffffffffffffffffffffffffffffffffffffff1660a08173ffffffffffffffffffffffffffffffffffffffff168152505050620002c3565b60008060009054906101000a900473ffffffffffffffffffffffffffffffffffffffff169050816000806101000a81548173ffffffffffffffffffffffffffffffffffffffff021916908373ffffffffffffffffffffffffffffffffffffffff1602179055508173ffffffffffffffffffffffffffffffffffffffff168173ffffffffffffffffffffffffffffffffffffffff167f8be0079c531659141344cd1fd0a4f28419497f9722a3daafe3b4186f6b6457e060405160405180910390a35050565b600080fd5b600073ffffffffffffffffffffffffffffffffffffffff82169050919050565b60006200022b82620001fe565b9050919050565b6200023d816200021e565b81146200024957600080fd5b50565b6000815190506200025d8162000232565b92915050565b6000602082840312156200027c576200027b620001f9565b5b60006200028c848285016200024c565b91505092915050565b620002a0816200021e565b82525050565b6000602082019050620002bd600083018462000295565b92915050565b60805160a051611f256200030c60003960008181610446015281816105c20152818161062d01528181610a130152610d6c01526000818161060b015261076c0152611f256000f3fe608060405234801561001057600080fd5b50600436106101165760003560e01c8063842e2981116100a2578063b162061611610071578063b1620616146102a7578063b37c7e56146102d9578063b5d5b5fa146102f5578063d3ea435014610329578063f2fde38b1461035957610116565b8063842e29811461021f5780638da5cb5b1461024f5780638e1eb3241461026d578063981d21bb1461028957610116565b80635ef23fa9116100e95780635ef23fa91461018f57806364f95e5f146101ab57806369a69e29146101c9578063715018a6146101f95780637b0472f01461020357610116565b80630962ef791461011b5780632e17de78146101375780633bb2c773146101535780634e6fd6c414610171575b600080fd5b610135600480360381019061013091906113e3565b610375565b005b610151600480360381019061014c91906113e3565b6104dc565b005b61015b6106dc565b604051610168919061152b565b60405180910390f35b61017961076a565b604051610186919061158e565b60405180910390f35b6101a960048036038101906101a491906115a9565b61078e565b005b6101b3610819565b6040516101c091906115f8565b60405180910390f35b6101e360048036038101906101de919061163f565b61081f565b6040516101f0919061171b565b60405180910390f35b6102016108fb565b005b61021d600480360381019061021891906115a9565b61090f565b005b6102396004803603810190610234919061163f565b610c13565b6040516102469190611863565b60405180910390f35b610257610d2f565b604051610264919061158e565b60405180910390f35b610287600480360381019061028291906113e3565b610d58565b005b610291610d6a565b60405161029e91906118e4565b60405180910390f35b6102c160048036038101906102bc91906113e3565b610d8e565b6040516102d09392919061190e565b60405180910390f35b6102f360048036038101906102ee9190611971565b610dd5565b005b61030f600480360381019061030a91906119d8565b610ea0565b604051610320959493929190611a18565b60405180910390f35b610343600480360381019061033e91906113e3565b610f13565b60405161035091906115f8565b60405180910390f35b610373600480360381019061036e919061163f565b610f26565b005b60006103813383610fac565b9050600081116103c6576040517f08c379a00000000000000000000000000000000000000000000000000000000081526004016103bd90611ac8565b60405180910390fd5b80600260003373ffffffffffffffffffffffffffffffffffffffff1673ffffffffffffffffffffffffffffffffffffffff168152602001908152602001600020838154811061041857610417611ae8565b5b906000526020600020906005020160040160008282546104389190611b46565b9250508190555061048a33827f000000000000000000000000000000000000000000000000000000000000000073ffffffffffffffffffffffffffffffffffffffff166110b29092919063ffffffff16565b3373ffffffffffffffffffffffffffffffffffffffff167ffc30cddea38e2bf4d6ea7d3f9ed3b6ad7f176419f4963bd81318067a4aee73fe826040516104d091906115f8565b60405180910390a25050565b6000600260003373ffffffffffffffffffffffffffffffffffffffff1673ffffffffffffffffffffffffffffffffffffffff168152602001908152602001600020828154811061052f5761052e611ae8565b5b906000526020600020906005020190506000600182600301548154811061055957610558611ae8565b5b906000526020600020906003020190506000826001015490506000826000015484600201546105889190611b46565b4210156105bb57612710600354836105a09190611b7a565b6105aa9190611beb565b905080826105b89190611c1c565b91505b61060633837f000000000000000000000000000000000000000000000000000000000000000073ffffffffffffffffffffffffffffffffffffffff166110b29092919063ffffffff16565b6106717f0000000000000000000000000000000000000000000000000000000000000000827f000000000000000000000000000000000000000000000000000000000000000073ffffffffffffffffffffffffffffffffffffffff166110b29092919063ffffffff16565b60008460010181905550600084600201819055503373ffffffffffffffffffffffffffffffffffffffff167f7fc4727e062e336010f2c282598ef5f14facb3de68cf8195c2f23e1454b2b74e83836040516106cd929190611c50565b60405180910390a25050505050565b60606001805480602002602001604051908101604052809291908181526020016000905b82821015610761578382906000526020600020906003020160405180606001604052908160008201548152602001600182015481526020016002820160009054906101000a900460ff16151515158152505081526020019060010190610700565b50505050905090565b7f000000000000000000000000000000000000000000000000000000000000000081565b610796611131565b60016040518060600160405280848152602001838152602001600115158152509080600181540180825580915050600190039060005260206000209060030201600090919091909150600082015181600001556020820151816001015560408201518160020160006101000a81548160ff02191690831515021790555050505050565b60035481565b60606000600260008473ffffffffffffffffffffffffffffffffffffffff1673ffffffffffffffffffffffffffffffffffffffff1681526020019081526020016000208054905090508067ffffffffffffffff81111561088257610881611c79565b5b6040519080825280602002602001820160405280156108b05781602001602082028036833780820191505090505b50915060005b818110156108f4576108c88482610fac565b8382815181106108db576108da611ae8565b5b60200260200101818152505080806001019150506108b6565b5050919050565b610903611131565b61090d60006111b8565b565b6001805490508110610956576040517f08c379a000000000000000000000000000000000000000000000000000000000815260040161094d90611cf4565b60405180910390fd5b6001818154811061096a57610969611ae8565b5b906000526020600020906003020160020160009054906101000a900460ff166109c8576040517f08c379a00000000000000000000000000000000000000000000000000000000081526004016109bf90611d60565b60405180910390fd5b60008211610a0b576040517f08c379a0000000000000000000000000000000000000000000000000000000008152600401610a0290611dcc565b60405180910390fd5b610a583330847f000000000000000000000000000000000000000000000000000000000000000073ffffffffffffffffffffffffffffffffffffffff1661127c909392919063ffffffff16565b600260003373ffffffffffffffffffffffffffffffffffffffff1673ffffffffffffffffffffffffffffffffffffffff1681526020019081526020016000206040518060a001604052803373ffffffffffffffffffffffffffffffffffffffff1681526020018481526020014281526020018381526020016000815250908060018154018082558091505060019003906000526020600020906005020160009091909190915060008201518160000160006101000a81548173ffffffffffffffffffffffffffffffffffffffff021916908373ffffffffffffffffffffffffffffffffffffffff1602179055506020820151816001015560408201518160020155606082015181600301556080820151816004015550503373ffffffffffffffffffffffffffffffffffffffff167fb4caaf29adda3eefee3ad552a8e85058589bf834c7466cae4ee58787f70589ed83836001600260003373ffffffffffffffffffffffffffffffffffffffff1673ffffffffffffffffffffffffffffffffffffffff16815260200190815260200160002080549050610bf89190611c1c565b604051610c0793929190611dec565b60405180910390a25050565b6060600260008373ffffffffffffffffffffffffffffffffffffffff1673ffffffffffffffffffffffffffffffffffffffff168152602001908152602001600020805480602002602001604051908101604052809291908181526020016000905b82821015610d2457838290600052602060002090600502016040518060a00160405290816000820160009054906101000a900473ffffffffffffffffffffffffffffffffffffffff1673ffffffffffffffffffffffffffffffffffffffff1673ffffffffffffffffffffffffffffffffffffffff16815260200160018201548152602001600282015481526020016003820154815260200160048201548152505081526020019060010190610c74565b505050509050919050565b60008060009054906101000a900473ffffffffffffffffffffffffffffffffffffffff16905090565b610d60611131565b8060038190555050565b7f000000000000000000000000000000000000000000000000000000000000000081565b60018181548110610d9e57600080fd5b90600052602060002090600302016000915090508060000154908060010154908060020160009054906101000a900460ff16905083565b610ddd611131565b6001805490508410610e24576040517f08c379a0000000000000000000000000000000000000000000000000000000008152600401610e1b90611e6f565b60405180910390fd5b604051806060016040528084815260200183815260200182151581525060018581548110610e5557610e54611ae8565b5b9060005260206000209060030201600082015181600001556020820151816001015560408201518160020160006101000a81548160ff02191690831515021790555090505050505050565b60026020528160005260406000208181548110610ebc57600080fd5b9060005260206000209060050201600091509150508060000160009054906101000a900473ffffffffffffffffffffffffffffffffffffffff16908060010154908060020154908060030154908060040154905085565b6000610f1f3383610fac565b9050919050565b610f2e611131565b600073ffffffffffffffffffffffffffffffffffffffff168173ffffffffffffffffffffffffffffffffffffffff1603610fa05760006040517f1e4fbdf7000000000000000000000000000000000000000000000000000000008152600401610f97919061158e565b60405180910390fd5b610fa9816111b8565b50565b600080600260008573ffffffffffffffffffffffffffffffffffffffff1673ffffffffffffffffffffffffffffffffffffffff168152602001908152602001600020838154811061100057610fff611ae8565b5b906000526020600020906005020190506000600182600301548154811061102a57611029611ae8565b5b90600052602060002090600302019050600082600201544261104c9190611c1c565b90506000826000015490506000816127106110679190611b7a565b8460010154866001015461107b9190611b7a565b6110859190611beb565b905082816110939190611b7a565b95508460040154866110a59190611c1c565b9550505050505092915050565b61112c838473ffffffffffffffffffffffffffffffffffffffff1663a9059cbb85856040516024016110e5929190611e8f565b604051602081830303815290604052915060e01b6020820180517bffffffffffffffffffffffffffffffffffffffffffffffffffffffff83818316178352505050506112fe565b505050565b6111396113a0565b73ffffffffffffffffffffffffffffffffffffffff16611157610d2f565b73ffffffffffffffffffffffffffffffffffffffff16146111b65761117a6113a0565b6040517f118cdaa70000000000000000000000000000000000000000000000000000000081526004016111ad919061158e565b60405180910390fd5b565b60008060009054906101000a900473ffffffffffffffffffffffffffffffffffffffff169050816000806101000a81548173ffffffffffffffffffffffffffffffffffffffff021916908373ffffffffffffffffffffffffffffffffffffffff1602179055508173ffffffffffffffffffffffffffffffffffffffff168173ffffffffffffffffffffffffffffffffffffffff167f8be0079c531659141344cd1fd0a4f28419497f9722a3daafe3b4186f6b6457e060405160405180910390a35050565b6112f8848573ffffffffffffffffffffffffffffffffffffffff166323b872dd8686866040516024016112b193929190611eb8565b604051602081830303815290604052915060e01b6020820180517bffffffffffffffffffffffffffffffffffffffffffffffffffffffff83818316178352505050506112fe565b50505050565b600080602060008451602086016000885af180611321576040513d6000823e3d81fd5b3d92506000519150506000821461133c576001811415611358565b60008473ffffffffffffffffffffffffffffffffffffffff163b145b1561139a57836040517f5274afe7000000000000000000000000000000000000000000000000000000008152600401611391919061158e565b60405180910390fd5b50505050565b600033905090565b600080fd5b6000819050919050565b6113c0816113ad565b81146113cb57600080fd5b50565b6000813590506113dd816113b7565b92915050565b6000602082840312156113f9576113f86113a8565b5b6000611407848285016113ce565b91505092915050565b600081519050919050565b600082825260208201905092915050565b6000819050602082019050919050565b611445816113ad565b82525050565b60008115159050919050565b6114608161144b565b82525050565b60608201600082015161147c600085018261143c565b50602082015161148f602085018261143c565b5060408201516114a26040850182611457565b50505050565b60006114b48383611466565b60608301905092915050565b6000602082019050919050565b60006114d882611410565b6114e2818561141b565b93506114ed8361142c565b8060005b8381101561151e57815161150588826114a8565b9750611510836114c0565b9250506001810190506114f1565b5085935050505092915050565b6000602082019050818103600083015261154581846114cd565b905092915050565b600073ffffffffffffffffffffffffffffffffffffffff82169050919050565b60006115788261154d565b9050919050565b6115888161156d565b82525050565b60006020820190506115a3600083018461157f565b92915050565b600080604083850312156115c0576115bf6113a8565b5b60006115ce858286016113ce565b92505060206115df858286016113ce565b9150509250929050565b6115f2816113ad565b82525050565b600060208201905061160d60008301846115e9565b92915050565b61161c8161156d565b811461162757600080fd5b50565b60008135905061163981611613565b92915050565b600060208284031215611655576116546113a8565b5b60006116638482850161162a565b91505092915050565b600081519050919050565b600082825260208201905092915050565b6000819050602082019050919050565b60006116a4838361143c565b60208301905092915050565b6000602082019050919050565b60006116c88261166c565b6116d28185611677565b93506116dd83611688565b8060005b8381101561170e5781516116f58882611698565b9750611700836116b0565b9250506001810190506116e1565b5085935050505092915050565b6000602082019050818103600083015261173581846116bd565b905092915050565b600081519050919050565b600082825260208201905092915050565b6000819050602082019050919050565b6117728161156d565b82525050565b60a08201600082015161178e6000850182611769565b5060208201516117a1602085018261143c565b5060408201516117b4604085018261143c565b5060608201516117c7606085018261143c565b5060808201516117da608085018261143c565b50505050565b60006117ec8383611778565b60a08301905092915050565b6000602082019050919050565b60006118108261173d565b61181a8185611748565b935061182583611759565b8060005b8381101561185657815161183d88826117e0565b9750611848836117f8565b925050600181019050611829565b5085935050505092915050565b6000602082019050818103600083015261187d8184611805565b905092915050565b6000819050919050565b60006118aa6118a56118a08461154d565b611885565b61154d565b9050919050565b60006118bc8261188f565b9050919050565b60006118ce826118b1565b9050919050565b6118de816118c3565b82525050565b60006020820190506118f960008301846118d5565b92915050565b6119088161144b565b82525050565b600060608201905061192360008301866115e9565b61193060208301856115e9565b61193d60408301846118ff565b949350505050565b61194e8161144b565b811461195957600080fd5b50565b60008135905061196b81611945565b92915050565b6000806000806080858703121561198b5761198a6113a8565b5b6000611999878288016113ce565b94505060206119aa878288016113ce565b93505060406119bb878288016113ce565b92505060606119cc8782880161195c565b91505092959194509250565b600080604083850312156119ef576119ee6113a8565b5b60006119fd8582860161162a565b9250506020611a0e858286016113ce565b9150509250929050565b600060a082019050611a2d600083018861157f565b611a3a60208301876115e9565b611a4760408301866115e9565b611a5460608301856115e9565b611a6160808301846115e9565b9695505050505050565b600082825260208201905092915050565b7f5374616b696e673a204e6f207265776172647320746f20636c61696d00000000600082015250565b6000611ab2601c83611a6b565b9150611abd82611a7c565b602082019050919050565b60006020820190508181036000830152611ae181611aa5565b9050919050565b7f4e487b7100000000000000000000000000000000000000000000000000000000600052603260045260246000fd5b7f4e487b7100000000000000000000000000000000000000000000000000000000600052601160045260246000fd5b6000611b51826113ad565b9150611b5c836113ad565b9250828201905080821115611b7457611b73611b17565b5b92915050565b6000611b85826113ad565b9150611b90836113ad565b9250828202611b9e816113ad565b91508282048414831517611bb557611bb4611b17565b5b5092915050565b7f4e487b7100000000000000000000000000000000000000000000000000000000600052601260045260246000fd5b6000611bf6826113ad565b9150611c01836113ad565b925082611c1157611c10611bbc565b5b828204905092915050565b6000611c27826113ad565b9150611c32836113ad565b9250828203905081811115611c4a57611c49611b17565b5b92915050565b6000604082019050611c6560008301856115e9565b611c7260208301846115e9565b9392505050565b7f4e487b7100000000000000000000000000000000000000000000000000000000600052604160045260246000fd5b7f5374616b696e673a20496e76616c696420706c616e0000000000000000000000600082015250565b6000611cde601583611a6b565b9150611ce982611ca8565b602082019050919050565b60006020820190508181036000830152611d0d81611cd1565b9050919050565b7f5374616b696e673a20506c616e206e6f74206163746976650000000000000000600082015250565b6000611d4a601883611a6b565b9150611d5582611d14565b602082019050919050565b60006020820190508181036000830152611d7981611d3d565b9050919050565b7f5374616b696e673a205a65726f20616d6f756e74000000000000000000000000600082015250565b6000611db6601483611a6b565b9150611dc182611d80565b602082019050919050565b60006020820190508181036000830152611de581611da9565b9050919050565b6000606082019050611e0160008301866115e9565b611e0e60208301856115e9565b611e1b60408301846115e9565b949350505050565b7f5374616b696e673a20496e76616c696420706c616e4964000000000000000000600082015250565b6000611e59601783611a6b565b9150611e6482611e23565b602082019050919050565b60006020820190508181036000830152611e8881611e4c565b9050919050565b6000604082019050611ea4600083018561157f565b611eb160208301846115e9565b9392505050565b6000606082019050611ecd600083018661157f565b611eda602083018561157f565b611ee760408301846115e9565b94935050505056fea264697066735822122030649608964262082c44b794aa231b48483fa413598bbb099ec43e9530d3926264736f6c63430008180033",
  "linkReferences": {},
  "deployedLinkReferences": {}
}