{
  "_format": "hh-sol-artifact-1",
  "contractName": "RocketGame",
  "sourceName": "contracts/RocketGame.sol",
  "abi": [
    {
      "inputs": [
        {
          "internalType": "address",
          "name": "_lipt",
          "type": "address"
        }
      ],
      "stateMutability": "nonpayable",
      "type": "constructor"
    },
    {
      "inputs": [
        {
          "internalType": "address",
          "name": "owner",
          "type": "address"
        }
      ],
      "name": "OwnableInvalidOwner",
      "type": "error"
    },
    {
      "inputs": [
        {
          "internalType": "address",
          "name": "account",
          "type": "address"
        }
      ],
      "name": "OwnableUnauthorizedAccount",
      "type": "error"
    },
    {
      "inputs": [
        {
          "internalType": "address",
          "name": "token",
          "type": "address"
        }
      ],
      "name": "SafeERC20FailedOperation",
      "type": "error"
    },
    {
      "anonymous": false,
      "inputs": [
        {
          "indexed": true,
          "internalType": "address",
          "name": "user",
          "type": "address"
        },
        {
          "indexed": false,
          "internalType": "uint256",
          "name": "amount",
          "type": "uint256"
        }
      ],
      "name": "BetPlaced",
      "type": "event"
    },
    {
      "anonymous": false,
      "inputs": [
        {
          "indexed": false,
          "internalType": "uint256",
          "name": "amount",
          "type": "uint256"
        }
      ],
      "name": "HouseEdgeCollected",
      "type": "event"
    },
    {
      "anonymous": false,
      "inputs": [
        {
          "indexed": true,
          "internalType": "address",
          "name": "previousOwner",
          "type": "address"
        },
        {
          "indexed": true,
          "internalType": "address",
          "name": "newOwner",
          "type": "address"
        }
      ],
      "name": "OwnershipTransferred",
      "type": "event"
    },
    {
      "anonymous": false,
      "inputs": [
        {
          "indexed": true,
          "internalType": "address",
          "name": "user",
          "type": "address"
        },
        {
          "indexed": false,
          "internalType": "uint256",
          "name": "amount",
          "type": "uint256"
        }
      ],
      "name": "RocketBetPlaced",
      "type": "event"
    },
    {
      "anonymous": false,
      "inputs": [
        {
          "indexed": true,
          "internalType": "address",
          "name": "user",
          "type": "address"
        },
        {
          "indexed": false,
          "internalType": "uint256",
          "name": "amount",
          "type": "uint256"
        },
        {
          "indexed": false,
          "internalType": "uint256",
          "name": "multiplier",
          "type": "uint256"
        }
      ],
      "name": "RocketCashedOut",
      "type": "event"
    },
    {
      "anonymous": false,
      "inputs": [
        {
          "indexed": false,
          "internalType": "uint256",
          "name": "crashPoint",
          "type": "uint256"
        }
      ],
      "name": "RocketRoundCrashed",
      "type": "event"
    },
    {
      "anonymous": false,
      "inputs": [
        {
          "indexed": false,
          "internalType": "uint256",
          "name": "crashPoint",
          "type": "uint256"
        }
      ],
      "name": "RocketRoundStarted",
      "type": "event"
    },
    {
      "anonymous": false,
      "inputs": [
        {
          "indexed": true,
          "internalType": "address",
          "name": "user",
          "type": "address"
        },
        {
          "indexed": false,
          "internalType": "uint256",
          "name": "amount",
          "type": "uint256"
        }
      ],
      "name": "WinningsPaid",
      "type": "event"
    },
    {
      "inputs": [],
      "name": "DEAD_ADDRESS",
      "outputs": [
        {
          "internalType": "address",
          "name": "",
          "type": "address"
        }
      ],
      "stateMutability": "view",
      "type": "function"
    },
    {
      "inputs": [],
      "name": "LIPT",
      "outputs": [
        {
          "internalType": "contract IERC20",
          "name": "",
          "type": "address"
        }
      ],
      "stateMutability": "view",
      "type": "function"
    },
    {
      "inputs": [
        {
          "internalType": "uint256",
          "name": "betIndex",
          "type": "uint256"
        },
        {
          "internalType": "uint256",
          "name": "multiplier",
          "type": "uint256"
        }
      ],
      "name": "cashOutRocket",
      "outputs": [],
      "stateMutability": "nonpayable",
      "type": "function"
    },
    {
      "inputs": [],
      "name": "crashRound",
      "outputs": [],
      "stateMutability": "nonpayable",
      "type": "function"
    },
    {
      "inputs": [],
      "name": "currentRound",
      "outputs": [
        {
          "internalType": "uint256",
          "name": "crashPoint",
          "type": "uint256"
        },
        {
          "internalType": "uint256",
          "name": "startTime",
          "type": "uint256"
        },
        {
          "internalType": "bool",
          "name": "active",
          "type": "bool"
        }
      ],
      "stateMutability": "view",
      "type": "function"
    },
    {
      "inputs": [],
      "name": "houseEdgeBasisPoints",
      "outputs": [
        {
          "internalType": "uint256",
          "name": "",
          "type": "uint256"
        }
      ],
      "stateMutability": "view",
      "type": "function"
    },
    {
      "inputs": [],
      "name": "owner",
      "outputs": [
        {
          "internalType": "address",
          "name": "",
          "type": "address"
        }
      ],
      "stateMutability": "view",
      "type": "function"
    },
    {
      "inputs": [
        {
          "internalType": "uint256",
          "name": "betAmount",
          "type": "uint256"
        }
      ],
      "name": "playRocket",
      "outputs": [],
      "stateMutability": "nonpayable",
      "type": "function"
    },
    {
      "inputs": [],
      "name": "renounceOwnership",
      "outputs": [],
      "stateMutability": "nonpayable",
      "type": "function"
    },
    {
      "inputs": [
        {
          "internalType": "uint256",
          "name": "edgeBasisPoints",
          "type": "uint256"
        }
      ],
      "name": "setHouseEdge",
      "outputs": [],
      "stateMutability": "nonpayable",
      "type": "function"
    },
    {
      "inputs": [
        {
          "internalType": "address",
          "name": "_treasuryAddress",
          "type": "address"
        }
      ],
      "name": "setTreasuryAddress",
      "outputs": [],
      "stateMutability": "nonpayable",
      "type": "function"
    },
    {
      "inputs": [
        {
          "internalType": "uint256",
          "name": "simulatedCrashPoint",
          "type": "uint256"
        }
      ],
      "name": "startNewRound",
      "outputs": [],
      "stateMutability": "nonpayable",
      "type": "function"
    },
    {
      "inputs": [
        {
          "internalType": "address",
          "name": "newOwner",
          "type": "address"
        }
      ],
      "name": "transferOwnership",
      "outputs": [],
      "stateMutability": "nonpayable",
      "type": "function"
    },
    {
      "inputs": [],
      "name": "treasuryAddress",
      "outputs": [
        {
          "internalType": "address",
          "name": "",
          "type": "address"
        }
      ],
      "stateMutability": "view",
      "type": "function"
    }
  ],
  "bytecode": "0x60c060405261dead73ffffffffffffffffffffffffffffffffffffffff1660a09073ffffffffffffffffffffffffffffffffffffffff1681525060646006553480156200004b57600080fd5b50604051620018d5380380620018d5833981810160405281019062000071919062000264565b8033600073ffffffffffffffffffffffffffffffffffffffff168173ffffffffffffffffffffffffffffffffffffffff1603620000e85760006040517f1e4fbdf7000000000000000000000000000000000000000000000000000000008152600401620000df9190620002a7565b60405180910390fd5b620000f9816200013660201b60201c565b508073ffffffffffffffffffffffffffffffffffffffff1660808173ffffffffffffffffffffffffffffffffffffffff16815250505050620002c4565b60008060009054906101000a900473ffffffffffffffffffffffffffffffffffffffff169050816000806101000a81548173ffffffffffffffffffffffffffffffffffffffff021916908373ffffffffffffffffffffffffffffffffffffffff1602179055508173ffffffffffffffffffffffffffffffffffffffff168173ffffffffffffffffffffffffffffffffffffffff167f8be0079c531659141344cd1fd0a4f28419497f9722a3daafe3b4186f6b6457e060405160405180910390a35050565b600080fd5b600073ffffffffffffffffffffffffffffffffffffffff82169050919050565b60006200022c82620001ff565b9050919050565b6200023e816200021f565b81146200024a57600080fd5b50565b6000815190506200025e8162000233565b92915050565b6000602082840312156200027d576200027c620001fa565b5b60006200028d848285016200024d565b91505092915050565b620002a1816200021f565b82525050565b6000602082019050620002be600083018462000296565b92915050565b60805160a0516115dd620002f860003960006105b80152600081816107110152818161078a0152610a8001526115dd6000f3fe608060405234801561001057600080fd5b50600436106100ea5760003560e01c80638a19c8bc1161008c578063b6a08d1111610066578063b6a08d1114610201578063b7f077e01461021d578063c5f956af14610227578063f2fde38b14610245576100ea565b80638a19c8bc146101a55780638da5cb5b146101c5578063981d21bb146101e3576100ea565b806364afa676116100c857806364afa676146101455780636605bfda146101635780636cd0f1021461017f578063715018a61461019b576100ea565b80630cba9ddc146100ef5780634615102c1461010b5780634e6fd6c414610127575b600080fd5b61010960048036038101906101049190610ea7565b610261565b005b61012560048036038101906101209190610ee7565b610532565b005b61012f6105b6565b60405161013c9190610f55565b60405180910390f35b61014d6105da565b60405161015a9190610f7f565b60405180910390f35b61017d60048036038101906101789190610fc6565b6105e0565b005b61019960048036038101906101949190610ee7565b61069b565b005b6101a36106ad565b005b6101ad6106c1565b6040516101bc9392919061100e565b60405180910390f35b6101cd6106e6565b6040516101da9190610f55565b60405180910390f35b6101eb61070f565b6040516101f891906110a4565b60405180910390f35b61021b60048036038101906102169190610ee7565b610733565b005b6102256108d6565b005b61022f61098c565b60405161023c9190610f55565b60405180910390f35b61025f600480360381019061025a9190610fc6565b6109b2565b005b600260030160009054906101000a900460ff166102b3576040517f08c379a00000000000000000000000000000000000000000000000000000000081526004016102aa9061111c565b60405180910390fd5b600280018054905082106102fc576040517f08c379a00000000000000000000000000000000000000000000000000000000081526004016102f390611188565b60405180910390fd5b6000600280018381548110610314576103136111a8565b5b906000526020600020906003020190503373ffffffffffffffffffffffffffffffffffffffff168160000160009054906101000a900473ffffffffffffffffffffffffffffffffffffffff1673ffffffffffffffffffffffffffffffffffffffff16146103b6576040517f08c379a00000000000000000000000000000000000000000000000000000000081526004016103ad90611223565b60405180910390fd5b8060020160009054906101000a900460ff1615610408576040517f08c379a00000000000000000000000000000000000000000000000000000000081526004016103ff9061128f565b60405180910390fd5b600260000154821061044f576040517f08c379a000000000000000000000000000000000000000000000000000000000815260040161044690611321565b60405180910390fd5b60018160020160006101000a81548160ff021916908315150217905550600060648383600101546104809190611370565b61048a91906113e1565b9050600082600101548261049e9190611412565b90506000612710600654836104b39190611370565b6104bd91906113e1565b9050600081846104cd9190611412565b90506104d93382610a38565b3373ffffffffffffffffffffffffffffffffffffffff167f52099357f716039da9fdd83613cf2a39ff73fdc53e650585bcd2719704abb3588288604051610521929190611446565b60405180910390a250505050505050565b61053a610af8565b806002600001819055504260026001018190555060028001600061055e9190610dee565b6001600260030160006101000a81548160ff0219169083151502179055507f4280071fd7d8593d1dce6f903cef3036ba659bc77884b859595b96e3d3aedca7816040516105ab9190610f7f565b60405180910390a150565b7f000000000000000000000000000000000000000000000000000000000000000081565b60065481565b6105e8610af8565b600073ffffffffffffffffffffffffffffffffffffffff168173ffffffffffffffffffffffffffffffffffffffff1603610657576040517f08c379a000000000000000000000000000000000000000000000000000000000815260040161064e906114bb565b60405180910390fd5b80600160006101000a81548173ffffffffffffffffffffffffffffffffffffffff021916908373ffffffffffffffffffffffffffffffffffffffff16021790555050565b6106a3610af8565b8060068190555050565b6106b5610af8565b6106bf6000610b7f565b565b60028060000154908060010154908060030160009054906101000a900460ff16905083565b60008060009054906101000a900473ffffffffffffffffffffffffffffffffffffffff16905090565b7f000000000000000000000000000000000000000000000000000000000000000081565b600260030160009054906101000a900460ff16610785576040517f08c379a000000000000000000000000000000000000000000000000000000000815260040161077c9061111c565b60405180910390fd5b6107b17f0000000000000000000000000000000000000000000000000000000000000000333084610c43565b6002800160405180606001604052803373ffffffffffffffffffffffffffffffffffffffff16815260200183815260200160001515815250908060018154018082558091505060019003906000526020600020906003020160009091909190915060008201518160000160006101000a81548173ffffffffffffffffffffffffffffffffffffffff021916908373ffffffffffffffffffffffffffffffffffffffff1602179055506020820151816001015560408201518160020160006101000a81548160ff02191690831515021790555050503373ffffffffffffffffffffffffffffffffffffffff167fbfe9c9b7cb092274756f5f0d62018f9780bb3eda76013c8d51383a61dd6c8500826040516108cb9190610f7f565b60405180910390a250565b6108de610af8565b600260030160009054906101000a900460ff16610930576040517f08c379a00000000000000000000000000000000000000000000000000000000081526004016109279061111c565b60405180910390fd5b6000600260030160006101000a81548160ff0219169083151502179055507f2a00bd99c84d4fabf2dbfa4dd2f9af0112352a0ed4f1a018f5525b96a45d06286002600001546040516109829190610f7f565b60405180910390a1565b600160009054906101000a900473ffffffffffffffffffffffffffffffffffffffff1681565b6109ba610af8565b600073ffffffffffffffffffffffffffffffffffffffff168173ffffffffffffffffffffffffffffffffffffffff1603610a2c5760006040517f1e4fbdf7000000000000000000000000000000000000000000000000000000008152600401610a239190610f55565b60405180910390fd5b610a3581610b7f565b50565b60008111610a7b576040517f08c379a0000000000000000000000000000000000000000000000000000000008152600401610a7290611527565b60405180910390fd5b610aa67f00000000000000000000000000000000000000000000000000000000000000008383610cc5565b8173ffffffffffffffffffffffffffffffffffffffff167f478faca9a753c4ddb73661df251feef7ac07bfea4dd12660d21b4b80bc431cc182604051610aec9190610f7f565b60405180910390a25050565b610b00610d44565b73ffffffffffffffffffffffffffffffffffffffff16610b1e6106e6565b73ffffffffffffffffffffffffffffffffffffffff1614610b7d57610b41610d44565b6040517f118cdaa7000000000000000000000000000000000000000000000000000000008152600401610b749190610f55565b60405180910390fd5b565b60008060009054906101000a900473ffffffffffffffffffffffffffffffffffffffff169050816000806101000a81548173ffffffffffffffffffffffffffffffffffffffff021916908373ffffffffffffffffffffffffffffffffffffffff1602179055508173ffffffffffffffffffffffffffffffffffffffff168173ffffffffffffffffffffffffffffffffffffffff167f8be0079c531659141344cd1fd0a4f28419497f9722a3daafe3b4186f6b6457e060405160405180910390a35050565b610cbf848573ffffffffffffffffffffffffffffffffffffffff166323b872dd868686604051602401610c7893929190611547565b604051602081830303815290604052915060e01b6020820180517bffffffffffffffffffffffffffffffffffffffffffffffffffffffff8381831617835250505050610d4c565b50505050565b610d3f838473ffffffffffffffffffffffffffffffffffffffff1663a9059cbb8585604051602401610cf892919061157e565b604051602081830303815290604052915060e01b6020820180517bffffffffffffffffffffffffffffffffffffffffffffffffffffffff8381831617835250505050610d4c565b505050565b600033905090565b600080602060008451602086016000885af180610d6f576040513d6000823e3d81fd5b3d925060005191505060008214610d8a576001811415610da6565b60008473ffffffffffffffffffffffffffffffffffffffff163b145b15610de857836040517f5274afe7000000000000000000000000000000000000000000000000000000008152600401610ddf9190610f55565b60405180910390fd5b50505050565b5080546000825560030290600052602060002090810190610e0f9190610e12565b50565b5b80821115610e6857600080820160006101000a81549073ffffffffffffffffffffffffffffffffffffffff021916905560018201600090556002820160006101000a81549060ff021916905550600301610e13565b5090565b600080fd5b6000819050919050565b610e8481610e71565b8114610e8f57600080fd5b50565b600081359050610ea181610e7b565b92915050565b60008060408385031215610ebe57610ebd610e6c565b5b6000610ecc85828601610e92565b9250506020610edd85828601610e92565b9150509250929050565b600060208284031215610efd57610efc610e6c565b5b6000610f0b84828501610e92565b91505092915050565b600073ffffffffffffffffffffffffffffffffffffffff82169050919050565b6000610f3f82610f14565b9050919050565b610f4f81610f34565b82525050565b6000602082019050610f6a6000830184610f46565b92915050565b610f7981610e71565b82525050565b6000602082019050610f946000830184610f70565b92915050565b610fa381610f34565b8114610fae57600080fd5b50565b600081359050610fc081610f9a565b92915050565b600060208284031215610fdc57610fdb610e6c565b5b6000610fea84828501610fb1565b91505092915050565b60008115159050919050565b61100881610ff3565b82525050565b60006060820190506110236000830186610f70565b6110306020830185610f70565b61103d6040830184610fff565b949350505050565b6000819050919050565b600061106a61106561106084610f14565b611045565b610f14565b9050919050565b600061107c8261104f565b9050919050565b600061108e82611071565b9050919050565b61109e81611083565b82525050565b60006020820190506110b96000830184611095565b92915050565b600082825260208201905092915050565b7f526f636b65743a20526f756e64206e6f74206163746976650000000000000000600082015250565b60006111066018836110bf565b9150611111826110d0565b602082019050919050565b60006020820190508181036000830152611135816110f9565b9050919050565b7f526f636b65743a20496e76616c69642062657420696e64657800000000000000600082015250565b60006111726019836110bf565b915061117d8261113c565b602082019050919050565b600060208201905081810360008301526111a181611165565b9050919050565b7f4e487b7100000000000000000000000000000000000000000000000000000000600052603260045260246000fd5b7f526f636b65743a204e6f7420796f757220626574000000000000000000000000600082015250565b600061120d6014836110bf565b9150611218826111d7565b602082019050919050565b6000602082019050818103600083015261123c81611200565b9050919050565b7f526f636b65743a20416c726561647920636173686564206f7574000000000000600082015250565b6000611279601a836110bf565b915061128482611243565b602082019050919050565b600060208201905081810360008301526112a88161126c565b9050919050565b7f526f636b65743a204d756c7469706c696572206578636565647320637261736860008201527f20706f696e740000000000000000000000000000000000000000000000000000602082015250565b600061130b6026836110bf565b9150611316826112af565b604082019050919050565b6000602082019050818103600083015261133a816112fe565b9050919050565b7f4e487b7100000000000000000000000000000000000000000000000000000000600052601160045260246000fd5b600061137b82610e71565b915061138683610e71565b925082820261139481610e71565b915082820484148315176113ab576113aa611341565b5b5092915050565b7f4e487b7100000000000000000000000000000000000000000000000000000000600052601260045260246000fd5b60006113ec82610e71565b91506113f783610e71565b925082611407576114066113b2565b5b828204905092915050565b600061141d82610e71565b915061142883610e71565b92508282039050818111156114405761143f611341565b5b92915050565b600060408201905061145b6000830185610f70565b6114686020830184610f70565b9392505050565b7f47616d65426173653a205a65726f206164647265737300000000000000000000600082015250565b60006114a56016836110bf565b91506114b08261146f565b602082019050919050565b600060208201905081810360008301526114d481611498565b9050919050565b7f47616d65426173653a205a65726f2077696e6e696e6773000000000000000000600082015250565b60006115116017836110bf565b915061151c826114db565b602082019050919050565b6000602082019050818103600083015261154081611504565b9050919050565b600060608201905061155c6000830186610f46565b6115696020830185610f46565b6115766040830184610f70565b949350505050565b60006040820190506115936000830185610f46565b6115a06020830184610f70565b939250505056fea2646970667358221220f1ba6217594d4e52319fc496ec57fee31d59d0e54f47713fbeea61656aa210de64736f6c63430008180033",
  "linkReferences": {},
  "deployedLinkReferences": {}
}