{
  "_format": "hh-sol-artifact-1",
  "contractName": "ProtocolControllerV2",
  "sourceName": "contracts/ProtocolControllerV2.sol",
  "abi": [
    {
      "inputs": [],
      "stateMutability": "nonpayable",
      "type": "constructor"
    },
    {
      "inputs": [],
      "name": "EnforcedPause",
      "type": "error"
    },
    {
      "inputs": [],
      "name": "ExpectedPause",
      "type": "error"
    },
    {
      "inputs": [
        {
          "internalType": "address",
          "name": "owner",
          "type": "address"
        }
      ],
      "name": "OwnableInvalidOwner",
      "type": "error"
    },
    {
      "inputs": [
        {
          "internalType": "address",
          "name": "account",
          "type": "address"
        }
      ],
      "name": "OwnableUnauthorizedAccount",
      "type": "error"
    },
    {
      "anonymous": false,
      "inputs": [
        {
          "indexed": true,
          "internalType": "address",
          "name": "previousOwner",
          "type": "address"
        },
        {
          "indexed": true,
          "internalType": "address",
          "name": "newOwner",
          "type": "address"
        }
      ],
      "name": "OwnershipTransferred",
      "type": "event"
    },
    {
      "anonymous": false,
      "inputs": [
        {
          "indexed": false,
          "internalType": "address",
          "name": "account",
          "type": "address"
        }
      ],
      "name": "Paused",
      "type": "event"
    },
    {
      "anonymous": false,
      "inputs": [
        {
          "indexed": false,
          "internalType": "address",
          "name": "account",
          "type": "address"
        }
      ],
      "name": "Unpaused",
      "type": "event"
    },
    {
      "inputs": [
        {
          "internalType": "uint256",
          "name": "_cost",
          "type": "uint256"
        },
        {
          "internalType": "uint256",
          "name": "_power",
          "type": "uint256"
        },
        {
          "internalType": "uint256",
          "name": "_duration",
          "type": "uint256"
        }
      ],
      "name": "addMiningPlan",
      "outputs": [],
      "stateMutability": "nonpayable",
      "type": "function"
    },
    {
      "inputs": [
        {
          "internalType": "uint256",
          "name": "_duration",
          "type": "uint256"
        },
        {
          "internalType": "uint256",
          "name": "_apy",
          "type": "uint256"
        }
      ],
      "name": "addStakingPlan",
      "outputs": [],
      "stateMutability": "nonpayable",
      "type": "function"
    },
    {
      "inputs": [],
      "name": "liptToken",
      "outputs": [
        {
          "internalType": "address",
          "name": "",
          "type": "address"
        }
      ],
      "stateMutability": "view",
      "type": "function"
    },
    {
      "inputs": [],
      "name": "lottery",
      "outputs": [
        {
          "internalType": "address",
          "name": "",
          "type": "address"
        }
      ],
      "stateMutability": "view",
      "type": "function"
    },
    {
      "inputs": [],
      "name": "miningPool",
      "outputs": [
        {
          "internalType": "address",
          "name": "",
          "type": "address"
        }
      ],
      "stateMutability": "view",
      "type": "function"
    },
    {
      "inputs": [
        {
          "internalType": "uint256",
          "name": "planId",
          "type": "uint256"
        },
        {
          "internalType": "uint256",
          "name": "_cost",
          "type": "uint256"
        },
        {
          "internalType": "uint256",
          "name": "_power",
          "type": "uint256"
        },
        {
          "internalType": "uint256",
          "name": "_duration",
          "type": "uint256"
        },
        {
          "internalType": "bool",
          "name": "_active",
          "type": "bool"
        }
      ],
      "name": "modifyMiningPlan",
      "outputs": [],
      "stateMutability": "nonpayable",
      "type": "function"
    },
    {
      "inputs": [
        {
          "internalType": "uint256",
          "name": "planId",
          "type": "uint256"
        },
        {
          "internalType": "uint256",
          "name": "_duration",
          "type": "uint256"
        },
        {
          "internalType": "uint256",
          "name": "_apy",
          "type": "uint256"
        },
        {
          "internalType": "bool",
          "name": "_active",
          "type": "bool"
        }
      ],
      "name": "modifyStakingPlan",
      "outputs": [],
      "stateMutability": "nonpayable",
      "type": "function"
    },
    {
      "inputs": [],
      "name": "owner",
      "outputs": [
        {
          "internalType": "address",
          "name": "",
          "type": "address"
        }
      ],
      "stateMutability": "view",
      "type": "function"
    },
    {
      "inputs": [],
      "name": "pauseProtocol",
      "outputs": [],
      "stateMutability": "nonpayable",
      "type": "function"
    },
    {
      "inputs": [],
      "name": "paused",
      "outputs": [
        {
          "internalType": "bool",
          "name": "",
          "type": "bool"
        }
      ],
      "stateMutability": "view",
      "type": "function"
    },
    {
      "inputs": [],
      "name": "referralProgram",
      "outputs": [
        {
          "internalType": "address",
          "name": "",
          "type": "address"
        }
      ],
      "stateMutability": "view",
      "type": "function"
    },
    {
      "inputs": [],
      "name": "renounceOwnership",
      "outputs": [],
      "stateMutability": "nonpayable",
      "type": "function"
    },
    {
      "inputs": [],
      "name": "rocketGame",
      "outputs": [
        {
          "internalType": "address",
          "name": "",
          "type": "address"
        }
      ],
      "stateMutability": "view",
      "type": "function"
    },
    {
      "inputs": [
        {
          "internalType": "address",
          "name": "_liptToken",
          "type": "address"
        }
      ],
      "name": "setLiptToken",
      "outputs": [],
      "stateMutability": "nonpayable",
      "type": "function"
    },
    {
      "inputs": [
        {
          "internalType": "address",
          "name": "_lottery",
          "type": "address"
        }
      ],
      "name": "setLottery",
      "outputs": [],
      "stateMutability": "nonpayable",
      "type": "function"
    },
    {
      "inputs": [
        {
          "internalType": "address",
          "name": "_miningPool",
          "type": "address"
        }
      ],
      "name": "setMiningPool",
      "outputs": [],
      "stateMutability": "nonpayable",
      "type": "function"
    },
    {
      "inputs": [
        {
          "internalType": "address",
          "name": "_referralProgram",
          "type": "address"
        }
      ],
      "name": "setReferralProgram",
      "outputs": [],
      "stateMutability": "nonpayable",
      "type": "function"
    },
    {
      "inputs": [
        {
          "internalType": "address",
          "name": "_rocketGame",
          "type": "address"
        }
      ],
      "name": "setRocketGame",
      "outputs": [],
      "stateMutability": "nonpayable",
      "type": "function"
    },
    {
      "inputs": [
        {
          "internalType": "address",
          "name": "_stakingPool",
          "type": "address"
        }
      ],
      "name": "setStakingPool",
      "outputs": [],
      "stateMutability": "nonpayable",
      "type": "function"
    },
    {
      "inputs": [
        {
          "internalType": "address",
          "name": "_swapPool",
          "type": "address"
        }
      ],
      "name": "setSwapPool",
      "outputs": [],
      "stateMutability": "nonpayable",
      "type": "function"
    },
    {
      "inputs": [
        {
          "internalType": "address",
          "name": "_wheelOfFortune",
          "type": "address"
        }
      ],
      "name": "setWheelOfFortune",
      "outputs": [],
      "stateMutability": "nonpayable",
      "type": "function"
    },
    {
      "inputs": [
        {
          "internalType": "uint256[]",
          "name": "multipliers",
          "type": "uint256[]"
        },
        {
          "internalType": "uint256[]",
          "name": "probabilities",
          "type": "uint256[]"
        }
      ],
      "name": "setWheelSegments",
      "outputs": [],
      "stateMutability": "nonpayable",
      "type": "function"
    },
    {
      "inputs": [],
      "name": "stakingPool",
      "outputs": [
        {
          "internalType": "address",
          "name": "",
          "type": "address"
        }
      ],
      "stateMutability": "view",
      "type": "function"
    },
    {
      "inputs": [],
      "name": "swapPool",
      "outputs": [
        {
          "internalType": "address",
          "name": "",
          "type": "address"
        }
      ],
      "stateMutability": "view",
      "type": "function"
    },
    {
      "inputs": [
        {
          "internalType": "address",
          "name": "newOwner",
          "type": "address"
        }
      ],
      "name": "transferAllChildContractsOwnership",
      "outputs": [],
      "stateMutability": "nonpayable",
      "type": "function"
    },
    {
      "inputs": [
        {
          "internalType": "address",
          "name": "newOwner",
          "type": "address"
        }
      ],
      "name": "transferAllOwnership",
      "outputs": [],
      "stateMutability": "nonpayable",
      "type": "function"
    },
    {
      "inputs": [
        {
          "internalType": "address",
          "name": "newOwner",
          "type": "address"
        }
      ],
      "name": "transferLIPTTokenOwnership",
      "outputs": [],
      "stateMutability": "nonpayable",
      "type": "function"
    },
    {
      "inputs": [
        {
          "internalType": "address",
          "name": "newOwner",
          "type": "address"
        }
      ],
      "name": "transferLotteryOwnership",
      "outputs": [],
      "stateMutability": "nonpayable",
      "type": "function"
    },
    {
      "inputs": [
        {
          "internalType": "address",
          "name": "newOwner",
          "type": "address"
        }
      ],
      "name": "transferMiningPoolOwnership",
      "outputs": [],
      "stateMutability": "nonpayable",
      "type": "function"
    },
    {
      "inputs": [
        {
          "internalType": "address",
          "name": "newOwner",
          "type": "address"
        }
      ],
      "name": "transferOwnership",
      "outputs": [],
      "stateMutability": "nonpayable",
      "type": "function"
    },
    {
      "inputs": [
        {
          "internalType": "address",
          "name": "newOwner",
          "type": "address"
        }
      ],
      "name": "transferReferralProgramOwnership",
      "outputs": [],
      "stateMutability": "nonpayable",
      "type": "function"
    },
    {
      "inputs": [
        {
          "internalType": "address",
          "name": "newOwner",
          "type": "address"
        }
      ],
      "name": "transferRocketGameOwnership",
      "outputs": [],
      "stateMutability": "nonpayable",
      "type": "function"
    },
    {
      "inputs": [
        {
          "internalType": "address",
          "name": "newOwner",
          "type": "address"
        }
      ],
      "name": "transferStakingPoolOwnership",
      "outputs": [],
      "stateMutability": "nonpayable",
      "type": "function"
    },
    {
      "inputs": [
        {
          "internalType": "address",
          "name": "newOwner",
          "type": "address"
        }
      ],
      "name": "transferSwapPoolOwnership",
      "outputs": [],
      "stateMutability": "nonpayable",
      "type": "function"
    },
    {
      "inputs": [
        {
          "internalType": "address",
          "name": "newOwner",
          "type": "address"
        }
      ],
      "name": "transferWheelOfFortuneOwnership",
      "outputs": [],
      "stateMutability": "nonpayable",
      "type": "function"
    },
    {
      "inputs": [],
      "name": "unpauseProtocol",
      "outputs": [],
      "stateMutability": "nonpayable",
      "type": "function"
    },
    {
      "inputs": [],
      "name": "wheelOfFortune",
      "outputs": [
        {
          "internalType": "address",
          "name": "",
          "type": "address"
        }
      ],
      "stateMutability": "view",
      "type": "function"
    }
  ],
  "bytecode": "0x60806040523480156200001157600080fd5b5033600073ffffffffffffffffffffffffffffffffffffffff168173ffffffffffffffffffffffffffffffffffffffff1603620000885760006040517f1e4fbdf70000000000000000000000000000000000000000000000000000000081526004016200007f9190620001a9565b60405180910390fd5b6200009981620000a060201b60201c565b50620001c6565b60008060009054906101000a900473ffffffffffffffffffffffffffffffffffffffff169050816000806101000a81548173ffffffffffffffffffffffffffffffffffffffff021916908373ffffffffffffffffffffffffffffffffffffffff1602179055508173ffffffffffffffffffffffffffffffffffffffff168173ffffffffffffffffffffffffffffffffffffffff167f8be0079c531659141344cd1fd0a4f28419497f9722a3daafe3b4186f6b6457e060405160405180910390a35050565b600073ffffffffffffffffffffffffffffffffffffffff82169050919050565b6000620001918262000164565b9050919050565b620001a38162000184565b82525050565b6000602082019050620001c0600083018462000198565b92915050565b612ca680620001d66000396000f3fe608060405234801561001057600080fd5b50600436106102275760003560e01c8063715018a611610130578063b0d0cfea116100b8578063d7201cf21161007c578063d7201cf2146105ae578063dbf62489146105ca578063f298083b146105d4578063f2fde38b146105f0578063f93b6be51461060c57610227565b8063b0d0cfea1461051e578063b37c7e561461053a578063ba13a57214610556578063cbb8219314610574578063cdc423441461059057610227565b80637f1d4427116100ff5780637f1d44271461048e578063885bf1d1146104aa5780638da5cb5b146104c6578063982697dd146104e4578063ac6962511461050257610227565b8063715018a61461042e5780637339759714610438578063792421891461045657806379bdc89a1461047257610227565b80634453bc3a116101b35780635ef23fa9116101825780635ef23fa9146103a2578063692bde5a146103be5780636cbd6477146103da5780636f190214146103f657806370e0fbef1461041257610227565b80634453bc3a1461032e5780635a87597d1461034a5780635acf720e146103665780635c975abb1461038457610227565b80633028f63a116101fa5780633028f63a146102a257806332c2ccf3146102be5780633826ac44146102da5780633e32a381146102f65780633ef012151461031257610227565b80630b92c5a61461022c5780630c56ae3b1461024a5780632e218728146102685780632ea647ca14610284575b600080fd5b610234610616565b60405161024191906123d1565b60405180910390f35b61025261063c565b60405161025f91906123d1565b60405180910390f35b610282600480360381019061027d9190612422565b610662565b005b61028c61067f565b60405161029991906123d1565b60405180910390f35b6102bc60048036038101906102b79190612422565b6106a5565b005b6102d860048036038101906102d391906124b4565b6106f1565b005b6102f460048036038101906102ef9190612422565b610823565b005b610310600480360381019061030b9190612422565b61086f565b005b61032c600480360381019061032791906125a3565b6108bb565b005b61034860048036038101906103439190612422565b6109f0565b005b610364600480360381019061035f9190612422565b610a3c565b005b61036e610b65565b60405161037b91906123d1565b60405180910390f35b61038c610b8b565b604051610399919061262d565b60405180910390f35b6103bc60048036038101906103b79190612648565b610ba1565b005b6103d860048036038101906103d39190612422565b610ccd565b005b6103f460048036038101906103ef9190612422565b610df6565b005b610410600480360381019061040b9190612422565b610f1f565b005b61042c60048036038101906104279190612422565b611048565b005b610436611094565b005b6104406110a8565b60405161044d91906123d1565b60405180910390f35b610470600480360381019061046b9190612422565b6110ce565b005b61048c60048036038101906104879190612422565b61111a565b005b6104a860048036038101906104a39190612422565b611815565b005b6104c460048036038101906104bf9190612422565b61193e565b005b6104ce61198a565b6040516104db91906123d1565b60405180910390f35b6104ec6119b3565b6040516104f991906123d1565b60405180910390f35b61051c60048036038101906105179190612688565b6119d9565b005b61053860048036038101906105339190612422565b611b08565b005b610554600480360381019061054f91906126db565b611c31565b005b61055e611d63565b60405161056b91906123d1565b60405180910390f35b61058e60048036038101906105899190612422565b611d89565b005b610598611eb2565b6040516105a591906123d1565b60405180910390f35b6105c860048036038101906105c39190612422565b611ed8565b005b6105d2612001565b005b6105ee60048036038101906105e99190612422565b612013565b005b61060a60048036038101906106059190612422565b61205f565b005b6106146120e5565b005b600160009054906101000a900473ffffffffffffffffffffffffffffffffffffffff1681565b600360009054906101000a900473ffffffffffffffffffffffffffffffffffffffff1681565b61066a6120f7565b6106738161111a565b61067c8161205f565b50565b600660009054906101000a900473ffffffffffffffffffffffffffffffffffffffff1681565b6106ad6120f7565b80600360006101000a81548173ffffffffffffffffffffffffffffffffffffffff021916908373ffffffffffffffffffffffffffffffffffffffff16021790555050565b6106f96120f7565b600073ffffffffffffffffffffffffffffffffffffffff16600660009054906101000a900473ffffffffffffffffffffffffffffffffffffffff1673ffffffffffffffffffffffffffffffffffffffff160361078a576040517f08c379a00000000000000000000000000000000000000000000000000000000081526004016107819061279f565b60405180910390fd5b600660009054906101000a900473ffffffffffffffffffffffffffffffffffffffff1673ffffffffffffffffffffffffffffffffffffffff166332c2ccf3858585856040518563ffffffff1660e01b81526004016107eb949392919061283a565b600060405180830381600087803b15801561080557600080fd5b505af1158015610819573d6000803e3d6000fd5b5050505050505050565b61082b6120f7565b80600460006101000a81548173ffffffffffffffffffffffffffffffffffffffff021916908373ffffffffffffffffffffffffffffffffffffffff16021790555050565b6108776120f7565b80600560006101000a81548173ffffffffffffffffffffffffffffffffffffffff021916908373ffffffffffffffffffffffffffffffffffffffff16021790555050565b6108c36120f7565b600073ffffffffffffffffffffffffffffffffffffffff16600460009054906101000a900473ffffffffffffffffffffffffffffffffffffffff1673ffffffffffffffffffffffffffffffffffffffff1603610954576040517f08c379a000000000000000000000000000000000000000000000000000000000815260040161094b906128c1565b60405180910390fd5b600460009054906101000a900473ffffffffffffffffffffffffffffffffffffffff1673ffffffffffffffffffffffffffffffffffffffff16633ef0121586868686866040518663ffffffff1660e01b81526004016109b79594939291906128f0565b600060405180830381600087803b1580156109d157600080fd5b505af11580156109e5573d6000803e3d6000fd5b505050505050505050565b6109f86120f7565b80600760006101000a81548173ffffffffffffffffffffffffffffffffffffffff021916908373ffffffffffffffffffffffffffffffffffffffff16021790555050565b610a446120f7565b600073ffffffffffffffffffffffffffffffffffffffff16600260009054906101000a900473ffffffffffffffffffffffffffffffffffffffff1673ffffffffffffffffffffffffffffffffffffffff1603610ad5576040517f08c379a0000000000000000000000000000000000000000000000000000000008152600401610acc9061298f565b60405180910390fd5b600260009054906101000a900473ffffffffffffffffffffffffffffffffffffffff1673ffffffffffffffffffffffffffffffffffffffff1663f2fde38b826040518263ffffffff1660e01b8152600401610b3091906123d1565b600060405180830381600087803b158015610b4a57600080fd5b505af1158015610b5e573d6000803e3d6000fd5b5050505050565b600760009054906101000a900473ffffffffffffffffffffffffffffffffffffffff1681565b60008060149054906101000a900460ff16905090565b610ba96120f7565b600073ffffffffffffffffffffffffffffffffffffffff16600360009054906101000a900473ffffffffffffffffffffffffffffffffffffffff1673ffffffffffffffffffffffffffffffffffffffff1603610c3a576040517f08c379a0000000000000000000000000000000000000000000000000000000008152600401610c31906129fb565b60405180910390fd5b600360009054906101000a900473ffffffffffffffffffffffffffffffffffffffff1673ffffffffffffffffffffffffffffffffffffffff16635ef23fa983836040518363ffffffff1660e01b8152600401610c97929190612a1b565b600060405180830381600087803b158015610cb157600080fd5b505af1158015610cc5573d6000803e3d6000fd5b505050505050565b610cd56120f7565b600073ffffffffffffffffffffffffffffffffffffffff16600760009054906101000a900473ffffffffffffffffffffffffffffffffffffffff1673ffffffffffffffffffffffffffffffffffffffff1603610d66576040517f08c379a0000000000000000000000000000000000000000000000000000000008152600401610d5d90612a90565b60405180910390fd5b600760009054906101000a900473ffffffffffffffffffffffffffffffffffffffff1673ffffffffffffffffffffffffffffffffffffffff1663f2fde38b826040518263ffffffff1660e01b8152600401610dc191906123d1565b600060405180830381600087803b158015610ddb57600080fd5b505af1158015610def573d6000803e3d6000fd5b5050505050565b610dfe6120f7565b600073ffffffffffffffffffffffffffffffffffffffff16600860009054906101000a900473ffffffffffffffffffffffffffffffffffffffff1673ffffffffffffffffffffffffffffffffffffffff1603610e8f576040517f08c379a0000000000000000000000000000000000000000000000000000000008152600401610e8690612afc565b60405180910390fd5b600860009054906101000a900473ffffffffffffffffffffffffffffffffffffffff1673ffffffffffffffffffffffffffffffffffffffff1663f2fde38b826040518263ffffffff1660e01b8152600401610eea91906123d1565b600060405180830381600087803b158015610f0457600080fd5b505af1158015610f18573d6000803e3d6000fd5b5050505050565b610f276120f7565b600073ffffffffffffffffffffffffffffffffffffffff16600160009054906101000a900473ffffffffffffffffffffffffffffffffffffffff1673ffffffffffffffffffffffffffffffffffffffff1603610fb8576040517f08c379a0000000000000000000000000000000000000000000000000000000008152600401610faf90612b68565b60405180910390fd5b600160009054906101000a900473ffffffffffffffffffffffffffffffffffffffff1673ffffffffffffffffffffffffffffffffffffffff1663f2fde38b826040518263ffffffff1660e01b815260040161101391906123d1565b600060405180830381600087803b15801561102d57600080fd5b505af1158015611041573d6000803e3d6000fd5b5050505050565b6110506120f7565b80600260006101000a81548173ffffffffffffffffffffffffffffffffffffffff021916908373ffffffffffffffffffffffffffffffffffffffff16021790555050565b61109c6120f7565b6110a6600061217e565b565b600460009054906101000a900473ffffffffffffffffffffffffffffffffffffffff1681565b6110d66120f7565b80600160006101000a81548173ffffffffffffffffffffffffffffffffffffffff021916908373ffffffffffffffffffffffffffffffffffffffff16021790555050565b6111226120f7565b600073ffffffffffffffffffffffffffffffffffffffff16600360009054906101000a900473ffffffffffffffffffffffffffffffffffffffff1673ffffffffffffffffffffffffffffffffffffffff161461120057600360009054906101000a900473ffffffffffffffffffffffffffffffffffffffff1673ffffffffffffffffffffffffffffffffffffffff1663f2fde38b826040518263ffffffff1660e01b81526004016111d391906123d1565b600060405180830381600087803b1580156111ed57600080fd5b505af19250505080156111fe575060015b505b600073ffffffffffffffffffffffffffffffffffffffff16600460009054906101000a900473ffffffffffffffffffffffffffffffffffffffff1673ffffffffffffffffffffffffffffffffffffffff16146112de57600460009054906101000a900473ffffffffffffffffffffffffffffffffffffffff1673ffffffffffffffffffffffffffffffffffffffff1663f2fde38b826040518263ffffffff1660e01b81526004016112b191906123d1565b600060405180830381600087803b1580156112cb57600080fd5b505af19250505080156112dc575060015b505b600073ffffffffffffffffffffffffffffffffffffffff16600160009054906101000a900473ffffffffffffffffffffffffffffffffffffffff1673ffffffffffffffffffffffffffffffffffffffff16146113bc57600160009054906101000a900473ffffffffffffffffffffffffffffffffffffffff1673ffffffffffffffffffffffffffffffffffffffff1663f2fde38b826040518263ffffffff1660e01b815260040161138f91906123d1565b600060405180830381600087803b1580156113a957600080fd5b505af19250505080156113ba575060015b505b600073ffffffffffffffffffffffffffffffffffffffff16600260009054906101000a900473ffffffffffffffffffffffffffffffffffffffff1673ffffffffffffffffffffffffffffffffffffffff161461149a57600260009054906101000a900473ffffffffffffffffffffffffffffffffffffffff1673ffffffffffffffffffffffffffffffffffffffff1663f2fde38b826040518263ffffffff1660e01b815260040161146d91906123d1565b600060405180830381600087803b15801561148757600080fd5b505af1925050508015611498575060015b505b600073ffffffffffffffffffffffffffffffffffffffff16600660009054906101000a900473ffffffffffffffffffffffffffffffffffffffff1673ffffffffffffffffffffffffffffffffffffffff161461157857600660009054906101000a900473ffffffffffffffffffffffffffffffffffffffff1673ffffffffffffffffffffffffffffffffffffffff1663f2fde38b826040518263ffffffff1660e01b815260040161154b91906123d1565b600060405180830381600087803b15801561156557600080fd5b505af1925050508015611576575060015b505b600073ffffffffffffffffffffffffffffffffffffffff16600760009054906101000a900473ffffffffffffffffffffffffffffffffffffffff1673ffffffffffffffffffffffffffffffffffffffff161461165657600760009054906101000a900473ffffffffffffffffffffffffffffffffffffffff1673ffffffffffffffffffffffffffffffffffffffff1663f2fde38b826040518263ffffffff1660e01b815260040161162991906123d1565b600060405180830381600087803b15801561164357600080fd5b505af1925050508015611654575060015b505b600073ffffffffffffffffffffffffffffffffffffffff16600860009054906101000a900473ffffffffffffffffffffffffffffffffffffffff1673ffffffffffffffffffffffffffffffffffffffff161461173457600860009054906101000a900473ffffffffffffffffffffffffffffffffffffffff1673ffffffffffffffffffffffffffffffffffffffff1663f2fde38b826040518263ffffffff1660e01b815260040161170791906123d1565b600060405180830381600087803b15801561172157600080fd5b505af1925050508015611732575060015b505b600073ffffffffffffffffffffffffffffffffffffffff16600560009054906101000a900473ffffffffffffffffffffffffffffffffffffffff1673ffffffffffffffffffffffffffffffffffffffff161461181257600560009054906101000a900473ffffffffffffffffffffffffffffffffffffffff1673ffffffffffffffffffffffffffffffffffffffff1663f2fde38b826040518263ffffffff1660e01b81526004016117e591906123d1565b600060405180830381600087803b1580156117ff57600080fd5b505af1925050508015611810575060015b505b50565b61181d6120f7565b600073ffffffffffffffffffffffffffffffffffffffff16600360009054906101000a900473ffffffffffffffffffffffffffffffffffffffff1673ffffffffffffffffffffffffffffffffffffffff16036118ae576040517f08c379a00000000000000000000000000000000000000000000000000000000081526004016118a5906129fb565b60405180910390fd5b600360009054906101000a900473ffffffffffffffffffffffffffffffffffffffff1673ffffffffffffffffffffffffffffffffffffffff1663f2fde38b826040518263ffffffff1660e01b815260040161190991906123d1565b600060405180830381600087803b15801561192357600080fd5b505af1158015611937573d6000803e3d6000fd5b5050505050565b6119466120f7565b80600660006101000a81548173ffffffffffffffffffffffffffffffffffffffff021916908373ffffffffffffffffffffffffffffffffffffffff16021790555050565b60008060009054906101000a900473ffffffffffffffffffffffffffffffffffffffff16905090565b600260009054906101000a900473ffffffffffffffffffffffffffffffffffffffff1681565b6119e16120f7565b600073ffffffffffffffffffffffffffffffffffffffff16600460009054906101000a900473ffffffffffffffffffffffffffffffffffffffff1673ffffffffffffffffffffffffffffffffffffffff1603611a72576040517f08c379a0000000000000000000000000000000000000000000000000000000008152600401611a69906128c1565b60405180910390fd5b600460009054906101000a900473ffffffffffffffffffffffffffffffffffffffff1673ffffffffffffffffffffffffffffffffffffffff1663ac6962518484846040518463ffffffff1660e01b8152600401611ad193929190612b88565b600060405180830381600087803b158015611aeb57600080fd5b505af1158015611aff573d6000803e3d6000fd5b50505050505050565b611b106120f7565b600073ffffffffffffffffffffffffffffffffffffffff16600660009054906101000a900473ffffffffffffffffffffffffffffffffffffffff1673ffffffffffffffffffffffffffffffffffffffff1603611ba1576040517f08c379a0000000000000000000000000000000000000000000000000000000008152600401611b989061279f565b60405180910390fd5b600660009054906101000a900473ffffffffffffffffffffffffffffffffffffffff1673ffffffffffffffffffffffffffffffffffffffff1663f2fde38b826040518263ffffffff1660e01b8152600401611bfc91906123d1565b600060405180830381600087803b158015611c1657600080fd5b505af1158015611c2a573d6000803e3d6000fd5b5050505050565b611c396120f7565b600073ffffffffffffffffffffffffffffffffffffffff16600360009054906101000a900473ffffffffffffffffffffffffffffffffffffffff1673ffffffffffffffffffffffffffffffffffffffff1603611cca576040517f08c379a0000000000000000000000000000000000000000000000000000000008152600401611cc1906129fb565b60405180910390fd5b600360009054906101000a900473ffffffffffffffffffffffffffffffffffffffff1673ffffffffffffffffffffffffffffffffffffffff1663b37c7e56858585856040518563ffffffff1660e01b8152600401611d2b9493929190612bbf565b600060405180830381600087803b158015611d4557600080fd5b505af1158015611d59573d6000803e3d6000fd5b5050505050505050565b600860009054906101000a900473ffffffffffffffffffffffffffffffffffffffff1681565b611d916120f7565b600073ffffffffffffffffffffffffffffffffffffffff16600560009054906101000a900473ffffffffffffffffffffffffffffffffffffffff1673ffffffffffffffffffffffffffffffffffffffff1603611e22576040517f08c379a0000000000000000000000000000000000000000000000000000000008152600401611e1990612c50565b60405180910390fd5b600560009054906101000a900473ffffffffffffffffffffffffffffffffffffffff1673ffffffffffffffffffffffffffffffffffffffff1663f2fde38b826040518263ffffffff1660e01b8152600401611e7d91906123d1565b600060405180830381600087803b158015611e9757600080fd5b505af1158015611eab573d6000803e3d6000fd5b5050505050565b600560009054906101000a900473ffffffffffffffffffffffffffffffffffffffff1681565b611ee06120f7565b600073ffffffffffffffffffffffffffffffffffffffff16600460009054906101000a900473ffffffffffffffffffffffffffffffffffffffff1673ffffffffffffffffffffffffffffffffffffffff1603611f71576040517f08c379a0000000000000000000000000000000000000000000000000000000008152600401611f68906128c1565b60405180910390fd5b600460009054906101000a900473ffffffffffffffffffffffffffffffffffffffff1673ffffffffffffffffffffffffffffffffffffffff1663f2fde38b826040518263ffffffff1660e01b8152600401611fcc91906123d1565b600060405180830381600087803b158015611fe657600080fd5b505af1158015611ffa573d6000803e3d6000fd5b5050505050565b6120096120f7565b612011612242565b565b61201b6120f7565b80600860006101000a81548173ffffffffffffffffffffffffffffffffffffffff021916908373ffffffffffffffffffffffffffffffffffffffff16021790555050565b6120676120f7565b600073ffffffffffffffffffffffffffffffffffffffff168173ffffffffffffffffffffffffffffffffffffffff16036120d95760006040517f1e4fbdf70000000000000000000000000000000000000000000000000000000081526004016120d091906123d1565b60405180910390fd5b6120e28161217e565b50565b6120ed6120f7565b6120f56122a5565b565b6120ff612307565b73ffffffffffffffffffffffffffffffffffffffff1661211d61198a565b73ffffffffffffffffffffffffffffffffffffffff161461217c57612140612307565b6040517f118cdaa700000000000000000000000000000000000000000000000000000000815260040161217391906123d1565b60405180910390fd5b565b60008060009054906101000a900473ffffffffffffffffffffffffffffffffffffffff169050816000806101000a81548173ffffffffffffffffffffffffffffffffffffffff021916908373ffffffffffffffffffffffffffffffffffffffff1602179055508173ffffffffffffffffffffffffffffffffffffffff168173ffffffffffffffffffffffffffffffffffffffff167f8be0079c531659141344cd1fd0a4f28419497f9722a3daafe3b4186f6b6457e060405160405180910390a35050565b61224a61230f565b6001600060146101000a81548160ff0219169083151502179055507f62e78cea01bee320cd4e420270b5ea74000d11b0c9f74754ebdbfc544b05a25861228e612307565b60405161229b91906123d1565b60405180910390a1565b6122ad612350565b60008060146101000a81548160ff0219169083151502179055507f5db9ee0a495bf2e6ff9c91a7834c1ba4fdd244a5e8aa4e537bd38aeae4b073aa6122f0612307565b6040516122fd91906123d1565b60405180910390a1565b600033905090565b612317610b8b565b1561234e576040517fd93c066500000000000000000000000000000000000000000000000000000000815260040160405180910390fd5b565b612358610b8b565b61238e576040517f8dfc202b00000000000000000000000000000000000000000000000000000000815260040160405180910390fd5b565b600073ffffffffffffffffffffffffffffffffffffffff82169050919050565b60006123bb82612390565b9050919050565b6123cb816123b0565b82525050565b60006020820190506123e660008301846123c2565b92915050565b600080fd5b600080fd5b6123ff816123b0565b811461240a57600080fd5b50565b60008135905061241c816123f6565b92915050565b600060208284031215612438576124376123ec565b5b60006124468482850161240d565b91505092915050565b600080fd5b600080fd5b600080fd5b60008083601f8401126124745761247361244f565b5b8235905067ffffffffffffffff81111561249157612490612454565b5b6020830191508360208202830111156124ad576124ac612459565b5b9250929050565b600080600080604085870312156124ce576124cd6123ec565b5b600085013567ffffffffffffffff8111156124ec576124eb6123f1565b5b6124f88782880161245e565b9450945050602085013567ffffffffffffffff81111561251b5761251a6123f1565b5b6125278782880161245e565b925092505092959194509250565b6000819050919050565b61254881612535565b811461255357600080fd5b50565b6000813590506125658161253f565b92915050565b60008115159050919050565b6125808161256b565b811461258b57600080fd5b50565b60008135905061259d81612577565b92915050565b600080600080600060a086880312156125bf576125be6123ec565b5b60006125cd88828901612556565b95505060206125de88828901612556565b94505060406125ef88828901612556565b935050606061260088828901612556565b92505060806126118882890161258e565b9150509295509295909350565b6126278161256b565b82525050565b6000602082019050612642600083018461261e565b92915050565b6000806040838503121561265f5761265e6123ec565b5b600061266d85828601612556565b925050602061267e85828601612556565b9150509250929050565b6000806000606084860312156126a1576126a06123ec565b5b60006126af86828701612556565b93505060206126c086828701612556565b92505060406126d186828701612556565b9150509250925092565b600080600080608085870312156126f5576126f46123ec565b5b600061270387828801612556565b945050602061271487828801612556565b935050604061272587828801612556565b92505060606127368782880161258e565b91505092959194509250565b600082825260208201905092915050565b7f576865656c4f66466f7274756e65206e6f742073657400000000000000000000600082015250565b6000612789601683612742565b915061279482612753565b602082019050919050565b600060208201905081810360008301526127b88161277c565b9050919050565b600082825260208201905092915050565b600080fd5b82818337505050565b60006127ea83856127bf565b93507f07ffffffffffffffffffffffffffffffffffffffffffffffffffffffffffffff83111561281d5761281c6127d0565b5b60208302925061282e8385846127d5565b82840190509392505050565b600060408201905081810360008301526128558186886127de565b9050818103602083015261286a8184866127de565b905095945050505050565b7f4d696e696e67506f6f6c206e6f74207365740000000000000000000000000000600082015250565b60006128ab601283612742565b91506128b682612875565b602082019050919050565b600060208201905081810360008301526128da8161289e565b9050919050565b6128ea81612535565b82525050565b600060a08201905061290560008301886128e1565b61291260208301876128e1565b61291f60408301866128e1565b61292c60608301856128e1565b612939608083018461261e565b9695505050505050565b7f53776170506f6f6c206e6f742073657400000000000000000000000000000000600082015250565b6000612979601083612742565b915061298482612943565b602082019050919050565b600060208201905081810360008301526129a88161296c565b9050919050565b7f5374616b696e67506f6f6c206e6f742073657400000000000000000000000000600082015250565b60006129e5601383612742565b91506129f0826129af565b602082019050919050565b60006020820190508181036000830152612a14816129d8565b9050919050565b6000604082019050612a3060008301856128e1565b612a3d60208301846128e1565b9392505050565b7f526f636b657447616d65206e6f74207365740000000000000000000000000000600082015250565b6000612a7a601283612742565b9150612a8582612a44565b602082019050919050565b60006020820190508181036000830152612aa981612a6d565b9050919050565b7f4c6f7474657279206e6f74207365740000000000000000000000000000000000600082015250565b6000612ae6600f83612742565b9150612af182612ab0565b602082019050919050565b60006020820190508181036000830152612b1581612ad9565b9050919050565b7f4c495054546f6b656e206e6f7420736574000000000000000000000000000000600082015250565b6000612b52601183612742565b9150612b5d82612b1c565b602082019050919050565b60006020820190508181036000830152612b8181612b45565b9050919050565b6000606082019050612b9d60008301866128e1565b612baa60208301856128e1565b612bb760408301846128e1565b949350505050565b6000608082019050612bd460008301876128e1565b612be160208301866128e1565b612bee60408301856128e1565b612bfb606083018461261e565b95945050505050565b7f526566657272616c50726f6772616d206e6f7420736574000000000000000000600082015250565b6000612c3a601783612742565b9150612c4582612c04565b602082019050919050565b60006020820190508181036000830152612c6981612c2d565b905091905056fea264697066735822122014145cffd8dba06bab508579a7a6d429f366d5db9e379dd8bf8dcddbf74f3e9664736f6c63430008180033",
  "linkReferences": {},
  "deployedLinkReferences": {}
}