{
  "_format": "hh-sol-artifact-1",
  "contractName": "Lottery",
  "sourceName": "contracts/Lottery.sol",
  "abi": [
    {
      "inputs": [
        {
          "internalType": "address",
          "name": "_lipt",
          "type": "address"
        }
      ],
      "stateMutability": "nonpayable",
      "type": "constructor"
    },
    {
      "inputs": [
        {
          "internalType": "address",
          "name": "owner",
          "type": "address"
        }
      ],
      "name": "OwnableInvalidOwner",
      "type": "error"
    },
    {
      "inputs": [
        {
          "internalType": "address",
          "name": "account",
          "type": "address"
        }
      ],
      "name": "OwnableUnauthorizedAccount",
      "type": "error"
    },
    {
      "inputs": [
        {
          "internalType": "address",
          "name": "token",
          "type": "address"
        }
      ],
      "name": "SafeERC20FailedOperation",
      "type": "error"
    },
    {
      "anonymous": false,
      "inputs": [
        {
          "indexed": true,
          "internalType": "address",
          "name": "user",
          "type": "address"
        },
        {
          "indexed": false,
          "internalType": "uint256",
          "name": "amount",
          "type": "uint256"
        }
      ],
      "name": "BetPlaced",
      "type": "event"
    },
    {
      "anonymous": false,
      "inputs": [
        {
          "indexed": false,
          "internalType": "uint256",
          "name": "amount",
          "type": "uint256"
        }
      ],
      "name": "HouseEdgeCollected",
      "type": "event"
    },
    {
      "anonymous": false,
      "inputs": [
        {
          "indexed": false,
          "internalType": "uint256",
          "name": "drawId",
          "type": "uint256"
        },
        {
          "indexed": true,
          "internalType": "address",
          "name": "winner",
          "type": "address"
        },
        {
          "indexed": false,
          "internalType": "uint256",
          "name": "amount",
          "type": "uint256"
        }
      ],
      "name": "LotteryPrizeClaimed",
      "type": "event"
    },
    {
      "anonymous": false,
      "inputs": [
        {
          "indexed": false,
          "internalType": "uint256",
          "name": "drawId",
          "type": "uint256"
        },
        {
          "indexed": true,
          "internalType": "address",
          "name": "winner",
          "type": "address"
        }
      ],
      "name": "LotteryWinnerDrawn",
      "type": "event"
    },
    {
      "anonymous": false,
      "inputs": [
        {
          "indexed": false,
          "internalType": "uint256",
          "name": "drawId",
          "type": "uint256"
        },
        {
          "indexed": false,
          "internalType": "uint256",
          "name": "ticketPrice",
          "type": "uint256"
        }
      ],
      "name": "NewLotteryDraw",
      "type": "event"
    },
    {
      "anonymous": false,
      "inputs": [
        {
          "indexed": true,
          "internalType": "address",
          "name": "previousOwner",
          "type": "address"
        },
        {
          "indexed": true,
          "internalType": "address",
          "name": "newOwner",
          "type": "address"
        }
      ],
      "name": "OwnershipTransferred",
      "type": "event"
    },
    {
      "anonymous": false,
      "inputs": [
        {
          "indexed": true,
          "internalType": "address",
          "name": "user",
          "type": "address"
        },
        {
          "indexed": false,
          "internalType": "uint256",
          "name": "quantity",
          "type": "uint256"
        }
      ],
      "name": "TicketsPurchased",
      "type": "event"
    },
    {
      "anonymous": false,
      "inputs": [
        {
          "indexed": true,
          "internalType": "address",
          "name": "user",
          "type": "address"
        },
        {
          "indexed": false,
          "internalType": "uint256",
          "name": "amount",
          "type": "uint256"
        }
      ],
      "name": "WinningsPaid",
      "type": "event"
    },
    {
      "inputs": [],
      "name": "DEAD_ADDRESS",
      "outputs": [
        {
          "internalType": "address",
          "name": "",
          "type": "address"
        }
      ],
      "stateMutability": "view",
      "type": "function"
    },
    {
      "inputs": [],
      "name": "LIPT",
      "outputs": [
        {
          "internalType": "contract IERC20",
          "name": "",
          "type": "address"
        }
      ],
      "stateMutability": "view",
      "type": "function"
    },
    {
      "inputs": [
        {
          "internalType": "uint256",
          "name": "ticketQuantity",
          "type": "uint256"
        }
      ],
      "name": "buyTickets",
      "outputs": [],
      "stateMutability": "nonpayable",
      "type": "function"
    },
    {
      "inputs": [
        {
          "internalType": "uint256",
          "name": "drawId",
          "type": "uint256"
        }
      ],
      "name": "claimLotteryPrize",
      "outputs": [],
      "stateMutability": "nonpayable",
      "type": "function"
    },
    {
      "inputs": [],
      "name": "currentDraw",
      "outputs": [
        {
          "internalType": "uint256",
          "name": "drawId",
          "type": "uint256"
        },
        {
          "internalType": "uint256",
          "name": "ticketPrice",
          "type": "uint256"
        },
        {
          "internalType": "uint256",
          "name": "totalTickets",
          "type": "uint256"
        },
        {
          "internalType": "address",
          "name": "winner",
          "type": "address"
        },
        {
          "internalType": "bool",
          "name": "drawn",
          "type": "bool"
        }
      ],
      "stateMutability": "view",
      "type": "function"
    },
    {
      "inputs": [],
      "name": "drawCounter",
      "outputs": [
        {
          "internalType": "uint256",
          "name": "",
          "type": "uint256"
        }
      ],
      "stateMutability": "view",
      "type": "function"
    },
    {
      "inputs": [
        {
          "internalType": "uint256",
          "name": "simulatedRandomness",
          "type": "uint256"
        }
      ],
      "name": "forceDrawWinner",
      "outputs": [],
      "stateMutability": "nonpayable",
      "type": "function"
    },
    {
      "inputs": [],
      "name": "owner",
      "outputs": [
        {
          "internalType": "address",
          "name": "",
          "type": "address"
        }
      ],
      "stateMutability": "view",
      "type": "function"
    },
    {
      "inputs": [
        {
          "internalType": "uint256",
          "name": "",
          "type": "uint256"
        }
      ],
      "name": "participants",
      "outputs": [
        {
          "internalType": "address",
          "name": "",
          "type": "address"
        }
      ],
      "stateMutability": "view",
      "type": "function"
    },
    {
      "inputs": [],
      "name": "renounceOwnership",
      "outputs": [],
      "stateMutability": "nonpayable",
      "type": "function"
    },
    {
      "inputs": [
        {
          "internalType": "uint256",
          "name": "price",
          "type": "uint256"
        }
      ],
      "name": "setLotteryTicketPrice",
      "outputs": [],
      "stateMutability": "nonpayable",
      "type": "function"
    },
    {
      "inputs": [
        {
          "internalType": "address",
          "name": "_treasuryAddress",
          "type": "address"
        }
      ],
      "name": "setTreasuryAddress",
      "outputs": [],
      "stateMutability": "nonpayable",
      "type": "function"
    },
    {
      "inputs": [],
      "name": "ticketPrice",
      "outputs": [
        {
          "internalType": "uint256",
          "name": "",
          "type": "uint256"
        }
      ],
      "stateMutability": "view",
      "type": "function"
    },
    {
      "inputs": [
        {
          "internalType": "address",
          "name": "",
          "type": "address"
        }
      ],
      "name": "ticketsBought",
      "outputs": [
        {
          "internalType": "uint256",
          "name": "",
          "type": "uint256"
        }
      ],
      "stateMutability": "view",
      "type": "function"
    },
    {
      "inputs": [
        {
          "internalType": "address",
          "name": "newOwner",
          "type": "address"
        }
      ],
      "name": "transferOwnership",
      "outputs": [],
      "stateMutability": "nonpayable",
      "type": "function"
    },
    {
      "inputs": [],
      "name": "treasuryAddress",
      "outputs": [
        {
          "internalType": "address",
          "name": "",
          "type": "address"
        }
      ],
      "stateMutability": "view",
      "type": "function"
    }
  ],
  "bytecode": "0x60c060405261dead73ffffffffffffffffffffffffffffffffffffffff1660a09073ffffffffffffffffffffffffffffffffffffffff1681525068056bc75e2d6310000060085560006009553480156200005857600080fd5b5060405162001c8738038062001c8783398181016040528101906200007e9190620003ac565b8033600073ffffffffffffffffffffffffffffffffffffffff168173ffffffffffffffffffffffffffffffffffffffff1603620000f55760006040517f1e4fbdf7000000000000000000000000000000000000000000000000000000008152600401620000ec9190620003ef565b60405180910390fd5b62000106816200015360201b60201c565b508073ffffffffffffffffffffffffffffffffffffffff1660808173ffffffffffffffffffffffffffffffffffffffff1681525050506200014c6200021760201b60201c565b50620004d0565b60008060009054906101000a900473ffffffffffffffffffffffffffffffffffffffff169050816000806101000a81548173ffffffffffffffffffffffffffffffffffffffff021916908373ffffffffffffffffffffffffffffffffffffffff1602179055508173ffffffffffffffffffffffffffffffffffffffff168173ffffffffffffffffffffffffffffffffffffffff167f8be0079c531659141344cd1fd0a4f28419497f9722a3daafe3b4186f6b6457e060405160405180910390a35050565b600960008154809291906200022c9062000445565b91905055506040518060a001604052806009548152602001600854815260200160008152602001600073ffffffffffffffffffffffffffffffffffffffff16815260200160001515815250600260008201518160000155602082015181600101556040820151816002015560608201518160030160006101000a81548173ffffffffffffffffffffffffffffffffffffffff021916908373ffffffffffffffffffffffffffffffffffffffff16021790555060808201518160030160146101000a81548160ff0219169083151502179055509050507fe5536671ea861395075447244d9466e9ff6b6ac1bd735fec0a6a5f23a3cad87360095460085460405162000338929190620004a3565b60405180910390a1565b600080fd5b600073ffffffffffffffffffffffffffffffffffffffff82169050919050565b6000620003748262000347565b9050919050565b620003868162000367565b81146200039257600080fd5b50565b600081519050620003a6816200037b565b92915050565b600060208284031215620003c557620003c462000342565b5b6000620003d58482850162000395565b91505092915050565b620003e98162000367565b82525050565b6000602082019050620004066000830184620003de565b92915050565b7f4e487b7100000000000000000000000000000000000000000000000000000000600052601160045260246000fd5b6000819050919050565b600062000452826200043b565b91507fffffffffffffffffffffffffffffffffffffffffffffffffffffffffffffffff82036200048757620004866200040c565b5b600182019050919050565b6200049d816200043b565b82525050565b6000604082019050620004ba600083018562000492565b620004c9602083018462000492565b9392505050565b60805160a05161177562000512600039600081816104c20152610697015260008181610456015281816104a101528181610a5e0152610b8601526117756000f3fe608060405234801561001057600080fd5b50600436106101005760003560e01c806384bd326411610097578063981d21bb11610066578063981d21bb14610279578063a0ede5a414610297578063c5f956af146102b3578063f2fde38b146102d157610100565b806384bd3264146101eb5780638da5cb5b1461021b57806392b5ba0b1461023957806397ba287c1461025757610100565b80634e6fd6c4116100d35780634e6fd6c41461018b5780635dc3681d146101a95780636605bfda146101c5578063715018a6146101e157610100565b80631209b1f6146101055780631a65058c146101235780632f3666371461013f57806335c1d3491461015b575b600080fd5b61010d6102ed565b60405161011a9190611034565b60405180910390f35b61013d60048036038101906101389190611080565b6102f3565b005b61015960048036038101906101549190611080565b6103a6565b005b61017560048036038101906101709190611080565b610656565b60405161018291906110ee565b60405180910390f35b610193610695565b6040516101a091906110ee565b60405180910390f35b6101c360048036038101906101be9190611080565b6106b9565b005b6101df60048036038101906101da9190611135565b6108f5565b005b6101e96109b0565b005b61020560048036038101906102009190611135565b6109c4565b6040516102129190611034565b60405180910390f35b6102236109dc565b60405161023091906110ee565b60405180910390f35b610241610a05565b60405161024e9190611034565b60405180910390f35b61025f610a0b565b60405161027095949392919061117d565b60405180910390f35b610281610a5c565b60405161028e919061122f565b60405180910390f35b6102b160048036038101906102ac9190611080565b610a80565b005b6102bb610a92565b6040516102c891906110ee565b60405180910390f35b6102eb60048036038101906102e69190611135565b610ab8565b005b60085481565b600260000154811061033a576040517f08c379a0000000000000000000000000000000000000000000000000000000008152600401610331906112a7565b60405180910390fd5b6000683635c9adc5dea0000090506103523382610b3e565b3373ffffffffffffffffffffffffffffffffffffffff167feafb794426c4272e23cc668e876259041acb81a3d3adaf119170ffb8557d01ed838360405161039a9291906112c7565b60405180910390a25050565b600260030160149054906101000a900460ff16156103f9576040517f08c379a00000000000000000000000000000000000000000000000000000000081526004016103f09061133c565b60405180910390fd5b6000811161043c576040517f08c379a0000000000000000000000000000000000000000000000000000000008152600401610433906113ce565b60405180910390fd5b60006002600101548261044f919061141d565b905061047d7f0000000000000000000000000000000000000000000000000000000000000000333084610bfe565b60006127106101f483610490919061141d565b61049a919061148e565b90506104e77f00000000000000000000000000000000000000000000000000000000000000007f000000000000000000000000000000000000000000000000000000000000000083610c80565b6000600660003373ffffffffffffffffffffffffffffffffffffffff1673ffffffffffffffffffffffffffffffffffffffff1681526020019081526020016000205403610592576007339080600181540180825580915050600190039060005260206000200160009091909190916101000a81548173ffffffffffffffffffffffffffffffffffffffff021916908373ffffffffffffffffffffffffffffffffffffffff1602179055505b82600660003373ffffffffffffffffffffffffffffffffffffffff1673ffffffffffffffffffffffffffffffffffffffff16815260200190815260200160002060008282546105e191906114bf565b92505081905550826002800160008282546105fc91906114bf565b925050819055503373ffffffffffffffffffffffffffffffffffffffff167fe11731cb4f1eb3ec3dd09bdc96809bb07365f4c881cda3192b397a4bc0b6da40846040516106499190611034565b60405180910390a2505050565b6007818154811061066657600080fd5b906000526020600020016000915054906101000a900473ffffffffffffffffffffffffffffffffffffffff1681565b7f000000000000000000000000000000000000000000000000000000000000000081565b6106c1610cff565b600260030160149054906101000a900460ff1615610714576040517f08c379a000000000000000000000000000000000000000000000000000000000815260040161070b9061133c565b60405180910390fd5b600060028001541161075b576040517f08c379a00000000000000000000000000000000000000000000000000000000081526004016107529061153f565b60405180910390fd5b600060028001548261076d919061155f565b905060008060005b6007805490508110156108315760006007828154811061079857610797611590565b5b9060005260206000200160009054906101000a900473ffffffffffffffffffffffffffffffffffffffff169050600660008273ffffffffffffffffffffffffffffffffffffffff1673ffffffffffffffffffffffffffffffffffffffff168152602001908152602001600020548461081091906114bf565b9350838510156108235780925050610831565b508080600101915050610775565b5080600260030160006101000a81548173ffffffffffffffffffffffffffffffffffffffff021916908373ffffffffffffffffffffffffffffffffffffffff1602179055506001600260030160146101000a81548160ff0219169083151502179055508073ffffffffffffffffffffffffffffffffffffffff167f12681f626095c5896b89ba84c2c4dc4e474269de063ae2999fc54924846d8caa6002600001546040516108df9190611034565b60405180910390a26108ef610d86565b50505050565b6108fd610cff565b600073ffffffffffffffffffffffffffffffffffffffff168173ffffffffffffffffffffffffffffffffffffffff160361096c576040517f08c379a00000000000000000000000000000000000000000000000000000000081526004016109639061160b565b60405180910390fd5b80600160006101000a81548173ffffffffffffffffffffffffffffffffffffffff021916908373ffffffffffffffffffffffffffffffffffffffff16021790555050565b6109b8610cff565b6109c26000610ead565b565b60066020528060005260406000206000915090505481565b60008060009054906101000a900473ffffffffffffffffffffffffffffffffffffffff16905090565b60095481565b60028060000154908060010154908060020154908060030160009054906101000a900473ffffffffffffffffffffffffffffffffffffffff16908060030160149054906101000a900460ff16905085565b7f000000000000000000000000000000000000000000000000000000000000000081565b610a88610cff565b8060088190555050565b600160009054906101000a900473ffffffffffffffffffffffffffffffffffffffff1681565b610ac0610cff565b600073ffffffffffffffffffffffffffffffffffffffff168173ffffffffffffffffffffffffffffffffffffffff1603610b325760006040517f1e4fbdf7000000000000000000000000000000000000000000000000000000008152600401610b2991906110ee565b60405180910390fd5b610b3b81610ead565b50565b60008111610b81576040517f08c379a0000000000000000000000000000000000000000000000000000000008152600401610b7890611677565b60405180910390fd5b610bac7f00000000000000000000000000000000000000000000000000000000000000008383610c80565b8173ffffffffffffffffffffffffffffffffffffffff167f478faca9a753c4ddb73661df251feef7ac07bfea4dd12660d21b4b80bc431cc182604051610bf29190611034565b60405180910390a25050565b610c7a848573ffffffffffffffffffffffffffffffffffffffff166323b872dd868686604051602401610c3393929190611697565b604051602081830303815290604052915060e01b6020820180517bffffffffffffffffffffffffffffffffffffffffffffffffffffffff8381831617835250505050610f71565b50505050565b610cfa838473ffffffffffffffffffffffffffffffffffffffff1663a9059cbb8585604051602401610cb39291906116ce565b604051602081830303815290604052915060e01b6020820180517bffffffffffffffffffffffffffffffffffffffffffffffffffffffff8381831617835250505050610f71565b505050565b610d07611013565b73ffffffffffffffffffffffffffffffffffffffff16610d256109dc565b73ffffffffffffffffffffffffffffffffffffffff1614610d8457610d48611013565b6040517f118cdaa7000000000000000000000000000000000000000000000000000000008152600401610d7b91906110ee565b60405180910390fd5b565b60096000815480929190610d99906116f7565b91905055506040518060a001604052806009548152602001600854815260200160008152602001600073ffffffffffffffffffffffffffffffffffffffff16815260200160001515815250600260008201518160000155602082015181600101556040820151816002015560608201518160030160006101000a81548173ffffffffffffffffffffffffffffffffffffffff021916908373ffffffffffffffffffffffffffffffffffffffff16021790555060808201518160030160146101000a81548160ff0219169083151502179055509050507fe5536671ea861395075447244d9466e9ff6b6ac1bd735fec0a6a5f23a3cad873600954600854604051610ea39291906112c7565b60405180910390a1565b60008060009054906101000a900473ffffffffffffffffffffffffffffffffffffffff169050816000806101000a81548173ffffffffffffffffffffffffffffffffffffffff021916908373ffffffffffffffffffffffffffffffffffffffff1602179055508173ffffffffffffffffffffffffffffffffffffffff168173ffffffffffffffffffffffffffffffffffffffff167f8be0079c531659141344cd1fd0a4f28419497f9722a3daafe3b4186f6b6457e060405160405180910390a35050565b600080602060008451602086016000885af180610f94576040513d6000823e3d81fd5b3d925060005191505060008214610faf576001811415610fcb565b60008473ffffffffffffffffffffffffffffffffffffffff163b145b1561100d57836040517f5274afe700000000000000000000000000000000000000000000000000000000815260040161100491906110ee565b60405180910390fd5b50505050565b600033905090565b6000819050919050565b61102e8161101b565b82525050565b60006020820190506110496000830184611025565b92915050565b600080fd5b61105d8161101b565b811461106857600080fd5b50565b60008135905061107a81611054565b92915050565b6000602082840312156110965761109561104f565b5b60006110a48482850161106b565b91505092915050565b600073ffffffffffffffffffffffffffffffffffffffff82169050919050565b60006110d8826110ad565b9050919050565b6110e8816110cd565b82525050565b600060208201905061110360008301846110df565b92915050565b611112816110cd565b811461111d57600080fd5b50565b60008135905061112f81611109565b92915050565b60006020828403121561114b5761114a61104f565b5b600061115984828501611120565b91505092915050565b60008115159050919050565b61117781611162565b82525050565b600060a0820190506111926000830188611025565b61119f6020830187611025565b6111ac6040830186611025565b6111b960608301856110df565b6111c6608083018461116e565b9695505050505050565b6000819050919050565b60006111f56111f06111eb846110ad565b6111d0565b6110ad565b9050919050565b6000611207826111da565b9050919050565b6000611219826111fc565b9050919050565b6112298161120e565b82525050565b60006020820190506112446000830184611220565b92915050565b600082825260208201905092915050565b7f4c6f74746572793a20496e76616c696420647261772049440000000000000000600082015250565b600061129160188361124a565b915061129c8261125b565b602082019050919050565b600060208201905081810360008301526112c081611284565b9050919050565b60006040820190506112dc6000830185611025565b6112e96020830184611025565b9392505050565b7f4c6f74746572793a204472617720616c72656164792066696e69736865640000600082015250565b6000611326601e8361124a565b9150611331826112f0565b602082019050919050565b6000602082019050818103600083015261135581611319565b9050919050565b7f4c6f74746572793a204d75737420627579206174206c65617374206f6e65207460008201527f69636b6574000000000000000000000000000000000000000000000000000000602082015250565b60006113b860258361124a565b91506113c38261135c565b604082019050919050565b600060208201905081810360008301526113e7816113ab565b9050919050565b7f4e487b7100000000000000000000000000000000000000000000000000000000600052601160045260246000fd5b60006114288261101b565b91506114338361101b565b92508282026114418161101b565b91508282048414831517611458576114576113ee565b5b5092915050565b7f4e487b7100000000000000000000000000000000000000000000000000000000600052601260045260246000fd5b60006114998261101b565b91506114a48361101b565b9250826114b4576114b361145f565b5b828204905092915050565b60006114ca8261101b565b91506114d58361101b565b92508282019050808211156114ed576114ec6113ee565b5b92915050565b7f4c6f74746572793a204e6f207469636b65747320736f6c640000000000000000600082015250565b600061152960188361124a565b9150611534826114f3565b602082019050919050565b600060208201905081810360008301526115588161151c565b9050919050565b600061156a8261101b565b91506115758361101b565b9250826115855761158461145f565b5b828206905092915050565b7f4e487b7100000000000000000000000000000000000000000000000000000000600052603260045260246000fd5b7f47616d65426173653a205a65726f206164647265737300000000000000000000600082015250565b60006115f560168361124a565b9150611600826115bf565b602082019050919050565b60006020820190508181036000830152611624816115e8565b9050919050565b7f47616d65426173653a205a65726f2077696e6e696e6773000000000000000000600082015250565b600061166160178361124a565b915061166c8261162b565b602082019050919050565b6000602082019050818103600083015261169081611654565b9050919050565b60006060820190506116ac60008301866110df565b6116b960208301856110df565b6116c66040830184611025565b949350505050565b60006040820190506116e360008301856110df565b6116f06020830184611025565b9392505050565b60006117028261101b565b91507fffffffffffffffffffffffffffffffffffffffffffffffffffffffffffffffff8203611734576117336113ee565b5b60018201905091905056fea26469706673582212207b2f5758084baf8a515416b768c516af0e12624c84d84de75350b19783d1827e64736f6c63430008180033",
  "linkReferences": {},
  "deployedLinkReferences": {}
}